{
	"functions.sol": {
		"ExampleFunctions": {
			"abi": [
				{
					"inputs": [],
					"name": "getValue",
					"outputs": [
						{
							"internalType": "uint256",
							"name": "",
							"type": "uint256"
						}
					],
					"stateMutability": "view",
					"type": "function"
				},
				{
					"inputs": [],
					"name": "message",
					"outputs": [
						{
							"internalType": "string",
							"name": "",
							"type": "string"
						}
					],
					"stateMutability": "view",
					"type": "function"
				},
				{
					"inputs": [
						{
							"internalType": "uint256",
							"name": "x",
							"type": "uint256"
						},
						{
							"internalType": "uint256",
							"name": "y",
							"type": "uint256"
						}
					],
					"name": "multiply",
					"outputs": [
						{
							"internalType": "uint256",
							"name": "",
							"type": "uint256"
						}
					],
					"stateMutability": "pure",
					"type": "function"
				},
				{
					"inputs": [],
					"name": "name",
					"outputs": [
						{
							"internalType": "string",
							"name": "",
							"type": "string"
						}
					],
					"stateMutability": "view",
					"type": "function"
				},
				{
					"inputs": [],
					"name": "num",
					"outputs": [
						{
							"internalType": "uint256",
							"name": "",
							"type": "uint256"
						}
					],
					"stateMutability": "view",
					"type": "function"
				},
				{
					"inputs": [],
					"name": "payEther",
					"outputs": [],
					"stateMutability": "payable",
					"type": "function"
				},
				{
					"inputs": [
						{
							"internalType": "string",
							"name": "_msg",
							"type": "string"
						}
					],
					"name": "setMsg",
					"outputs": [],
					"stateMutability": "nonpayable",
					"type": "function"
				},
				{
					"inputs": [
						{
							"internalType": "string",
							"name": "_name",
							"type": "string"
						},
						{
							"internalType": "uint256",
							"name": "_number",
							"type": "uint256"
						}
					],
					"name": "setName",
					"outputs": [],
					"stateMutability": "nonpayable",
					"type": "function"
				},
				{
					"inputs": [
						{
							"internalType": "uint256",
							"name": "_value",
							"type": "uint256"
						}
					],
					"name": "setValue",
					"outputs": [],
					"stateMutability": "nonpayable",
					"type": "function"
				}
			],
			"devdoc": {
				"kind": "dev",
				"methods": {},
				"version": 1
			},
			"evm": {
				"assembly": "    /* \"functions.sol\":60:1169  contract ExampleFunctions{... */\n  mstore(0x40, 0x80)\n  callvalue\n  dup1\n  iszero\n  tag_1\n  jumpi\n  revert(0x00, 0x00)\ntag_1:\n  pop\n  dataSize(sub_0)\n  dup1\n  dataOffset(sub_0)\n  0x00\n  codecopy\n  0x00\n  return\nstop\n\nsub_0: assembly {\n        /* \"functions.sol\":60:1169  contract ExampleFunctions{... */\n      mstore(0x40, 0x80)\n      jumpi(tag_1, lt(calldatasize, 0x04))\n      shr(0xe0, calldataload(0x00))\n      dup1\n      0x4e70b1dc\n      gt\n      tag_11\n      jumpi\n      dup1\n      0x4e70b1dc\n      eq\n      tag_6\n      jumpi\n      dup1\n      0x55241077\n      eq\n      tag_7\n      jumpi\n      dup1\n      0xc4784fd4\n      eq\n      tag_8\n      jumpi\n      dup1\n      0xe21f37ce\n      eq\n      tag_9\n      jumpi\n      dup1\n      0xf7474d00\n      eq\n      tag_10\n      jumpi\n      jump(tag_1)\n    tag_11:\n      dup1\n      0x06fdde03\n      eq\n      tag_2\n      jumpi\n      dup1\n      0x165c4a16\n      eq\n      tag_3\n      jumpi\n      dup1\n      0x20965255\n      eq\n      tag_4\n      jumpi\n      dup1\n      0x3baa8170\n      eq\n      tag_5\n      jumpi\n    tag_1:\n      revert(0x00, 0x00)\n        /* \"functions.sol\":150:168  string public name */\n    tag_2:\n      callvalue\n      dup1\n      iszero\n      tag_12\n      jumpi\n      revert(0x00, 0x00)\n    tag_12:\n      pop\n      tag_13\n      tag_14\n      jump\t// in\n    tag_13:\n      mload(0x40)\n      tag_15\n      swap2\n      swap1\n      tag_16\n      jump\t// in\n    tag_15:\n      mload(0x40)\n      dup1\n      swap2\n      sub\n      swap1\n      return\n        /* \"functions.sol\":966:1119  function multiply(uint256 x, uint256 y) external pure returns(uint256){... */\n    tag_3:\n      callvalue\n      dup1\n      iszero\n      tag_17\n      jumpi\n      revert(0x00, 0x00)\n    tag_17:\n      pop\n      tag_18\n      0x04\n      dup1\n      calldatasize\n      sub\n      dup2\n      add\n      swap1\n      tag_19\n      swap2\n      swap1\n      tag_20\n      jump\t// in\n    tag_19:\n      tag_21\n      jump\t// in\n    tag_18:\n      mload(0x40)\n      tag_22\n      swap2\n      swap1\n      tag_23\n      jump\t// in\n    tag_22:\n      mload(0x40)\n      dup1\n      swap2\n      sub\n      swap1\n      return\n        /* \"functions.sol\":876:958  function getValue() external view returns(uint256) {... */\n    tag_4:\n      callvalue\n      dup1\n      iszero\n      tag_24\n      jumpi\n      revert(0x00, 0x00)\n    tag_24:\n      pop\n      tag_25\n      tag_26\n      jump\t// in\n    tag_25:\n      mload(0x40)\n      tag_27\n      swap2\n      swap1\n      tag_23\n      jump\t// in\n    tag_27:\n      mload(0x40)\n      dup1\n      swap2\n      sub\n      swap1\n      return\n        /* \"functions.sol\":622:784  function setName(string memory _name, uint256 _number) external {... */\n    tag_5:\n      callvalue\n      dup1\n      iszero\n      tag_28\n      jumpi\n      revert(0x00, 0x00)\n    tag_28:\n      pop\n      tag_29\n      0x04\n      dup1\n      calldatasize\n      sub\n      dup2\n      add\n      swap1\n      tag_30\n      swap2\n      swap1\n      tag_31\n      jump\t// in\n    tag_30:\n      tag_32\n      jump\t// in\n    tag_29:\n      stop\n        /* \"functions.sol\":125:143  uint256 public num */\n    tag_6:\n      callvalue\n      dup1\n      iszero\n      tag_33\n      jumpi\n      revert(0x00, 0x00)\n    tag_33:\n      pop\n      tag_34\n      tag_35\n      jump\t// in\n    tag_34:\n      mload(0x40)\n      tag_36\n      swap2\n      swap1\n      tag_23\n      jump\t// in\n    tag_36:\n      mload(0x40)\n      dup1\n      swap2\n      sub\n      swap1\n      return\n        /* \"functions.sol\":792:868  function setValue(uint256 _value) external {... */\n    tag_7:\n      callvalue\n      dup1\n      iszero\n      tag_37\n      jumpi\n      revert(0x00, 0x00)\n    tag_37:\n      pop\n      tag_38\n      0x04\n      dup1\n      calldatasize\n      sub\n      dup2\n      add\n      swap1\n      tag_39\n      swap2\n      swap1\n      tag_40\n      jump\t// in\n    tag_39:\n      tag_41\n      jump\t// in\n    tag_38:\n      stop\n        /* \"functions.sol\":538:614  function setMsg(string memory _msg) public {... */\n    tag_8:\n      callvalue\n      dup1\n      iszero\n      tag_42\n      jumpi\n      revert(0x00, 0x00)\n    tag_42:\n      pop\n      tag_43\n      0x04\n      dup1\n      calldatasize\n      sub\n      dup2\n      add\n      swap1\n      tag_44\n      swap2\n      swap1\n      tag_45\n      jump\t// in\n    tag_44:\n      tag_46\n      jump\t// in\n    tag_43:\n      stop\n        /* \"functions.sol\":175:196  string public message */\n    tag_9:\n      callvalue\n      dup1\n      iszero\n      tag_47\n      jumpi\n      revert(0x00, 0x00)\n    tag_47:\n      pop\n      tag_48\n      tag_49\n      jump\t// in\n    tag_48:\n      mload(0x40)\n      tag_50\n      swap2\n      swap1\n      tag_16\n      jump\t// in\n    tag_50:\n      mload(0x40)\n      dup1\n      swap2\n      sub\n      swap1\n      return\n        /* \"functions.sol\":1127:1166  function payEther() external payable {} */\n    tag_10:\n      tag_51\n      tag_52\n      jump\t// in\n    tag_51:\n      stop\n        /* \"functions.sol\":150:168  string public name */\n    tag_14:\n      0x01\n      dup1\n      sload\n      tag_53\n      swap1\n      tag_54\n      jump\t// in\n    tag_53:\n      dup1\n      0x1f\n      add\n      0x20\n      dup1\n      swap2\n      div\n      mul\n      0x20\n      add\n      mload(0x40)\n      swap1\n      dup2\n      add\n      0x40\n      mstore\n      dup1\n      swap3\n      swap2\n      swap1\n      dup2\n      dup2\n      mstore\n      0x20\n      add\n      dup3\n      dup1\n      sload\n      tag_55\n      swap1\n      tag_54\n      jump\t// in\n    tag_55:\n      dup1\n      iszero\n      tag_56\n      jumpi\n      dup1\n      0x1f\n      lt\n      tag_57\n      jumpi\n      0x0100\n      dup1\n      dup4\n      sload\n      div\n      mul\n      dup4\n      mstore\n      swap2\n      0x20\n      add\n      swap2\n      jump(tag_56)\n    tag_57:\n      dup3\n      add\n      swap2\n      swap1\n      0x00\n      mstore\n      keccak256(0x00, 0x20)\n      swap1\n    tag_58:\n      dup2\n      sload\n      dup2\n      mstore\n      swap1\n      0x01\n      add\n      swap1\n      0x20\n      add\n      dup1\n      dup4\n      gt\n      tag_58\n      jumpi\n      dup3\n      swap1\n      sub\n      0x1f\n      and\n      dup3\n      add\n      swap2\n    tag_56:\n      pop\n      pop\n      pop\n      pop\n      pop\n      dup2\n      jump\t// out\n        /* \"functions.sol\":966:1119  function multiply(uint256 x, uint256 y) external pure returns(uint256){... */\n    tag_21:\n        /* \"functions.sol\":1028:1035  uint256 */\n      0x00\n        /* \"functions.sol\":1047:1070  uint256 multipliedValue */\n      0x00\n        /* \"functions.sol\":1077:1078  y */\n      dup3\n        /* \"functions.sol\":1073:1074  x */\n      dup5\n        /* \"functions.sol\":1073:1078  x * y */\n      tag_60\n      swap2\n      swap1\n      tag_61\n      jump\t// in\n    tag_60:\n        /* \"functions.sol\":1047:1078  uint256 multipliedValue = x * y */\n      swap1\n      pop\n        /* \"functions.sol\":1096:1111  multipliedValue */\n      dup1\n        /* \"functions.sol\":1089:1111  return multipliedValue */\n      swap2\n      pop\n      pop\n        /* \"functions.sol\":966:1119  function multiply(uint256 x, uint256 y) external pure returns(uint256){... */\n      swap3\n      swap2\n      pop\n      pop\n      jump\t// out\n        /* \"functions.sol\":876:958  function getValue() external view returns(uint256) {... */\n    tag_26:\n        /* \"functions.sol\":918:925  uint256 */\n      0x00\n        /* \"functions.sol\":945:950  value */\n      sload(0x03)\n        /* \"functions.sol\":938:950  return value */\n      swap1\n      pop\n        /* \"functions.sol\":876:958  function getValue() external view returns(uint256) {... */\n      swap1\n      jump\t// out\n        /* \"functions.sol\":622:784  function setName(string memory _name, uint256 _number) external {... */\n    tag_32:\n        /* \"functions.sol\":704:709  _name */\n      dup2\n        /* \"functions.sol\":697:701  name */\n      0x01\n        /* \"functions.sol\":697:709  name = _name */\n      swap1\n      dup2\n      tag_64\n      swap2\n      swap1\n      tag_65\n      jump\t// in\n    tag_64:\n      pop\n        /* \"functions.sol\":720:736  halfNum(_number) */\n      tag_66\n        /* \"functions.sol\":728:735  _number */\n      dup2\n        /* \"functions.sol\":720:727  halfNum */\n      tag_67\n        /* \"functions.sol\":720:736  halfNum(_number) */\n      jump\t// in\n    tag_66:\n        /* \"functions.sol\":747:776  setMsg(\"Called the contract\") */\n      tag_68\n      mload(0x40)\n      dup1\n      0x40\n      add\n      0x40\n      mstore\n      dup1\n      0x13\n      dup2\n      mstore\n      0x20\n      add\n      0x43616c6c65642074686520636f6e747261637400000000000000000000000000\n      dup2\n      mstore\n      pop\n        /* \"functions.sol\":747:753  setMsg */\n      tag_46\n        /* \"functions.sol\":747:776  setMsg(\"Called the contract\") */\n      jump\t// in\n    tag_68:\n        /* \"functions.sol\":622:784  function setName(string memory _name, uint256 _number) external {... */\n      pop\n      pop\n      jump\t// out\n        /* \"functions.sol\":125:143  uint256 public num */\n    tag_35:\n      sload(0x00)\n      dup2\n      jump\t// out\n        /* \"functions.sol\":792:868  function setValue(uint256 _value) external {... */\n    tag_41:\n        /* \"functions.sol\":854:860  _value */\n      dup1\n        /* \"functions.sol\":846:851  value */\n      0x03\n        /* \"functions.sol\":846:860  value = _value */\n      dup2\n      swap1\n      sstore\n      pop\n        /* \"functions.sol\":792:868  function setValue(uint256 _value) external {... */\n      pop\n      jump\t// out\n        /* \"functions.sol\":538:614  function setMsg(string memory _msg) public {... */\n    tag_46:\n        /* \"functions.sol\":602:606  _msg */\n      dup1\n        /* \"functions.sol\":592:599  message */\n      0x02\n        /* \"functions.sol\":592:606  message = _msg */\n      swap1\n      dup2\n      tag_71\n      swap2\n      swap1\n      tag_65\n      jump\t// in\n    tag_71:\n      pop\n        /* \"functions.sol\":538:614  function setMsg(string memory _msg) public {... */\n      pop\n      jump\t// out\n        /* \"functions.sol\":175:196  string public message */\n    tag_49:\n      0x02\n      dup1\n      sload\n      tag_72\n      swap1\n      tag_54\n      jump\t// in\n    tag_72:\n      dup1\n      0x1f\n      add\n      0x20\n      dup1\n      swap2\n      div\n      mul\n      0x20\n      add\n      mload(0x40)\n      swap1\n      dup2\n      add\n      0x40\n      mstore\n      dup1\n      swap3\n      swap2\n      swap1\n      dup2\n      dup2\n      mstore\n      0x20\n      add\n      dup3\n      dup1\n      sload\n      tag_73\n      swap1\n      tag_54\n      jump\t// in\n    tag_73:\n      dup1\n      iszero\n      tag_74\n      jumpi\n      dup1\n      0x1f\n      lt\n      tag_75\n      jumpi\n      0x0100\n      dup1\n      dup4\n      sload\n      div\n      mul\n      dup4\n      mstore\n      swap2\n      0x20\n      add\n      swap2\n      jump(tag_74)\n    tag_75:\n      dup3\n      add\n      swap2\n      swap1\n      0x00\n      mstore\n      keccak256(0x00, 0x20)\n      swap1\n    tag_76:\n      dup2\n      sload\n      dup2\n      mstore\n      swap1\n      0x01\n      add\n      swap1\n      0x20\n      add\n      dup1\n      dup4\n      gt\n      tag_76\n      jumpi\n      dup3\n      swap1\n      sub\n      0x1f\n      and\n      dup3\n      add\n      swap2\n    tag_74:\n      pop\n      pop\n      pop\n      pop\n      pop\n      dup2\n      jump\t// out\n        /* \"functions.sol\":1127:1166  function payEther() external payable {} */\n    tag_52:\n      jump\t// out\n        /* \"functions.sol\":353:530  function halfNum(uint256 _number) internal { // When calling it this way, it's only accessible to the contract... */\n    tag_67:\n        /* \"functions.sol\":474:486  uint256 half */\n      0x00\n        /* \"functions.sol\":499:500  2 */\n      0x02\n        /* \"functions.sol\":489:496  _number */\n      dup3\n        /* \"functions.sol\":489:500  _number / 2 */\n      tag_79\n      swap2\n      swap1\n      tag_80\n      jump\t// in\n    tag_79:\n        /* \"functions.sol\":474:500  uint256 half = _number / 2 */\n      swap1\n      pop\n        /* \"functions.sol\":518:522  half */\n      dup1\n        /* \"functions.sol\":512:515  num */\n      0x00\n        /* \"functions.sol\":512:522  num = half */\n      dup2\n      swap1\n      sstore\n      pop\n        /* \"functions.sol\":396:530  { // When calling it this way, it's only accessible to the contract... */\n      pop\n        /* \"functions.sol\":353:530  function halfNum(uint256 _number) internal { // When calling it this way, it's only accessible to the contract... */\n      pop\n      jump\t// out\n        /* \"#utility.yul\":7:106   */\n    tag_81:\n        /* \"#utility.yul\":59:65   */\n      0x00\n        /* \"#utility.yul\":93:98   */\n      dup2\n        /* \"#utility.yul\":87:99   */\n      mload\n        /* \"#utility.yul\":77:99   */\n      swap1\n      pop\n        /* \"#utility.yul\":7:106   */\n      swap2\n      swap1\n      pop\n      jump\t// out\n        /* \"#utility.yul\":112:281   */\n    tag_82:\n        /* \"#utility.yul\":196:207   */\n      0x00\n        /* \"#utility.yul\":230:236   */\n      dup3\n        /* \"#utility.yul\":225:228   */\n      dup3\n        /* \"#utility.yul\":218:237   */\n      mstore\n        /* \"#utility.yul\":270:274   */\n      0x20\n        /* \"#utility.yul\":265:268   */\n      dup3\n        /* \"#utility.yul\":261:275   */\n      add\n        /* \"#utility.yul\":246:275   */\n      swap1\n      pop\n        /* \"#utility.yul\":112:281   */\n      swap3\n      swap2\n      pop\n      pop\n      jump\t// out\n        /* \"#utility.yul\":287:426   */\n    tag_83:\n        /* \"#utility.yul\":376:382   */\n      dup3\n        /* \"#utility.yul\":371:374   */\n      dup2\n        /* \"#utility.yul\":366:369   */\n      dup4\n        /* \"#utility.yul\":360:383   */\n      mcopy\n        /* \"#utility.yul\":417:418   */\n      0x00\n        /* \"#utility.yul\":408:414   */\n      dup4\n        /* \"#utility.yul\":403:406   */\n      dup4\n        /* \"#utility.yul\":399:415   */\n      add\n        /* \"#utility.yul\":392:419   */\n      mstore\n        /* \"#utility.yul\":287:426   */\n      pop\n      pop\n      pop\n      jump\t// out\n        /* \"#utility.yul\":432:534   */\n    tag_84:\n        /* \"#utility.yul\":473:479   */\n      0x00\n        /* \"#utility.yul\":524:526   */\n      0x1f\n        /* \"#utility.yul\":520:527   */\n      not\n        /* \"#utility.yul\":515:517   */\n      0x1f\n        /* \"#utility.yul\":508:513   */\n      dup4\n        /* \"#utility.yul\":504:518   */\n      add\n        /* \"#utility.yul\":500:528   */\n      and\n        /* \"#utility.yul\":490:528   */\n      swap1\n      pop\n        /* \"#utility.yul\":432:534   */\n      swap2\n      swap1\n      pop\n      jump\t// out\n        /* \"#utility.yul\":540:917   */\n    tag_85:\n        /* \"#utility.yul\":628:631   */\n      0x00\n        /* \"#utility.yul\":656:695   */\n      tag_126\n        /* \"#utility.yul\":689:694   */\n      dup3\n        /* \"#utility.yul\":656:695   */\n      tag_81\n      jump\t// in\n    tag_126:\n        /* \"#utility.yul\":711:782   */\n      tag_127\n        /* \"#utility.yul\":775:781   */\n      dup2\n        /* \"#utility.yul\":770:773   */\n      dup6\n        /* \"#utility.yul\":711:782   */\n      tag_82\n      jump\t// in\n    tag_127:\n        /* \"#utility.yul\":704:782   */\n      swap4\n      pop\n        /* \"#utility.yul\":791:856   */\n      tag_128\n        /* \"#utility.yul\":849:855   */\n      dup2\n        /* \"#utility.yul\":844:847   */\n      dup6\n        /* \"#utility.yul\":837:841   */\n      0x20\n        /* \"#utility.yul\":830:835   */\n      dup7\n        /* \"#utility.yul\":826:842   */\n      add\n        /* \"#utility.yul\":791:856   */\n      tag_83\n      jump\t// in\n    tag_128:\n        /* \"#utility.yul\":881:910   */\n      tag_129\n        /* \"#utility.yul\":903:909   */\n      dup2\n        /* \"#utility.yul\":881:910   */\n      tag_84\n      jump\t// in\n    tag_129:\n        /* \"#utility.yul\":876:879   */\n      dup5\n        /* \"#utility.yul\":872:911   */\n      add\n        /* \"#utility.yul\":865:911   */\n      swap2\n      pop\n        /* \"#utility.yul\":632:917   */\n      pop\n        /* \"#utility.yul\":540:917   */\n      swap3\n      swap2\n      pop\n      pop\n      jump\t// out\n        /* \"#utility.yul\":923:1236   */\n    tag_16:\n        /* \"#utility.yul\":1036:1040   */\n      0x00\n        /* \"#utility.yul\":1074:1076   */\n      0x20\n        /* \"#utility.yul\":1063:1072   */\n      dup3\n        /* \"#utility.yul\":1059:1077   */\n      add\n        /* \"#utility.yul\":1051:1077   */\n      swap1\n      pop\n        /* \"#utility.yul\":1123:1132   */\n      dup2\n        /* \"#utility.yul\":1117:1121   */\n      dup2\n        /* \"#utility.yul\":1113:1133   */\n      sub\n        /* \"#utility.yul\":1109:1110   */\n      0x00\n        /* \"#utility.yul\":1098:1107   */\n      dup4\n        /* \"#utility.yul\":1094:1111   */\n      add\n        /* \"#utility.yul\":1087:1134   */\n      mstore\n        /* \"#utility.yul\":1151:1229   */\n      tag_131\n        /* \"#utility.yul\":1224:1228   */\n      dup2\n        /* \"#utility.yul\":1215:1221   */\n      dup5\n        /* \"#utility.yul\":1151:1229   */\n      tag_85\n      jump\t// in\n    tag_131:\n        /* \"#utility.yul\":1143:1229   */\n      swap1\n      pop\n        /* \"#utility.yul\":923:1236   */\n      swap3\n      swap2\n      pop\n      pop\n      jump\t// out\n        /* \"#utility.yul\":1242:1317   */\n    tag_86:\n        /* \"#utility.yul\":1275:1281   */\n      0x00\n        /* \"#utility.yul\":1308:1310   */\n      0x40\n        /* \"#utility.yul\":1302:1311   */\n      mload\n        /* \"#utility.yul\":1292:1311   */\n      swap1\n      pop\n        /* \"#utility.yul\":1242:1317   */\n      swap1\n      jump\t// out\n        /* \"#utility.yul\":1323:1440   */\n    tag_87:\n        /* \"#utility.yul\":1432:1433   */\n      0x00\n        /* \"#utility.yul\":1429:1430   */\n      0x00\n        /* \"#utility.yul\":1422:1434   */\n      revert\n        /* \"#utility.yul\":1446:1563   */\n    tag_88:\n        /* \"#utility.yul\":1555:1556   */\n      0x00\n        /* \"#utility.yul\":1552:1553   */\n      0x00\n        /* \"#utility.yul\":1545:1557   */\n      revert\n        /* \"#utility.yul\":1569:1646   */\n    tag_89:\n        /* \"#utility.yul\":1606:1613   */\n      0x00\n        /* \"#utility.yul\":1635:1640   */\n      dup2\n        /* \"#utility.yul\":1624:1640   */\n      swap1\n      pop\n        /* \"#utility.yul\":1569:1646   */\n      swap2\n      swap1\n      pop\n      jump\t// out\n        /* \"#utility.yul\":1652:1774   */\n    tag_90:\n        /* \"#utility.yul\":1725:1749   */\n      tag_137\n        /* \"#utility.yul\":1743:1748   */\n      dup2\n        /* \"#utility.yul\":1725:1749   */\n      tag_89\n      jump\t// in\n    tag_137:\n        /* \"#utility.yul\":1718:1723   */\n      dup2\n        /* \"#utility.yul\":1715:1750   */\n      eq\n        /* \"#utility.yul\":1705:1768   */\n      tag_138\n      jumpi\n        /* \"#utility.yul\":1764:1765   */\n      0x00\n        /* \"#utility.yul\":1761:1762   */\n      0x00\n        /* \"#utility.yul\":1754:1766   */\n      revert\n        /* \"#utility.yul\":1705:1768   */\n    tag_138:\n        /* \"#utility.yul\":1652:1774   */\n      pop\n      jump\t// out\n        /* \"#utility.yul\":1780:1919   */\n    tag_91:\n        /* \"#utility.yul\":1826:1831   */\n      0x00\n        /* \"#utility.yul\":1864:1870   */\n      dup2\n        /* \"#utility.yul\":1851:1871   */\n      calldataload\n        /* \"#utility.yul\":1842:1871   */\n      swap1\n      pop\n        /* \"#utility.yul\":1880:1913   */\n      tag_140\n        /* \"#utility.yul\":1907:1912   */\n      dup2\n        /* \"#utility.yul\":1880:1913   */\n      tag_90\n      jump\t// in\n    tag_140:\n        /* \"#utility.yul\":1780:1919   */\n      swap3\n      swap2\n      pop\n      pop\n      jump\t// out\n        /* \"#utility.yul\":1925:2399   */\n    tag_20:\n        /* \"#utility.yul\":1993:1999   */\n      0x00\n        /* \"#utility.yul\":2001:2007   */\n      0x00\n        /* \"#utility.yul\":2050:2052   */\n      0x40\n        /* \"#utility.yul\":2038:2047   */\n      dup4\n        /* \"#utility.yul\":2029:2036   */\n      dup6\n        /* \"#utility.yul\":2025:2048   */\n      sub\n        /* \"#utility.yul\":2021:2053   */\n      slt\n        /* \"#utility.yul\":2018:2137   */\n      iszero\n      tag_142\n      jumpi\n        /* \"#utility.yul\":2056:2135   */\n      tag_143\n      tag_87\n      jump\t// in\n    tag_143:\n        /* \"#utility.yul\":2018:2137   */\n    tag_142:\n        /* \"#utility.yul\":2176:2177   */\n      0x00\n        /* \"#utility.yul\":2201:2254   */\n      tag_144\n        /* \"#utility.yul\":2246:2253   */\n      dup6\n        /* \"#utility.yul\":2237:2243   */\n      dup3\n        /* \"#utility.yul\":2226:2235   */\n      dup7\n        /* \"#utility.yul\":2222:2244   */\n      add\n        /* \"#utility.yul\":2201:2254   */\n      tag_91\n      jump\t// in\n    tag_144:\n        /* \"#utility.yul\":2191:2254   */\n      swap3\n      pop\n        /* \"#utility.yul\":2147:2264   */\n      pop\n        /* \"#utility.yul\":2303:2305   */\n      0x20\n        /* \"#utility.yul\":2329:2382   */\n      tag_145\n        /* \"#utility.yul\":2374:2381   */\n      dup6\n        /* \"#utility.yul\":2365:2371   */\n      dup3\n        /* \"#utility.yul\":2354:2363   */\n      dup7\n        /* \"#utility.yul\":2350:2372   */\n      add\n        /* \"#utility.yul\":2329:2382   */\n      tag_91\n      jump\t// in\n    tag_145:\n        /* \"#utility.yul\":2319:2382   */\n      swap2\n      pop\n        /* \"#utility.yul\":2274:2392   */\n      pop\n        /* \"#utility.yul\":1925:2399   */\n      swap3\n      pop\n      swap3\n      swap1\n      pop\n      jump\t// out\n        /* \"#utility.yul\":2405:2523   */\n    tag_92:\n        /* \"#utility.yul\":2492:2516   */\n      tag_147\n        /* \"#utility.yul\":2510:2515   */\n      dup2\n        /* \"#utility.yul\":2492:2516   */\n      tag_89\n      jump\t// in\n    tag_147:\n        /* \"#utility.yul\":2487:2490   */\n      dup3\n        /* \"#utility.yul\":2480:2517   */\n      mstore\n        /* \"#utility.yul\":2405:2523   */\n      pop\n      pop\n      jump\t// out\n        /* \"#utility.yul\":2529:2751   */\n    tag_23:\n        /* \"#utility.yul\":2622:2626   */\n      0x00\n        /* \"#utility.yul\":2660:2662   */\n      0x20\n        /* \"#utility.yul\":2649:2658   */\n      dup3\n        /* \"#utility.yul\":2645:2663   */\n      add\n        /* \"#utility.yul\":2637:2663   */\n      swap1\n      pop\n        /* \"#utility.yul\":2673:2744   */\n      tag_149\n        /* \"#utility.yul\":2741:2742   */\n      0x00\n        /* \"#utility.yul\":2730:2739   */\n      dup4\n        /* \"#utility.yul\":2726:2743   */\n      add\n        /* \"#utility.yul\":2717:2723   */\n      dup5\n        /* \"#utility.yul\":2673:2744   */\n      tag_92\n      jump\t// in\n    tag_149:\n        /* \"#utility.yul\":2529:2751   */\n      swap3\n      swap2\n      pop\n      pop\n      jump\t// out\n        /* \"#utility.yul\":2757:2874   */\n    tag_93:\n        /* \"#utility.yul\":2866:2867   */\n      0x00\n        /* \"#utility.yul\":2863:2864   */\n      0x00\n        /* \"#utility.yul\":2856:2868   */\n      revert\n        /* \"#utility.yul\":2880:2997   */\n    tag_94:\n        /* \"#utility.yul\":2989:2990   */\n      0x00\n        /* \"#utility.yul\":2986:2987   */\n      0x00\n        /* \"#utility.yul\":2979:2991   */\n      revert\n        /* \"#utility.yul\":3003:3183   */\n    tag_95:\n        /* \"#utility.yul\":3051:3128   */\n      0x4e487b7100000000000000000000000000000000000000000000000000000000\n        /* \"#utility.yul\":3048:3049   */\n      0x00\n        /* \"#utility.yul\":3041:3129   */\n      mstore\n        /* \"#utility.yul\":3148:3152   */\n      0x41\n        /* \"#utility.yul\":3145:3146   */\n      0x04\n        /* \"#utility.yul\":3138:3153   */\n      mstore\n        /* \"#utility.yul\":3172:3176   */\n      0x24\n        /* \"#utility.yul\":3169:3170   */\n      0x00\n        /* \"#utility.yul\":3162:3177   */\n      revert\n        /* \"#utility.yul\":3189:3470   */\n    tag_96:\n        /* \"#utility.yul\":3272:3299   */\n      tag_154\n        /* \"#utility.yul\":3294:3298   */\n      dup3\n        /* \"#utility.yul\":3272:3299   */\n      tag_84\n      jump\t// in\n    tag_154:\n        /* \"#utility.yul\":3264:3270   */\n      dup2\n        /* \"#utility.yul\":3260:3300   */\n      add\n        /* \"#utility.yul\":3402:3408   */\n      dup2\n        /* \"#utility.yul\":3390:3400   */\n      dup2\n        /* \"#utility.yul\":3387:3409   */\n      lt\n        /* \"#utility.yul\":3366:3384   */\n      0xffffffffffffffff\n        /* \"#utility.yul\":3354:3364   */\n      dup3\n        /* \"#utility.yul\":3351:3385   */\n      gt\n        /* \"#utility.yul\":3348:3410   */\n      or\n        /* \"#utility.yul\":3345:3433   */\n      iszero\n      tag_155\n      jumpi\n        /* \"#utility.yul\":3413:3431   */\n      tag_156\n      tag_95\n      jump\t// in\n    tag_156:\n        /* \"#utility.yul\":3345:3433   */\n    tag_155:\n        /* \"#utility.yul\":3453:3463   */\n      dup1\n        /* \"#utility.yul\":3449:3451   */\n      0x40\n        /* \"#utility.yul\":3442:3464   */\n      mstore\n        /* \"#utility.yul\":3232:3470   */\n      pop\n        /* \"#utility.yul\":3189:3470   */\n      pop\n      pop\n      jump\t// out\n        /* \"#utility.yul\":3476:3605   */\n    tag_97:\n        /* \"#utility.yul\":3510:3516   */\n      0x00\n        /* \"#utility.yul\":3537:3557   */\n      tag_158\n      tag_86\n      jump\t// in\n    tag_158:\n        /* \"#utility.yul\":3527:3557   */\n      swap1\n      pop\n        /* \"#utility.yul\":3566:3599   */\n      tag_159\n        /* \"#utility.yul\":3594:3598   */\n      dup3\n        /* \"#utility.yul\":3586:3592   */\n      dup3\n        /* \"#utility.yul\":3566:3599   */\n      tag_96\n      jump\t// in\n    tag_159:\n        /* \"#utility.yul\":3476:3605   */\n      swap2\n      swap1\n      pop\n      jump\t// out\n        /* \"#utility.yul\":3611:3919   */\n    tag_98:\n        /* \"#utility.yul\":3673:3677   */\n      0x00\n        /* \"#utility.yul\":3763:3781   */\n      0xffffffffffffffff\n        /* \"#utility.yul\":3755:3761   */\n      dup3\n        /* \"#utility.yul\":3752:3782   */\n      gt\n        /* \"#utility.yul\":3749:3805   */\n      iszero\n      tag_161\n      jumpi\n        /* \"#utility.yul\":3785:3803   */\n      tag_162\n      tag_95\n      jump\t// in\n    tag_162:\n        /* \"#utility.yul\":3749:3805   */\n    tag_161:\n        /* \"#utility.yul\":3823:3852   */\n      tag_163\n        /* \"#utility.yul\":3845:3851   */\n      dup3\n        /* \"#utility.yul\":3823:3852   */\n      tag_84\n      jump\t// in\n    tag_163:\n        /* \"#utility.yul\":3815:3852   */\n      swap1\n      pop\n        /* \"#utility.yul\":3907:3911   */\n      0x20\n        /* \"#utility.yul\":3901:3905   */\n      dup2\n        /* \"#utility.yul\":3897:3912   */\n      add\n        /* \"#utility.yul\":3889:3912   */\n      swap1\n      pop\n        /* \"#utility.yul\":3611:3919   */\n      swap2\n      swap1\n      pop\n      jump\t// out\n        /* \"#utility.yul\":3925:4073   */\n    tag_99:\n        /* \"#utility.yul\":4023:4029   */\n      dup3\n        /* \"#utility.yul\":4018:4021   */\n      dup2\n        /* \"#utility.yul\":4013:4016   */\n      dup4\n        /* \"#utility.yul\":4000:4030   */\n      calldatacopy\n        /* \"#utility.yul\":4064:4065   */\n      0x00\n        /* \"#utility.yul\":4055:4061   */\n      dup4\n        /* \"#utility.yul\":4050:4053   */\n      dup4\n        /* \"#utility.yul\":4046:4062   */\n      add\n        /* \"#utility.yul\":4039:4066   */\n      mstore\n        /* \"#utility.yul\":3925:4073   */\n      pop\n      pop\n      pop\n      jump\t// out\n        /* \"#utility.yul\":4079:4504   */\n    tag_100:\n        /* \"#utility.yul\":4157:4162   */\n      0x00\n        /* \"#utility.yul\":4182:4248   */\n      tag_166\n        /* \"#utility.yul\":4198:4247   */\n      tag_167\n        /* \"#utility.yul\":4240:4246   */\n      dup5\n        /* \"#utility.yul\":4198:4247   */\n      tag_98\n      jump\t// in\n    tag_167:\n        /* \"#utility.yul\":4182:4248   */\n      tag_97\n      jump\t// in\n    tag_166:\n        /* \"#utility.yul\":4173:4248   */\n      swap1\n      pop\n        /* \"#utility.yul\":4271:4277   */\n      dup3\n        /* \"#utility.yul\":4264:4269   */\n      dup2\n        /* \"#utility.yul\":4257:4278   */\n      mstore\n        /* \"#utility.yul\":4309:4313   */\n      0x20\n        /* \"#utility.yul\":4302:4307   */\n      dup2\n        /* \"#utility.yul\":4298:4314   */\n      add\n        /* \"#utility.yul\":4347:4350   */\n      dup5\n        /* \"#utility.yul\":4338:4344   */\n      dup5\n        /* \"#utility.yul\":4333:4336   */\n      dup5\n        /* \"#utility.yul\":4329:4345   */\n      add\n        /* \"#utility.yul\":4326:4351   */\n      gt\n        /* \"#utility.yul\":4323:4435   */\n      iszero\n      tag_168\n      jumpi\n        /* \"#utility.yul\":4354:4433   */\n      tag_169\n      tag_94\n      jump\t// in\n    tag_169:\n        /* \"#utility.yul\":4323:4435   */\n    tag_168:\n        /* \"#utility.yul\":4444:4498   */\n      tag_170\n        /* \"#utility.yul\":4491:4497   */\n      dup5\n        /* \"#utility.yul\":4486:4489   */\n      dup3\n        /* \"#utility.yul\":4481:4484   */\n      dup6\n        /* \"#utility.yul\":4444:4498   */\n      tag_99\n      jump\t// in\n    tag_170:\n        /* \"#utility.yul\":4163:4504   */\n      pop\n        /* \"#utility.yul\":4079:4504   */\n      swap4\n      swap3\n      pop\n      pop\n      pop\n      jump\t// out\n        /* \"#utility.yul\":4524:4864   */\n    tag_101:\n        /* \"#utility.yul\":4580:4585   */\n      0x00\n        /* \"#utility.yul\":4629:4632   */\n      dup3\n        /* \"#utility.yul\":4622:4626   */\n      0x1f\n        /* \"#utility.yul\":4614:4620   */\n      dup4\n        /* \"#utility.yul\":4610:4627   */\n      add\n        /* \"#utility.yul\":4606:4633   */\n      slt\n        /* \"#utility.yul\":4596:4718   */\n      tag_172\n      jumpi\n        /* \"#utility.yul\":4637:4716   */\n      tag_173\n      tag_93\n      jump\t// in\n    tag_173:\n        /* \"#utility.yul\":4596:4718   */\n    tag_172:\n        /* \"#utility.yul\":4754:4760   */\n      dup2\n        /* \"#utility.yul\":4741:4761   */\n      calldataload\n        /* \"#utility.yul\":4779:4858   */\n      tag_174\n        /* \"#utility.yul\":4854:4857   */\n      dup5\n        /* \"#utility.yul\":4846:4852   */\n      dup3\n        /* \"#utility.yul\":4839:4843   */\n      0x20\n        /* \"#utility.yul\":4831:4837   */\n      dup7\n        /* \"#utility.yul\":4827:4844   */\n      add\n        /* \"#utility.yul\":4779:4858   */\n      tag_100\n      jump\t// in\n    tag_174:\n        /* \"#utility.yul\":4770:4858   */\n      swap2\n      pop\n        /* \"#utility.yul\":4586:4864   */\n      pop\n        /* \"#utility.yul\":4524:4864   */\n      swap3\n      swap2\n      pop\n      pop\n      jump\t// out\n        /* \"#utility.yul\":4870:5524   */\n    tag_31:\n        /* \"#utility.yul\":4948:4954   */\n      0x00\n        /* \"#utility.yul\":4956:4962   */\n      0x00\n        /* \"#utility.yul\":5005:5007   */\n      0x40\n        /* \"#utility.yul\":4993:5002   */\n      dup4\n        /* \"#utility.yul\":4984:4991   */\n      dup6\n        /* \"#utility.yul\":4980:5003   */\n      sub\n        /* \"#utility.yul\":4976:5008   */\n      slt\n        /* \"#utility.yul\":4973:5092   */\n      iszero\n      tag_176\n      jumpi\n        /* \"#utility.yul\":5011:5090   */\n      tag_177\n      tag_87\n      jump\t// in\n    tag_177:\n        /* \"#utility.yul\":4973:5092   */\n    tag_176:\n        /* \"#utility.yul\":5159:5160   */\n      0x00\n        /* \"#utility.yul\":5148:5157   */\n      dup4\n        /* \"#utility.yul\":5144:5161   */\n      add\n        /* \"#utility.yul\":5131:5162   */\n      calldataload\n        /* \"#utility.yul\":5189:5207   */\n      0xffffffffffffffff\n        /* \"#utility.yul\":5181:5187   */\n      dup2\n        /* \"#utility.yul\":5178:5208   */\n      gt\n        /* \"#utility.yul\":5175:5292   */\n      iszero\n      tag_178\n      jumpi\n        /* \"#utility.yul\":5211:5290   */\n      tag_179\n      tag_88\n      jump\t// in\n    tag_179:\n        /* \"#utility.yul\":5175:5292   */\n    tag_178:\n        /* \"#utility.yul\":5316:5379   */\n      tag_180\n        /* \"#utility.yul\":5371:5378   */\n      dup6\n        /* \"#utility.yul\":5362:5368   */\n      dup3\n        /* \"#utility.yul\":5351:5360   */\n      dup7\n        /* \"#utility.yul\":5347:5369   */\n      add\n        /* \"#utility.yul\":5316:5379   */\n      tag_101\n      jump\t// in\n    tag_180:\n        /* \"#utility.yul\":5306:5379   */\n      swap3\n      pop\n        /* \"#utility.yul\":5102:5389   */\n      pop\n        /* \"#utility.yul\":5428:5430   */\n      0x20\n        /* \"#utility.yul\":5454:5507   */\n      tag_181\n        /* \"#utility.yul\":5499:5506   */\n      dup6\n        /* \"#utility.yul\":5490:5496   */\n      dup3\n        /* \"#utility.yul\":5479:5488   */\n      dup7\n        /* \"#utility.yul\":5475:5497   */\n      add\n        /* \"#utility.yul\":5454:5507   */\n      tag_91\n      jump\t// in\n    tag_181:\n        /* \"#utility.yul\":5444:5507   */\n      swap2\n      pop\n        /* \"#utility.yul\":5399:5517   */\n      pop\n        /* \"#utility.yul\":4870:5524   */\n      swap3\n      pop\n      swap3\n      swap1\n      pop\n      jump\t// out\n        /* \"#utility.yul\":5530:5859   */\n    tag_40:\n        /* \"#utility.yul\":5589:5595   */\n      0x00\n        /* \"#utility.yul\":5638:5640   */\n      0x20\n        /* \"#utility.yul\":5626:5635   */\n      dup3\n        /* \"#utility.yul\":5617:5624   */\n      dup5\n        /* \"#utility.yul\":5613:5636   */\n      sub\n        /* \"#utility.yul\":5609:5641   */\n      slt\n        /* \"#utility.yul\":5606:5725   */\n      iszero\n      tag_183\n      jumpi\n        /* \"#utility.yul\":5644:5723   */\n      tag_184\n      tag_87\n      jump\t// in\n    tag_184:\n        /* \"#utility.yul\":5606:5725   */\n    tag_183:\n        /* \"#utility.yul\":5764:5765   */\n      0x00\n        /* \"#utility.yul\":5789:5842   */\n      tag_185\n        /* \"#utility.yul\":5834:5841   */\n      dup5\n        /* \"#utility.yul\":5825:5831   */\n      dup3\n        /* \"#utility.yul\":5814:5823   */\n      dup6\n        /* \"#utility.yul\":5810:5832   */\n      add\n        /* \"#utility.yul\":5789:5842   */\n      tag_91\n      jump\t// in\n    tag_185:\n        /* \"#utility.yul\":5779:5842   */\n      swap2\n      pop\n        /* \"#utility.yul\":5735:5852   */\n      pop\n        /* \"#utility.yul\":5530:5859   */\n      swap3\n      swap2\n      pop\n      pop\n      jump\t// out\n        /* \"#utility.yul\":5865:6374   */\n    tag_45:\n        /* \"#utility.yul\":5934:5940   */\n      0x00\n        /* \"#utility.yul\":5983:5985   */\n      0x20\n        /* \"#utility.yul\":5971:5980   */\n      dup3\n        /* \"#utility.yul\":5962:5969   */\n      dup5\n        /* \"#utility.yul\":5958:5981   */\n      sub\n        /* \"#utility.yul\":5954:5986   */\n      slt\n        /* \"#utility.yul\":5951:6070   */\n      iszero\n      tag_187\n      jumpi\n        /* \"#utility.yul\":5989:6068   */\n      tag_188\n      tag_87\n      jump\t// in\n    tag_188:\n        /* \"#utility.yul\":5951:6070   */\n    tag_187:\n        /* \"#utility.yul\":6137:6138   */\n      0x00\n        /* \"#utility.yul\":6126:6135   */\n      dup3\n        /* \"#utility.yul\":6122:6139   */\n      add\n        /* \"#utility.yul\":6109:6140   */\n      calldataload\n        /* \"#utility.yul\":6167:6185   */\n      0xffffffffffffffff\n        /* \"#utility.yul\":6159:6165   */\n      dup2\n        /* \"#utility.yul\":6156:6186   */\n      gt\n        /* \"#utility.yul\":6153:6270   */\n      iszero\n      tag_189\n      jumpi\n        /* \"#utility.yul\":6189:6268   */\n      tag_190\n      tag_88\n      jump\t// in\n    tag_190:\n        /* \"#utility.yul\":6153:6270   */\n    tag_189:\n        /* \"#utility.yul\":6294:6357   */\n      tag_191\n        /* \"#utility.yul\":6349:6356   */\n      dup5\n        /* \"#utility.yul\":6340:6346   */\n      dup3\n        /* \"#utility.yul\":6329:6338   */\n      dup6\n        /* \"#utility.yul\":6325:6347   */\n      add\n        /* \"#utility.yul\":6294:6357   */\n      tag_101\n      jump\t// in\n    tag_191:\n        /* \"#utility.yul\":6284:6357   */\n      swap2\n      pop\n        /* \"#utility.yul\":6080:6367   */\n      pop\n        /* \"#utility.yul\":5865:6374   */\n      swap3\n      swap2\n      pop\n      pop\n      jump\t// out\n        /* \"#utility.yul\":6380:6560   */\n    tag_102:\n        /* \"#utility.yul\":6428:6505   */\n      0x4e487b7100000000000000000000000000000000000000000000000000000000\n        /* \"#utility.yul\":6425:6426   */\n      0x00\n        /* \"#utility.yul\":6418:6506   */\n      mstore\n        /* \"#utility.yul\":6525:6529   */\n      0x22\n        /* \"#utility.yul\":6522:6523   */\n      0x04\n        /* \"#utility.yul\":6515:6530   */\n      mstore\n        /* \"#utility.yul\":6549:6553   */\n      0x24\n        /* \"#utility.yul\":6546:6547   */\n      0x00\n        /* \"#utility.yul\":6539:6554   */\n      revert\n        /* \"#utility.yul\":6566:6886   */\n    tag_54:\n        /* \"#utility.yul\":6610:6616   */\n      0x00\n        /* \"#utility.yul\":6647:6648   */\n      0x02\n        /* \"#utility.yul\":6641:6645   */\n      dup3\n        /* \"#utility.yul\":6637:6649   */\n      div\n        /* \"#utility.yul\":6627:6649   */\n      swap1\n      pop\n        /* \"#utility.yul\":6694:6695   */\n      0x01\n        /* \"#utility.yul\":6688:6692   */\n      dup3\n        /* \"#utility.yul\":6684:6696   */\n      and\n        /* \"#utility.yul\":6715:6733   */\n      dup1\n        /* \"#utility.yul\":6705:6786   */\n      tag_194\n      jumpi\n        /* \"#utility.yul\":6771:6775   */\n      0x7f\n        /* \"#utility.yul\":6763:6769   */\n      dup3\n        /* \"#utility.yul\":6759:6776   */\n      and\n        /* \"#utility.yul\":6749:6776   */\n      swap2\n      pop\n        /* \"#utility.yul\":6705:6786   */\n    tag_194:\n        /* \"#utility.yul\":6833:6835   */\n      0x20\n        /* \"#utility.yul\":6825:6831   */\n      dup3\n        /* \"#utility.yul\":6822:6836   */\n      lt\n        /* \"#utility.yul\":6802:6820   */\n      dup2\n        /* \"#utility.yul\":6799:6837   */\n      sub\n        /* \"#utility.yul\":6796:6880   */\n      tag_195\n      jumpi\n        /* \"#utility.yul\":6852:6870   */\n      tag_196\n      tag_102\n      jump\t// in\n    tag_196:\n        /* \"#utility.yul\":6796:6880   */\n    tag_195:\n        /* \"#utility.yul\":6617:6886   */\n      pop\n        /* \"#utility.yul\":6566:6886   */\n      swap2\n      swap1\n      pop\n      jump\t// out\n        /* \"#utility.yul\":6892:7072   */\n    tag_103:\n        /* \"#utility.yul\":6940:7017   */\n      0x4e487b7100000000000000000000000000000000000000000000000000000000\n        /* \"#utility.yul\":6937:6938   */\n      0x00\n        /* \"#utility.yul\":6930:7018   */\n      mstore\n        /* \"#utility.yul\":7037:7041   */\n      0x11\n        /* \"#utility.yul\":7034:7035   */\n      0x04\n        /* \"#utility.yul\":7027:7042   */\n      mstore\n        /* \"#utility.yul\":7061:7065   */\n      0x24\n        /* \"#utility.yul\":7058:7059   */\n      0x00\n        /* \"#utility.yul\":7051:7066   */\n      revert\n        /* \"#utility.yul\":7078:7488   */\n    tag_61:\n        /* \"#utility.yul\":7118:7125   */\n      0x00\n        /* \"#utility.yul\":7141:7161   */\n      tag_199\n        /* \"#utility.yul\":7159:7160   */\n      dup3\n        /* \"#utility.yul\":7141:7161   */\n      tag_89\n      jump\t// in\n    tag_199:\n        /* \"#utility.yul\":7136:7161   */\n      swap2\n      pop\n        /* \"#utility.yul\":7175:7195   */\n      tag_200\n        /* \"#utility.yul\":7193:7194   */\n      dup4\n        /* \"#utility.yul\":7175:7195   */\n      tag_89\n      jump\t// in\n    tag_200:\n        /* \"#utility.yul\":7170:7195   */\n      swap3\n      pop\n        /* \"#utility.yul\":7230:7231   */\n      dup3\n        /* \"#utility.yul\":7227:7228   */\n      dup3\n        /* \"#utility.yul\":7223:7232   */\n      mul\n        /* \"#utility.yul\":7252:7282   */\n      tag_201\n        /* \"#utility.yul\":7270:7281   */\n      dup2\n        /* \"#utility.yul\":7252:7282   */\n      tag_89\n      jump\t// in\n    tag_201:\n        /* \"#utility.yul\":7241:7282   */\n      swap2\n      pop\n        /* \"#utility.yul\":7431:7432   */\n      dup3\n        /* \"#utility.yul\":7422:7429   */\n      dup3\n        /* \"#utility.yul\":7418:7433   */\n      div\n        /* \"#utility.yul\":7415:7416   */\n      dup5\n        /* \"#utility.yul\":7412:7434   */\n      eq\n        /* \"#utility.yul\":7392:7393   */\n      dup4\n        /* \"#utility.yul\":7385:7394   */\n      iszero\n        /* \"#utility.yul\":7365:7448   */\n      or\n        /* \"#utility.yul\":7342:7481   */\n      tag_202\n      jumpi\n        /* \"#utility.yul\":7461:7479   */\n      tag_203\n      tag_103\n      jump\t// in\n    tag_203:\n        /* \"#utility.yul\":7342:7481   */\n    tag_202:\n        /* \"#utility.yul\":7126:7488   */\n      pop\n        /* \"#utility.yul\":7078:7488   */\n      swap3\n      swap2\n      pop\n      pop\n      jump\t// out\n        /* \"#utility.yul\":7494:7635   */\n    tag_104:\n        /* \"#utility.yul\":7543:7547   */\n      0x00\n        /* \"#utility.yul\":7566:7569   */\n      dup2\n        /* \"#utility.yul\":7558:7569   */\n      swap1\n      pop\n        /* \"#utility.yul\":7589:7592   */\n      dup2\n        /* \"#utility.yul\":7586:7587   */\n      0x00\n        /* \"#utility.yul\":7579:7593   */\n      mstore\n        /* \"#utility.yul\":7623:7627   */\n      0x20\n        /* \"#utility.yul\":7620:7621   */\n      0x00\n        /* \"#utility.yul\":7610:7628   */\n      keccak256\n        /* \"#utility.yul\":7602:7628   */\n      swap1\n      pop\n        /* \"#utility.yul\":7494:7635   */\n      swap2\n      swap1\n      pop\n      jump\t// out\n        /* \"#utility.yul\":7641:7734   */\n    tag_105:\n        /* \"#utility.yul\":7678:7684   */\n      0x00\n        /* \"#utility.yul\":7725:7727   */\n      0x20\n        /* \"#utility.yul\":7720:7722   */\n      0x1f\n        /* \"#utility.yul\":7713:7718   */\n      dup4\n        /* \"#utility.yul\":7709:7723   */\n      add\n        /* \"#utility.yul\":7705:7728   */\n      div\n        /* \"#utility.yul\":7695:7728   */\n      swap1\n      pop\n        /* \"#utility.yul\":7641:7734   */\n      swap2\n      swap1\n      pop\n      jump\t// out\n        /* \"#utility.yul\":7740:7847   */\n    tag_106:\n        /* \"#utility.yul\":7784:7792   */\n      0x00\n        /* \"#utility.yul\":7834:7839   */\n      dup3\n        /* \"#utility.yul\":7828:7832   */\n      dup3\n        /* \"#utility.yul\":7824:7840   */\n      shl\n        /* \"#utility.yul\":7803:7840   */\n      swap1\n      pop\n        /* \"#utility.yul\":7740:7847   */\n      swap3\n      swap2\n      pop\n      pop\n      jump\t// out\n        /* \"#utility.yul\":7853:8246   */\n    tag_107:\n        /* \"#utility.yul\":7922:7928   */\n      0x00\n        /* \"#utility.yul\":7972:7973   */\n      0x08\n        /* \"#utility.yul\":7960:7970   */\n      dup4\n        /* \"#utility.yul\":7956:7974   */\n      mul\n        /* \"#utility.yul\":7995:8092   */\n      tag_208\n        /* \"#utility.yul\":8025:8091   */\n      0xffffffffffffffffffffffffffffffffffffffffffffffffffffffffffffffff\n        /* \"#utility.yul\":8014:8023   */\n      dup3\n        /* \"#utility.yul\":7995:8092   */\n      tag_106\n      jump\t// in\n    tag_208:\n        /* \"#utility.yul\":8113:8152   */\n      tag_209\n        /* \"#utility.yul\":8143:8151   */\n      dup7\n        /* \"#utility.yul\":8132:8141   */\n      dup4\n        /* \"#utility.yul\":8113:8152   */\n      tag_106\n      jump\t// in\n    tag_209:\n        /* \"#utility.yul\":8101:8152   */\n      swap6\n      pop\n        /* \"#utility.yul\":8185:8189   */\n      dup1\n        /* \"#utility.yul\":8181:8190   */\n      not\n        /* \"#utility.yul\":8174:8179   */\n      dup5\n        /* \"#utility.yul\":8170:8191   */\n      and\n        /* \"#utility.yul\":8161:8191   */\n      swap4\n      pop\n        /* \"#utility.yul\":8234:8238   */\n      dup1\n        /* \"#utility.yul\":8224:8232   */\n      dup7\n        /* \"#utility.yul\":8220:8239   */\n      and\n        /* \"#utility.yul\":8213:8218   */\n      dup5\n        /* \"#utility.yul\":8210:8240   */\n      or\n        /* \"#utility.yul\":8200:8240   */\n      swap3\n      pop\n        /* \"#utility.yul\":7929:8246   */\n      pop\n      pop\n        /* \"#utility.yul\":7853:8246   */\n      swap4\n      swap3\n      pop\n      pop\n      pop\n      jump\t// out\n        /* \"#utility.yul\":8252:8312   */\n    tag_108:\n        /* \"#utility.yul\":8280:8283   */\n      0x00\n        /* \"#utility.yul\":8301:8306   */\n      dup2\n        /* \"#utility.yul\":8294:8306   */\n      swap1\n      pop\n        /* \"#utility.yul\":8252:8312   */\n      swap2\n      swap1\n      pop\n      jump\t// out\n        /* \"#utility.yul\":8318:8460   */\n    tag_109:\n        /* \"#utility.yul\":8368:8377   */\n      0x00\n        /* \"#utility.yul\":8401:8454   */\n      tag_212\n        /* \"#utility.yul\":8419:8453   */\n      tag_213\n        /* \"#utility.yul\":8428:8452   */\n      tag_214\n        /* \"#utility.yul\":8446:8451   */\n      dup5\n        /* \"#utility.yul\":8428:8452   */\n      tag_89\n      jump\t// in\n    tag_214:\n        /* \"#utility.yul\":8419:8453   */\n      tag_108\n      jump\t// in\n    tag_213:\n        /* \"#utility.yul\":8401:8454   */\n      tag_89\n      jump\t// in\n    tag_212:\n        /* \"#utility.yul\":8388:8454   */\n      swap1\n      pop\n        /* \"#utility.yul\":8318:8460   */\n      swap2\n      swap1\n      pop\n      jump\t// out\n        /* \"#utility.yul\":8466:8541   */\n    tag_110:\n        /* \"#utility.yul\":8509:8512   */\n      0x00\n        /* \"#utility.yul\":8530:8535   */\n      dup2\n        /* \"#utility.yul\":8523:8535   */\n      swap1\n      pop\n        /* \"#utility.yul\":8466:8541   */\n      swap2\n      swap1\n      pop\n      jump\t// out\n        /* \"#utility.yul\":8547:8816   */\n    tag_111:\n        /* \"#utility.yul\":8657:8696   */\n      tag_217\n        /* \"#utility.yul\":8688:8695   */\n      dup4\n        /* \"#utility.yul\":8657:8696   */\n      tag_109\n      jump\t// in\n    tag_217:\n        /* \"#utility.yul\":8718:8809   */\n      tag_218\n        /* \"#utility.yul\":8767:8808   */\n      tag_219\n        /* \"#utility.yul\":8791:8807   */\n      dup3\n        /* \"#utility.yul\":8767:8808   */\n      tag_110\n      jump\t// in\n    tag_219:\n        /* \"#utility.yul\":8759:8765   */\n      dup5\n        /* \"#utility.yul\":8752:8756   */\n      dup5\n        /* \"#utility.yul\":8746:8757   */\n      sload\n        /* \"#utility.yul\":8718:8809   */\n      tag_107\n      jump\t// in\n    tag_218:\n        /* \"#utility.yul\":8712:8716   */\n      dup3\n        /* \"#utility.yul\":8705:8810   */\n      sstore\n        /* \"#utility.yul\":8623:8816   */\n      pop\n        /* \"#utility.yul\":8547:8816   */\n      pop\n      pop\n      pop\n      jump\t// out\n        /* \"#utility.yul\":8822:8895   */\n    tag_112:\n        /* \"#utility.yul\":8867:8870   */\n      0x00\n        /* \"#utility.yul\":8888:8889   */\n      0x00\n        /* \"#utility.yul\":8881:8889   */\n      swap1\n      pop\n        /* \"#utility.yul\":8822:8895   */\n      swap1\n      jump\t// out\n        /* \"#utility.yul\":8901:9090   */\n    tag_113:\n        /* \"#utility.yul\":8978:9010   */\n      tag_222\n      tag_112\n      jump\t// in\n    tag_222:\n        /* \"#utility.yul\":9019:9084   */\n      tag_223\n        /* \"#utility.yul\":9077:9083   */\n      dup2\n        /* \"#utility.yul\":9069:9075   */\n      dup5\n        /* \"#utility.yul\":9063:9067   */\n      dup5\n        /* \"#utility.yul\":9019:9084   */\n      tag_111\n      jump\t// in\n    tag_223:\n        /* \"#utility.yul\":8954:9090   */\n      pop\n        /* \"#utility.yul\":8901:9090   */\n      pop\n      pop\n      jump\t// out\n        /* \"#utility.yul\":9096:9282   */\n    tag_114:\n        /* \"#utility.yul\":9156:9276   */\n    tag_225:\n        /* \"#utility.yul\":9173:9176   */\n      dup2\n        /* \"#utility.yul\":9166:9171   */\n      dup2\n        /* \"#utility.yul\":9163:9177   */\n      lt\n        /* \"#utility.yul\":9156:9276   */\n      iszero\n      tag_227\n      jumpi\n        /* \"#utility.yul\":9227:9266   */\n      tag_228\n        /* \"#utility.yul\":9264:9265   */\n      0x00\n        /* \"#utility.yul\":9257:9262   */\n      dup3\n        /* \"#utility.yul\":9227:9266   */\n      tag_113\n      jump\t// in\n    tag_228:\n        /* \"#utility.yul\":9200:9201   */\n      0x01\n        /* \"#utility.yul\":9193:9198   */\n      dup2\n        /* \"#utility.yul\":9189:9202   */\n      add\n        /* \"#utility.yul\":9180:9202   */\n      swap1\n      pop\n        /* \"#utility.yul\":9156:9276   */\n      jump(tag_225)\n    tag_227:\n        /* \"#utility.yul\":9096:9282   */\n      pop\n      pop\n      jump\t// out\n        /* \"#utility.yul\":9288:9831   */\n    tag_115:\n        /* \"#utility.yul\":9389:9391   */\n      0x1f\n        /* \"#utility.yul\":9384:9387   */\n      dup3\n        /* \"#utility.yul\":9381:9392   */\n      gt\n        /* \"#utility.yul\":9378:9824   */\n      iszero\n      tag_230\n      jumpi\n        /* \"#utility.yul\":9423:9461   */\n      tag_231\n        /* \"#utility.yul\":9455:9460   */\n      dup2\n        /* \"#utility.yul\":9423:9461   */\n      tag_104\n      jump\t// in\n    tag_231:\n        /* \"#utility.yul\":9507:9536   */\n      tag_232\n        /* \"#utility.yul\":9525:9535   */\n      dup5\n        /* \"#utility.yul\":9507:9536   */\n      tag_105\n      jump\t// in\n    tag_232:\n        /* \"#utility.yul\":9497:9505   */\n      dup2\n        /* \"#utility.yul\":9493:9537   */\n      add\n        /* \"#utility.yul\":9690:9692   */\n      0x20\n        /* \"#utility.yul\":9678:9688   */\n      dup6\n        /* \"#utility.yul\":9675:9693   */\n      lt\n        /* \"#utility.yul\":9672:9721   */\n      iszero\n      tag_233\n      jumpi\n        /* \"#utility.yul\":9711:9719   */\n      dup2\n        /* \"#utility.yul\":9696:9719   */\n      swap1\n      pop\n        /* \"#utility.yul\":9672:9721   */\n    tag_233:\n        /* \"#utility.yul\":9734:9814   */\n      tag_234\n        /* \"#utility.yul\":9790:9812   */\n      tag_235\n        /* \"#utility.yul\":9808:9811   */\n      dup6\n        /* \"#utility.yul\":9790:9812   */\n      tag_105\n      jump\t// in\n    tag_235:\n        /* \"#utility.yul\":9780:9788   */\n      dup4\n        /* \"#utility.yul\":9776:9813   */\n      add\n        /* \"#utility.yul\":9763:9774   */\n      dup3\n        /* \"#utility.yul\":9734:9814   */\n      tag_114\n      jump\t// in\n    tag_234:\n        /* \"#utility.yul\":9393:9824   */\n      pop\n      pop\n        /* \"#utility.yul\":9378:9824   */\n    tag_230:\n        /* \"#utility.yul\":9288:9831   */\n      pop\n      pop\n      pop\n      jump\t// out\n        /* \"#utility.yul\":9837:9954   */\n    tag_116:\n        /* \"#utility.yul\":9891:9899   */\n      0x00\n        /* \"#utility.yul\":9941:9946   */\n      dup3\n        /* \"#utility.yul\":9935:9939   */\n      dup3\n        /* \"#utility.yul\":9931:9947   */\n      shr\n        /* \"#utility.yul\":9910:9947   */\n      swap1\n      pop\n        /* \"#utility.yul\":9837:9954   */\n      swap3\n      swap2\n      pop\n      pop\n      jump\t// out\n        /* \"#utility.yul\":9960:10129   */\n    tag_117:\n        /* \"#utility.yul\":10004:10010   */\n      0x00\n        /* \"#utility.yul\":10037:10088   */\n      tag_238\n        /* \"#utility.yul\":10085:10086   */\n      0x00\n        /* \"#utility.yul\":10081:10087   */\n      not\n        /* \"#utility.yul\":10073:10078   */\n      dup5\n        /* \"#utility.yul\":10070:10071   */\n      0x08\n        /* \"#utility.yul\":10066:10079   */\n      mul\n        /* \"#utility.yul\":10037:10088   */\n      tag_116\n      jump\t// in\n    tag_238:\n        /* \"#utility.yul\":10033:10089   */\n      not\n        /* \"#utility.yul\":10118:10122   */\n      dup1\n        /* \"#utility.yul\":10112:10116   */\n      dup4\n        /* \"#utility.yul\":10108:10123   */\n      and\n        /* \"#utility.yul\":10098:10123   */\n      swap2\n      pop\n        /* \"#utility.yul\":10011:10129   */\n      pop\n        /* \"#utility.yul\":9960:10129   */\n      swap3\n      swap2\n      pop\n      pop\n      jump\t// out\n        /* \"#utility.yul\":10134:10429   */\n    tag_118:\n        /* \"#utility.yul\":10210:10214   */\n      0x00\n        /* \"#utility.yul\":10356:10385   */\n      tag_240\n        /* \"#utility.yul\":10381:10384   */\n      dup4\n        /* \"#utility.yul\":10375:10379   */\n      dup4\n        /* \"#utility.yul\":10356:10385   */\n      tag_117\n      jump\t// in\n    tag_240:\n        /* \"#utility.yul\":10348:10385   */\n      swap2\n      pop\n        /* \"#utility.yul\":10418:10421   */\n      dup3\n        /* \"#utility.yul\":10415:10416   */\n      0x02\n        /* \"#utility.yul\":10411:10422   */\n      mul\n        /* \"#utility.yul\":10405:10409   */\n      dup3\n        /* \"#utility.yul\":10402:10423   */\n      or\n        /* \"#utility.yul\":10394:10423   */\n      swap1\n      pop\n        /* \"#utility.yul\":10134:10429   */\n      swap3\n      swap2\n      pop\n      pop\n      jump\t// out\n        /* \"#utility.yul\":10434:11829   */\n    tag_65:\n        /* \"#utility.yul\":10551:10588   */\n      tag_242\n        /* \"#utility.yul\":10584:10587   */\n      dup3\n        /* \"#utility.yul\":10551:10588   */\n      tag_81\n      jump\t// in\n    tag_242:\n        /* \"#utility.yul\":10653:10671   */\n      0xffffffffffffffff\n        /* \"#utility.yul\":10645:10651   */\n      dup2\n        /* \"#utility.yul\":10642:10672   */\n      gt\n        /* \"#utility.yul\":10639:10695   */\n      iszero\n      tag_243\n      jumpi\n        /* \"#utility.yul\":10675:10693   */\n      tag_244\n      tag_95\n      jump\t// in\n    tag_244:\n        /* \"#utility.yul\":10639:10695   */\n    tag_243:\n        /* \"#utility.yul\":10719:10757   */\n      tag_245\n        /* \"#utility.yul\":10751:10755   */\n      dup3\n        /* \"#utility.yul\":10745:10756   */\n      sload\n        /* \"#utility.yul\":10719:10757   */\n      tag_54\n      jump\t// in\n    tag_245:\n        /* \"#utility.yul\":10804:10871   */\n      tag_246\n        /* \"#utility.yul\":10864:10870   */\n      dup3\n        /* \"#utility.yul\":10856:10862   */\n      dup3\n        /* \"#utility.yul\":10850:10854   */\n      dup6\n        /* \"#utility.yul\":10804:10871   */\n      tag_115\n      jump\t// in\n    tag_246:\n        /* \"#utility.yul\":10898:10899   */\n      0x00\n        /* \"#utility.yul\":10922:10926   */\n      0x20\n        /* \"#utility.yul\":10909:10926   */\n      swap1\n      pop\n        /* \"#utility.yul\":10954:10956   */\n      0x1f\n        /* \"#utility.yul\":10946:10952   */\n      dup4\n        /* \"#utility.yul\":10943:10957   */\n      gt\n        /* \"#utility.yul\":10971:10972   */\n      0x01\n        /* \"#utility.yul\":10966:11584   */\n      dup2\n      eq\n      tag_248\n      jumpi\n        /* \"#utility.yul\":11628:11629   */\n      0x00\n        /* \"#utility.yul\":11645:11651   */\n      dup5\n        /* \"#utility.yul\":11642:11719   */\n      iszero\n      tag_249\n      jumpi\n        /* \"#utility.yul\":11694:11703   */\n      dup3\n        /* \"#utility.yul\":11689:11692   */\n      dup8\n        /* \"#utility.yul\":11685:11704   */\n      add\n        /* \"#utility.yul\":11679:11705   */\n      mload\n        /* \"#utility.yul\":11670:11705   */\n      swap1\n      pop\n        /* \"#utility.yul\":11642:11719   */\n    tag_249:\n        /* \"#utility.yul\":11745:11812   */\n      tag_250\n        /* \"#utility.yul\":11805:11811   */\n      dup6\n        /* \"#utility.yul\":11798:11803   */\n      dup3\n        /* \"#utility.yul\":11745:11812   */\n      tag_118\n      jump\t// in\n    tag_250:\n        /* \"#utility.yul\":11739:11743   */\n      dup7\n        /* \"#utility.yul\":11732:11813   */\n      sstore\n        /* \"#utility.yul\":11601:11823   */\n      pop\n        /* \"#utility.yul\":10936:11823   */\n      jump(tag_247)\n        /* \"#utility.yul\":10966:11584   */\n    tag_248:\n        /* \"#utility.yul\":11018:11022   */\n      0x1f\n        /* \"#utility.yul\":11014:11023   */\n      not\n        /* \"#utility.yul\":11006:11012   */\n      dup5\n        /* \"#utility.yul\":11002:11024   */\n      and\n        /* \"#utility.yul\":11052:11089   */\n      tag_251\n        /* \"#utility.yul\":11084:11088   */\n      dup7\n        /* \"#utility.yul\":11052:11089   */\n      tag_104\n      jump\t// in\n    tag_251:\n        /* \"#utility.yul\":11111:11112   */\n      0x00\n        /* \"#utility.yul\":11125:11333   */\n    tag_252:\n        /* \"#utility.yul\":11139:11146   */\n      dup3\n        /* \"#utility.yul\":11136:11137   */\n      dup2\n        /* \"#utility.yul\":11133:11147   */\n      lt\n        /* \"#utility.yul\":11125:11333   */\n      iszero\n      tag_254\n      jumpi\n        /* \"#utility.yul\":11218:11227   */\n      dup5\n        /* \"#utility.yul\":11213:11216   */\n      dup10\n        /* \"#utility.yul\":11209:11228   */\n      add\n        /* \"#utility.yul\":11203:11229   */\n      mload\n        /* \"#utility.yul\":11195:11201   */\n      dup3\n        /* \"#utility.yul\":11188:11230   */\n      sstore\n        /* \"#utility.yul\":11269:11270   */\n      0x01\n        /* \"#utility.yul\":11261:11267   */\n      dup3\n        /* \"#utility.yul\":11257:11271   */\n      add\n        /* \"#utility.yul\":11247:11271   */\n      swap2\n      pop\n        /* \"#utility.yul\":11316:11318   */\n      0x20\n        /* \"#utility.yul\":11305:11314   */\n      dup6\n        /* \"#utility.yul\":11301:11319   */\n      add\n        /* \"#utility.yul\":11288:11319   */\n      swap5\n      pop\n        /* \"#utility.yul\":11162:11166   */\n      0x20\n        /* \"#utility.yul\":11159:11160   */\n      dup2\n        /* \"#utility.yul\":11155:11167   */\n      add\n        /* \"#utility.yul\":11150:11167   */\n      swap1\n      pop\n        /* \"#utility.yul\":11125:11333   */\n      jump(tag_252)\n    tag_254:\n        /* \"#utility.yul\":11361:11367   */\n      dup7\n        /* \"#utility.yul\":11352:11359   */\n      dup4\n        /* \"#utility.yul\":11349:11368   */\n      lt\n        /* \"#utility.yul\":11346:11525   */\n      iszero\n      tag_255\n      jumpi\n        /* \"#utility.yul\":11419:11428   */\n      dup5\n        /* \"#utility.yul\":11414:11417   */\n      dup10\n        /* \"#utility.yul\":11410:11429   */\n      add\n        /* \"#utility.yul\":11404:11430   */\n      mload\n        /* \"#utility.yul\":11462:11510   */\n      tag_256\n        /* \"#utility.yul\":11504:11508   */\n      0x1f\n        /* \"#utility.yul\":11496:11502   */\n      dup10\n        /* \"#utility.yul\":11492:11509   */\n      and\n        /* \"#utility.yul\":11481:11490   */\n      dup3\n        /* \"#utility.yul\":11462:11510   */\n      tag_117\n      jump\t// in\n    tag_256:\n        /* \"#utility.yul\":11454:11460   */\n      dup4\n        /* \"#utility.yul\":11447:11511   */\n      sstore\n        /* \"#utility.yul\":11369:11525   */\n      pop\n        /* \"#utility.yul\":11346:11525   */\n    tag_255:\n        /* \"#utility.yul\":11571:11572   */\n      0x01\n        /* \"#utility.yul\":11567:11568   */\n      0x02\n        /* \"#utility.yul\":11559:11565   */\n      dup9\n        /* \"#utility.yul\":11555:11569   */\n      mul\n        /* \"#utility.yul\":11551:11573   */\n      add\n        /* \"#utility.yul\":11545:11549   */\n      dup9\n        /* \"#utility.yul\":11538:11574   */\n      sstore\n        /* \"#utility.yul\":10973:11584   */\n      pop\n      pop\n      pop\n        /* \"#utility.yul\":10936:11823   */\n    tag_247:\n      pop\n        /* \"#utility.yul\":10526:11829   */\n      pop\n      pop\n      pop\n        /* \"#utility.yul\":10434:11829   */\n      pop\n      pop\n      jump\t// out\n        /* \"#utility.yul\":11835:12015   */\n    tag_119:\n        /* \"#utility.yul\":11883:11960   */\n      0x4e487b7100000000000000000000000000000000000000000000000000000000\n        /* \"#utility.yul\":11880:11881   */\n      0x00\n        /* \"#utility.yul\":11873:11961   */\n      mstore\n        /* \"#utility.yul\":11980:11984   */\n      0x12\n        /* \"#utility.yul\":11977:11978   */\n      0x04\n        /* \"#utility.yul\":11970:11985   */\n      mstore\n        /* \"#utility.yul\":12004:12008   */\n      0x24\n        /* \"#utility.yul\":12001:12002   */\n      0x00\n        /* \"#utility.yul\":11994:12009   */\n      revert\n        /* \"#utility.yul\":12021:12206   */\n    tag_80:\n        /* \"#utility.yul\":12061:12062   */\n      0x00\n        /* \"#utility.yul\":12078:12098   */\n      tag_259\n        /* \"#utility.yul\":12096:12097   */\n      dup3\n        /* \"#utility.yul\":12078:12098   */\n      tag_89\n      jump\t// in\n    tag_259:\n        /* \"#utility.yul\":12073:12098   */\n      swap2\n      pop\n        /* \"#utility.yul\":12112:12132   */\n      tag_260\n        /* \"#utility.yul\":12130:12131   */\n      dup4\n        /* \"#utility.yul\":12112:12132   */\n      tag_89\n      jump\t// in\n    tag_260:\n        /* \"#utility.yul\":12107:12132   */\n      swap3\n      pop\n        /* \"#utility.yul\":12151:12152   */\n      dup3\n        /* \"#utility.yul\":12141:12176   */\n      tag_261\n      jumpi\n        /* \"#utility.yul\":12156:12174   */\n      tag_262\n      tag_119\n      jump\t// in\n    tag_262:\n        /* \"#utility.yul\":12141:12176   */\n    tag_261:\n        /* \"#utility.yul\":12198:12199   */\n      dup3\n        /* \"#utility.yul\":12195:12196   */\n      dup3\n        /* \"#utility.yul\":12191:12200   */\n      div\n        /* \"#utility.yul\":12186:12200   */\n      swap1\n      pop\n        /* \"#utility.yul\":12021:12206   */\n      swap3\n      swap2\n      pop\n      pop\n      jump\t// out\n\n    auxdata: 0xa26469706673582212204ae501e14cd807d26794c28f5c3c71c2f4bb477aabefda536c2cadebf4e8fa2f64736f6c634300081e0033\n}\n",
				"bytecode": {
					"linkReferences": {},
					"object": "6080604052348015600e575f5ffd5b50610ac28061001c5f395ff3fe608060405260043610610085575f3560e01c80634e70b1dc116100585780634e70b1dc14610141578063552410771461016b578063c4784fd414610193578063e21f37ce146101bb578063f7474d00146101e557610085565b806306fdde0314610089578063165c4a16146100b357806320965255146100ef5780633baa817014610119575b5f5ffd5b348015610094575f5ffd5b5061009d6101ef565b6040516100aa9190610433565b60405180910390f35b3480156100be575f5ffd5b506100d960048036038101906100d49190610497565b61027b565b6040516100e691906104e4565b60405180910390f35b3480156100fa575f5ffd5b50610103610295565b60405161011091906104e4565b60405180910390f35b348015610124575f5ffd5b5061013f600480360381019061013a9190610629565b61029e565b005b34801561014c575f5ffd5b506101556102f9565b60405161016291906104e4565b60405180910390f35b348015610176575f5ffd5b50610191600480360381019061018c9190610683565b6102fe565b005b34801561019e575f5ffd5b506101b960048036038101906101b491906106ae565b610308565b005b3480156101c6575f5ffd5b506101cf61031b565b6040516101dc9190610433565b60405180910390f35b6101ed6103a7565b005b600180546101fc90610722565b80601f016020809104026020016040519081016040528092919081815260200182805461022890610722565b80156102735780601f1061024a57610100808354040283529160200191610273565b820191905f5260205f20905b81548152906001019060200180831161025657829003601f168201915b505050505081565b5f5f8284610289919061077f565b90508091505092915050565b5f600354905090565b81600190816102ad9190610960565b506102b7816103a9565b6102f56040518060400160405280601381526020017f43616c6c65642074686520636f6e747261637400000000000000000000000000815250610308565b5050565b5f5481565b8060038190555050565b80600290816103179190610960565b5050565b6002805461032890610722565b80601f016020809104026020016040519081016040528092919081815260200182805461035490610722565b801561039f5780601f106103765761010080835404028352916020019161039f565b820191905f5260205f20905b81548152906001019060200180831161038257829003601f168201915b505050505081565b565b5f6002826103b79190610a5c565b9050805f819055505050565b5f81519050919050565b5f82825260208201905092915050565b8281835e5f83830152505050565b5f601f19601f8301169050919050565b5f610405826103c3565b61040f81856103cd565b935061041f8185602086016103dd565b610428816103eb565b840191505092915050565b5f6020820190508181035f83015261044b81846103fb565b905092915050565b5f604051905090565b5f5ffd5b5f5ffd5b5f819050919050565b61047681610464565b8114610480575f5ffd5b50565b5f813590506104918161046d565b92915050565b5f5f604083850312156104ad576104ac61045c565b5b5f6104ba85828601610483565b92505060206104cb85828601610483565b9150509250929050565b6104de81610464565b82525050565b5f6020820190506104f75f8301846104d5565b92915050565b5f5ffd5b5f5ffd5b7f4e487b71000000000000000000000000000000000000000000000000000000005f52604160045260245ffd5b61053b826103eb565b810181811067ffffffffffffffff8211171561055a57610559610505565b5b80604052505050565b5f61056c610453565b90506105788282610532565b919050565b5f67ffffffffffffffff82111561059757610596610505565b5b6105a0826103eb565b9050602081019050919050565b828183375f83830152505050565b5f6105cd6105c88461057d565b610563565b9050828152602081018484840111156105e9576105e8610501565b5b6105f48482856105ad565b509392505050565b5f82601f8301126106105761060f6104fd565b5b81356106208482602086016105bb565b91505092915050565b5f5f6040838503121561063f5761063e61045c565b5b5f83013567ffffffffffffffff81111561065c5761065b610460565b5b610668858286016105fc565b925050602061067985828601610483565b9150509250929050565b5f602082840312156106985761069761045c565b5b5f6106a584828501610483565b91505092915050565b5f602082840312156106c3576106c261045c565b5b5f82013567ffffffffffffffff8111156106e0576106df610460565b5b6106ec848285016105fc565b91505092915050565b7f4e487b71000000000000000000000000000000000000000000000000000000005f52602260045260245ffd5b5f600282049050600182168061073957607f821691505b60208210810361074c5761074b6106f5565b5b50919050565b7f4e487b71000000000000000000000000000000000000000000000000000000005f52601160045260245ffd5b5f61078982610464565b915061079483610464565b92508282026107a281610464565b915082820484148315176107b9576107b8610752565b5b5092915050565b5f819050815f5260205f209050919050565b5f6020601f8301049050919050565b5f82821b905092915050565b5f6008830261081c7fffffffffffffffffffffffffffffffffffffffffffffffffffffffffffffffff826107e1565b61082686836107e1565b95508019841693508086168417925050509392505050565b5f819050919050565b5f61086161085c61085784610464565b61083e565b610464565b9050919050565b5f819050919050565b61087a83610847565b61088e61088682610868565b8484546107ed565b825550505050565b5f5f905090565b6108a5610896565b6108b0818484610871565b505050565b5b818110156108d3576108c85f8261089d565b6001810190506108b6565b5050565b601f821115610918576108e9816107c0565b6108f2846107d2565b81016020851015610901578190505b61091561090d856107d2565b8301826108b5565b50505b505050565b5f82821c905092915050565b5f6109385f198460080261091d565b1980831691505092915050565b5f6109508383610929565b9150826002028217905092915050565b610969826103c3565b67ffffffffffffffff81111561098257610981610505565b5b61098c8254610722565b6109978282856108d7565b5f60209050601f8311600181146109c8575f84156109b6578287015190505b6109c08582610945565b865550610a27565b601f1984166109d6866107c0565b5f5b828110156109fd578489015182556001820191506020850194506020810190506109d8565b86831015610a1a5784890151610a16601f891682610929565b8355505b6001600288020188555050505b505050505050565b7f4e487b71000000000000000000000000000000000000000000000000000000005f52601260045260245ffd5b5f610a6682610464565b9150610a7183610464565b925082610a8157610a80610a2f565b5b82820490509291505056fea26469706673582212204ae501e14cd807d26794c28f5c3c71c2f4bb477aabefda536c2cadebf4e8fa2f64736f6c634300081e0033",
					"opcodes": "PUSH1 0x80 PUSH1 0x40 MSTORE CALLVALUE DUP1 ISZERO PUSH1 0xE JUMPI PUSH0 PUSH0 REVERT JUMPDEST POP PUSH2 0xAC2 DUP1 PUSH2 0x1C PUSH0 CODECOPY PUSH0 RETURN INVALID PUSH1 0x80 PUSH1 0x40 MSTORE PUSH1 0x4 CALLDATASIZE LT PUSH2 0x85 JUMPI PUSH0 CALLDATALOAD PUSH1 0xE0 SHR DUP1 PUSH4 0x4E70B1DC GT PUSH2 0x58 JUMPI DUP1 PUSH4 0x4E70B1DC EQ PUSH2 0x141 JUMPI DUP1 PUSH4 0x55241077 EQ PUSH2 0x16B JUMPI DUP1 PUSH4 0xC4784FD4 EQ PUSH2 0x193 JUMPI DUP1 PUSH4 0xE21F37CE EQ PUSH2 0x1BB JUMPI DUP1 PUSH4 0xF7474D00 EQ PUSH2 0x1E5 JUMPI PUSH2 0x85 JUMP JUMPDEST DUP1 PUSH4 0x6FDDE03 EQ PUSH2 0x89 JUMPI DUP1 PUSH4 0x165C4A16 EQ PUSH2 0xB3 JUMPI DUP1 PUSH4 0x20965255 EQ PUSH2 0xEF JUMPI DUP1 PUSH4 0x3BAA8170 EQ PUSH2 0x119 JUMPI JUMPDEST PUSH0 PUSH0 REVERT JUMPDEST CALLVALUE DUP1 ISZERO PUSH2 0x94 JUMPI PUSH0 PUSH0 REVERT JUMPDEST POP PUSH2 0x9D PUSH2 0x1EF JUMP JUMPDEST PUSH1 0x40 MLOAD PUSH2 0xAA SWAP2 SWAP1 PUSH2 0x433 JUMP JUMPDEST PUSH1 0x40 MLOAD DUP1 SWAP2 SUB SWAP1 RETURN JUMPDEST CALLVALUE DUP1 ISZERO PUSH2 0xBE JUMPI PUSH0 PUSH0 REVERT JUMPDEST POP PUSH2 0xD9 PUSH1 0x4 DUP1 CALLDATASIZE SUB DUP2 ADD SWAP1 PUSH2 0xD4 SWAP2 SWAP1 PUSH2 0x497 JUMP JUMPDEST PUSH2 0x27B JUMP JUMPDEST PUSH1 0x40 MLOAD PUSH2 0xE6 SWAP2 SWAP1 PUSH2 0x4E4 JUMP JUMPDEST PUSH1 0x40 MLOAD DUP1 SWAP2 SUB SWAP1 RETURN JUMPDEST CALLVALUE DUP1 ISZERO PUSH2 0xFA JUMPI PUSH0 PUSH0 REVERT JUMPDEST POP PUSH2 0x103 PUSH2 0x295 JUMP JUMPDEST PUSH1 0x40 MLOAD PUSH2 0x110 SWAP2 SWAP1 PUSH2 0x4E4 JUMP JUMPDEST PUSH1 0x40 MLOAD DUP1 SWAP2 SUB SWAP1 RETURN JUMPDEST CALLVALUE DUP1 ISZERO PUSH2 0x124 JUMPI PUSH0 PUSH0 REVERT JUMPDEST POP PUSH2 0x13F PUSH1 0x4 DUP1 CALLDATASIZE SUB DUP2 ADD SWAP1 PUSH2 0x13A SWAP2 SWAP1 PUSH2 0x629 JUMP JUMPDEST PUSH2 0x29E JUMP JUMPDEST STOP JUMPDEST CALLVALUE DUP1 ISZERO PUSH2 0x14C JUMPI PUSH0 PUSH0 REVERT JUMPDEST POP PUSH2 0x155 PUSH2 0x2F9 JUMP JUMPDEST PUSH1 0x40 MLOAD PUSH2 0x162 SWAP2 SWAP1 PUSH2 0x4E4 JUMP JUMPDEST PUSH1 0x40 MLOAD DUP1 SWAP2 SUB SWAP1 RETURN JUMPDEST CALLVALUE DUP1 ISZERO PUSH2 0x176 JUMPI PUSH0 PUSH0 REVERT JUMPDEST POP PUSH2 0x191 PUSH1 0x4 DUP1 CALLDATASIZE SUB DUP2 ADD SWAP1 PUSH2 0x18C SWAP2 SWAP1 PUSH2 0x683 JUMP JUMPDEST PUSH2 0x2FE JUMP JUMPDEST STOP JUMPDEST CALLVALUE DUP1 ISZERO PUSH2 0x19E JUMPI PUSH0 PUSH0 REVERT JUMPDEST POP PUSH2 0x1B9 PUSH1 0x4 DUP1 CALLDATASIZE SUB DUP2 ADD SWAP1 PUSH2 0x1B4 SWAP2 SWAP1 PUSH2 0x6AE JUMP JUMPDEST PUSH2 0x308 JUMP JUMPDEST STOP JUMPDEST CALLVALUE DUP1 ISZERO PUSH2 0x1C6 JUMPI PUSH0 PUSH0 REVERT JUMPDEST POP PUSH2 0x1CF PUSH2 0x31B JUMP JUMPDEST PUSH1 0x40 MLOAD PUSH2 0x1DC SWAP2 SWAP1 PUSH2 0x433 JUMP JUMPDEST PUSH1 0x40 MLOAD DUP1 SWAP2 SUB SWAP1 RETURN JUMPDEST PUSH2 0x1ED PUSH2 0x3A7 JUMP JUMPDEST STOP JUMPDEST PUSH1 0x1 DUP1 SLOAD PUSH2 0x1FC SWAP1 PUSH2 0x722 JUMP JUMPDEST DUP1 PUSH1 0x1F ADD PUSH1 0x20 DUP1 SWAP2 DIV MUL PUSH1 0x20 ADD PUSH1 0x40 MLOAD SWAP1 DUP2 ADD PUSH1 0x40 MSTORE DUP1 SWAP3 SWAP2 SWAP1 DUP2 DUP2 MSTORE PUSH1 0x20 ADD DUP3 DUP1 SLOAD PUSH2 0x228 SWAP1 PUSH2 0x722 JUMP JUMPDEST DUP1 ISZERO PUSH2 0x273 JUMPI DUP1 PUSH1 0x1F LT PUSH2 0x24A JUMPI PUSH2 0x100 DUP1 DUP4 SLOAD DIV MUL DUP4 MSTORE SWAP2 PUSH1 0x20 ADD SWAP2 PUSH2 0x273 JUMP JUMPDEST DUP3 ADD SWAP2 SWAP1 PUSH0 MSTORE PUSH1 0x20 PUSH0 KECCAK256 SWAP1 JUMPDEST DUP2 SLOAD DUP2 MSTORE SWAP1 PUSH1 0x1 ADD SWAP1 PUSH1 0x20 ADD DUP1 DUP4 GT PUSH2 0x256 JUMPI DUP3 SWAP1 SUB PUSH1 0x1F AND DUP3 ADD SWAP2 JUMPDEST POP POP POP POP POP DUP2 JUMP JUMPDEST PUSH0 PUSH0 DUP3 DUP5 PUSH2 0x289 SWAP2 SWAP1 PUSH2 0x77F JUMP JUMPDEST SWAP1 POP DUP1 SWAP2 POP POP SWAP3 SWAP2 POP POP JUMP JUMPDEST PUSH0 PUSH1 0x3 SLOAD SWAP1 POP SWAP1 JUMP JUMPDEST DUP2 PUSH1 0x1 SWAP1 DUP2 PUSH2 0x2AD SWAP2 SWAP1 PUSH2 0x960 JUMP JUMPDEST POP PUSH2 0x2B7 DUP2 PUSH2 0x3A9 JUMP JUMPDEST PUSH2 0x2F5 PUSH1 0x40 MLOAD DUP1 PUSH1 0x40 ADD PUSH1 0x40 MSTORE DUP1 PUSH1 0x13 DUP2 MSTORE PUSH1 0x20 ADD PUSH32 0x43616C6C65642074686520636F6E747261637400000000000000000000000000 DUP2 MSTORE POP PUSH2 0x308 JUMP JUMPDEST POP POP JUMP JUMPDEST PUSH0 SLOAD DUP2 JUMP JUMPDEST DUP1 PUSH1 0x3 DUP2 SWAP1 SSTORE POP POP JUMP JUMPDEST DUP1 PUSH1 0x2 SWAP1 DUP2 PUSH2 0x317 SWAP2 SWAP1 PUSH2 0x960 JUMP JUMPDEST POP POP JUMP JUMPDEST PUSH1 0x2 DUP1 SLOAD PUSH2 0x328 SWAP1 PUSH2 0x722 JUMP JUMPDEST DUP1 PUSH1 0x1F ADD PUSH1 0x20 DUP1 SWAP2 DIV MUL PUSH1 0x20 ADD PUSH1 0x40 MLOAD SWAP1 DUP2 ADD PUSH1 0x40 MSTORE DUP1 SWAP3 SWAP2 SWAP1 DUP2 DUP2 MSTORE PUSH1 0x20 ADD DUP3 DUP1 SLOAD PUSH2 0x354 SWAP1 PUSH2 0x722 JUMP JUMPDEST DUP1 ISZERO PUSH2 0x39F JUMPI DUP1 PUSH1 0x1F LT PUSH2 0x376 JUMPI PUSH2 0x100 DUP1 DUP4 SLOAD DIV MUL DUP4 MSTORE SWAP2 PUSH1 0x20 ADD SWAP2 PUSH2 0x39F JUMP JUMPDEST DUP3 ADD SWAP2 SWAP1 PUSH0 MSTORE PUSH1 0x20 PUSH0 KECCAK256 SWAP1 JUMPDEST DUP2 SLOAD DUP2 MSTORE SWAP1 PUSH1 0x1 ADD SWAP1 PUSH1 0x20 ADD DUP1 DUP4 GT PUSH2 0x382 JUMPI DUP3 SWAP1 SUB PUSH1 0x1F AND DUP3 ADD SWAP2 JUMPDEST POP POP POP POP POP DUP2 JUMP JUMPDEST JUMP JUMPDEST PUSH0 PUSH1 0x2 DUP3 PUSH2 0x3B7 SWAP2 SWAP1 PUSH2 0xA5C JUMP JUMPDEST SWAP1 POP DUP1 PUSH0 DUP2 SWAP1 SSTORE POP POP POP JUMP JUMPDEST PUSH0 DUP2 MLOAD SWAP1 POP SWAP2 SWAP1 POP JUMP JUMPDEST PUSH0 DUP3 DUP3 MSTORE PUSH1 0x20 DUP3 ADD SWAP1 POP SWAP3 SWAP2 POP POP JUMP JUMPDEST DUP3 DUP2 DUP4 MCOPY PUSH0 DUP4 DUP4 ADD MSTORE POP POP POP JUMP JUMPDEST PUSH0 PUSH1 0x1F NOT PUSH1 0x1F DUP4 ADD AND SWAP1 POP SWAP2 SWAP1 POP JUMP JUMPDEST PUSH0 PUSH2 0x405 DUP3 PUSH2 0x3C3 JUMP JUMPDEST PUSH2 0x40F DUP2 DUP6 PUSH2 0x3CD JUMP JUMPDEST SWAP4 POP PUSH2 0x41F DUP2 DUP6 PUSH1 0x20 DUP7 ADD PUSH2 0x3DD JUMP JUMPDEST PUSH2 0x428 DUP2 PUSH2 0x3EB JUMP JUMPDEST DUP5 ADD SWAP2 POP POP SWAP3 SWAP2 POP POP JUMP JUMPDEST PUSH0 PUSH1 0x20 DUP3 ADD SWAP1 POP DUP2 DUP2 SUB PUSH0 DUP4 ADD MSTORE PUSH2 0x44B DUP2 DUP5 PUSH2 0x3FB JUMP JUMPDEST SWAP1 POP SWAP3 SWAP2 POP POP JUMP JUMPDEST PUSH0 PUSH1 0x40 MLOAD SWAP1 POP SWAP1 JUMP JUMPDEST PUSH0 PUSH0 REVERT JUMPDEST PUSH0 PUSH0 REVERT JUMPDEST PUSH0 DUP2 SWAP1 POP SWAP2 SWAP1 POP JUMP JUMPDEST PUSH2 0x476 DUP2 PUSH2 0x464 JUMP JUMPDEST DUP2 EQ PUSH2 0x480 JUMPI PUSH0 PUSH0 REVERT JUMPDEST POP JUMP JUMPDEST PUSH0 DUP2 CALLDATALOAD SWAP1 POP PUSH2 0x491 DUP2 PUSH2 0x46D JUMP JUMPDEST SWAP3 SWAP2 POP POP JUMP JUMPDEST PUSH0 PUSH0 PUSH1 0x40 DUP4 DUP6 SUB SLT ISZERO PUSH2 0x4AD JUMPI PUSH2 0x4AC PUSH2 0x45C JUMP JUMPDEST JUMPDEST PUSH0 PUSH2 0x4BA DUP6 DUP3 DUP7 ADD PUSH2 0x483 JUMP JUMPDEST SWAP3 POP POP PUSH1 0x20 PUSH2 0x4CB DUP6 DUP3 DUP7 ADD PUSH2 0x483 JUMP JUMPDEST SWAP2 POP POP SWAP3 POP SWAP3 SWAP1 POP JUMP JUMPDEST PUSH2 0x4DE DUP2 PUSH2 0x464 JUMP JUMPDEST DUP3 MSTORE POP POP JUMP JUMPDEST PUSH0 PUSH1 0x20 DUP3 ADD SWAP1 POP PUSH2 0x4F7 PUSH0 DUP4 ADD DUP5 PUSH2 0x4D5 JUMP JUMPDEST SWAP3 SWAP2 POP POP JUMP JUMPDEST PUSH0 PUSH0 REVERT JUMPDEST PUSH0 PUSH0 REVERT JUMPDEST PUSH32 0x4E487B7100000000000000000000000000000000000000000000000000000000 PUSH0 MSTORE PUSH1 0x41 PUSH1 0x4 MSTORE PUSH1 0x24 PUSH0 REVERT JUMPDEST PUSH2 0x53B DUP3 PUSH2 0x3EB JUMP JUMPDEST DUP2 ADD DUP2 DUP2 LT PUSH8 0xFFFFFFFFFFFFFFFF DUP3 GT OR ISZERO PUSH2 0x55A JUMPI PUSH2 0x559 PUSH2 0x505 JUMP JUMPDEST JUMPDEST DUP1 PUSH1 0x40 MSTORE POP POP POP JUMP JUMPDEST PUSH0 PUSH2 0x56C PUSH2 0x453 JUMP JUMPDEST SWAP1 POP PUSH2 0x578 DUP3 DUP3 PUSH2 0x532 JUMP JUMPDEST SWAP2 SWAP1 POP JUMP JUMPDEST PUSH0 PUSH8 0xFFFFFFFFFFFFFFFF DUP3 GT ISZERO PUSH2 0x597 JUMPI PUSH2 0x596 PUSH2 0x505 JUMP JUMPDEST JUMPDEST PUSH2 0x5A0 DUP3 PUSH2 0x3EB JUMP JUMPDEST SWAP1 POP PUSH1 0x20 DUP2 ADD SWAP1 POP SWAP2 SWAP1 POP JUMP JUMPDEST DUP3 DUP2 DUP4 CALLDATACOPY PUSH0 DUP4 DUP4 ADD MSTORE POP POP POP JUMP JUMPDEST PUSH0 PUSH2 0x5CD PUSH2 0x5C8 DUP5 PUSH2 0x57D JUMP JUMPDEST PUSH2 0x563 JUMP JUMPDEST SWAP1 POP DUP3 DUP2 MSTORE PUSH1 0x20 DUP2 ADD DUP5 DUP5 DUP5 ADD GT ISZERO PUSH2 0x5E9 JUMPI PUSH2 0x5E8 PUSH2 0x501 JUMP JUMPDEST JUMPDEST PUSH2 0x5F4 DUP5 DUP3 DUP6 PUSH2 0x5AD JUMP JUMPDEST POP SWAP4 SWAP3 POP POP POP JUMP JUMPDEST PUSH0 DUP3 PUSH1 0x1F DUP4 ADD SLT PUSH2 0x610 JUMPI PUSH2 0x60F PUSH2 0x4FD JUMP JUMPDEST JUMPDEST DUP2 CALLDATALOAD PUSH2 0x620 DUP5 DUP3 PUSH1 0x20 DUP7 ADD PUSH2 0x5BB JUMP JUMPDEST SWAP2 POP POP SWAP3 SWAP2 POP POP JUMP JUMPDEST PUSH0 PUSH0 PUSH1 0x40 DUP4 DUP6 SUB SLT ISZERO PUSH2 0x63F JUMPI PUSH2 0x63E PUSH2 0x45C JUMP JUMPDEST JUMPDEST PUSH0 DUP4 ADD CALLDATALOAD PUSH8 0xFFFFFFFFFFFFFFFF DUP2 GT ISZERO PUSH2 0x65C JUMPI PUSH2 0x65B PUSH2 0x460 JUMP JUMPDEST JUMPDEST PUSH2 0x668 DUP6 DUP3 DUP7 ADD PUSH2 0x5FC JUMP JUMPDEST SWAP3 POP POP PUSH1 0x20 PUSH2 0x679 DUP6 DUP3 DUP7 ADD PUSH2 0x483 JUMP JUMPDEST SWAP2 POP POP SWAP3 POP SWAP3 SWAP1 POP JUMP JUMPDEST PUSH0 PUSH1 0x20 DUP3 DUP5 SUB SLT ISZERO PUSH2 0x698 JUMPI PUSH2 0x697 PUSH2 0x45C JUMP JUMPDEST JUMPDEST PUSH0 PUSH2 0x6A5 DUP5 DUP3 DUP6 ADD PUSH2 0x483 JUMP JUMPDEST SWAP2 POP POP SWAP3 SWAP2 POP POP JUMP JUMPDEST PUSH0 PUSH1 0x20 DUP3 DUP5 SUB SLT ISZERO PUSH2 0x6C3 JUMPI PUSH2 0x6C2 PUSH2 0x45C JUMP JUMPDEST JUMPDEST PUSH0 DUP3 ADD CALLDATALOAD PUSH8 0xFFFFFFFFFFFFFFFF DUP2 GT ISZERO PUSH2 0x6E0 JUMPI PUSH2 0x6DF PUSH2 0x460 JUMP JUMPDEST JUMPDEST PUSH2 0x6EC DUP5 DUP3 DUP6 ADD PUSH2 0x5FC JUMP JUMPDEST SWAP2 POP POP SWAP3 SWAP2 POP POP JUMP JUMPDEST PUSH32 0x4E487B7100000000000000000000000000000000000000000000000000000000 PUSH0 MSTORE PUSH1 0x22 PUSH1 0x4 MSTORE PUSH1 0x24 PUSH0 REVERT JUMPDEST PUSH0 PUSH1 0x2 DUP3 DIV SWAP1 POP PUSH1 0x1 DUP3 AND DUP1 PUSH2 0x739 JUMPI PUSH1 0x7F DUP3 AND SWAP2 POP JUMPDEST PUSH1 0x20 DUP3 LT DUP2 SUB PUSH2 0x74C JUMPI PUSH2 0x74B PUSH2 0x6F5 JUMP JUMPDEST JUMPDEST POP SWAP2 SWAP1 POP JUMP JUMPDEST PUSH32 0x4E487B7100000000000000000000000000000000000000000000000000000000 PUSH0 MSTORE PUSH1 0x11 PUSH1 0x4 MSTORE PUSH1 0x24 PUSH0 REVERT JUMPDEST PUSH0 PUSH2 0x789 DUP3 PUSH2 0x464 JUMP JUMPDEST SWAP2 POP PUSH2 0x794 DUP4 PUSH2 0x464 JUMP JUMPDEST SWAP3 POP DUP3 DUP3 MUL PUSH2 0x7A2 DUP2 PUSH2 0x464 JUMP JUMPDEST SWAP2 POP DUP3 DUP3 DIV DUP5 EQ DUP4 ISZERO OR PUSH2 0x7B9 JUMPI PUSH2 0x7B8 PUSH2 0x752 JUMP JUMPDEST JUMPDEST POP SWAP3 SWAP2 POP POP JUMP JUMPDEST PUSH0 DUP2 SWAP1 POP DUP2 PUSH0 MSTORE PUSH1 0x20 PUSH0 KECCAK256 SWAP1 POP SWAP2 SWAP1 POP JUMP JUMPDEST PUSH0 PUSH1 0x20 PUSH1 0x1F DUP4 ADD DIV SWAP1 POP SWAP2 SWAP1 POP JUMP JUMPDEST PUSH0 DUP3 DUP3 SHL SWAP1 POP SWAP3 SWAP2 POP POP JUMP JUMPDEST PUSH0 PUSH1 0x8 DUP4 MUL PUSH2 0x81C PUSH32 0xFFFFFFFFFFFFFFFFFFFFFFFFFFFFFFFFFFFFFFFFFFFFFFFFFFFFFFFFFFFFFFFF DUP3 PUSH2 0x7E1 JUMP JUMPDEST PUSH2 0x826 DUP7 DUP4 PUSH2 0x7E1 JUMP JUMPDEST SWAP6 POP DUP1 NOT DUP5 AND SWAP4 POP DUP1 DUP7 AND DUP5 OR SWAP3 POP POP POP SWAP4 SWAP3 POP POP POP JUMP JUMPDEST PUSH0 DUP2 SWAP1 POP SWAP2 SWAP1 POP JUMP JUMPDEST PUSH0 PUSH2 0x861 PUSH2 0x85C PUSH2 0x857 DUP5 PUSH2 0x464 JUMP JUMPDEST PUSH2 0x83E JUMP JUMPDEST PUSH2 0x464 JUMP JUMPDEST SWAP1 POP SWAP2 SWAP1 POP JUMP JUMPDEST PUSH0 DUP2 SWAP1 POP SWAP2 SWAP1 POP JUMP JUMPDEST PUSH2 0x87A DUP4 PUSH2 0x847 JUMP JUMPDEST PUSH2 0x88E PUSH2 0x886 DUP3 PUSH2 0x868 JUMP JUMPDEST DUP5 DUP5 SLOAD PUSH2 0x7ED JUMP JUMPDEST DUP3 SSTORE POP POP POP POP JUMP JUMPDEST PUSH0 PUSH0 SWAP1 POP SWAP1 JUMP JUMPDEST PUSH2 0x8A5 PUSH2 0x896 JUMP JUMPDEST PUSH2 0x8B0 DUP2 DUP5 DUP5 PUSH2 0x871 JUMP JUMPDEST POP POP POP JUMP JUMPDEST JUMPDEST DUP2 DUP2 LT ISZERO PUSH2 0x8D3 JUMPI PUSH2 0x8C8 PUSH0 DUP3 PUSH2 0x89D JUMP JUMPDEST PUSH1 0x1 DUP2 ADD SWAP1 POP PUSH2 0x8B6 JUMP JUMPDEST POP POP JUMP JUMPDEST PUSH1 0x1F DUP3 GT ISZERO PUSH2 0x918 JUMPI PUSH2 0x8E9 DUP2 PUSH2 0x7C0 JUMP JUMPDEST PUSH2 0x8F2 DUP5 PUSH2 0x7D2 JUMP JUMPDEST DUP2 ADD PUSH1 0x20 DUP6 LT ISZERO PUSH2 0x901 JUMPI DUP2 SWAP1 POP JUMPDEST PUSH2 0x915 PUSH2 0x90D DUP6 PUSH2 0x7D2 JUMP JUMPDEST DUP4 ADD DUP3 PUSH2 0x8B5 JUMP JUMPDEST POP POP JUMPDEST POP POP POP JUMP JUMPDEST PUSH0 DUP3 DUP3 SHR SWAP1 POP SWAP3 SWAP2 POP POP JUMP JUMPDEST PUSH0 PUSH2 0x938 PUSH0 NOT DUP5 PUSH1 0x8 MUL PUSH2 0x91D JUMP JUMPDEST NOT DUP1 DUP4 AND SWAP2 POP POP SWAP3 SWAP2 POP POP JUMP JUMPDEST PUSH0 PUSH2 0x950 DUP4 DUP4 PUSH2 0x929 JUMP JUMPDEST SWAP2 POP DUP3 PUSH1 0x2 MUL DUP3 OR SWAP1 POP SWAP3 SWAP2 POP POP JUMP JUMPDEST PUSH2 0x969 DUP3 PUSH2 0x3C3 JUMP JUMPDEST PUSH8 0xFFFFFFFFFFFFFFFF DUP2 GT ISZERO PUSH2 0x982 JUMPI PUSH2 0x981 PUSH2 0x505 JUMP JUMPDEST JUMPDEST PUSH2 0x98C DUP3 SLOAD PUSH2 0x722 JUMP JUMPDEST PUSH2 0x997 DUP3 DUP3 DUP6 PUSH2 0x8D7 JUMP JUMPDEST PUSH0 PUSH1 0x20 SWAP1 POP PUSH1 0x1F DUP4 GT PUSH1 0x1 DUP2 EQ PUSH2 0x9C8 JUMPI PUSH0 DUP5 ISZERO PUSH2 0x9B6 JUMPI DUP3 DUP8 ADD MLOAD SWAP1 POP JUMPDEST PUSH2 0x9C0 DUP6 DUP3 PUSH2 0x945 JUMP JUMPDEST DUP7 SSTORE POP PUSH2 0xA27 JUMP JUMPDEST PUSH1 0x1F NOT DUP5 AND PUSH2 0x9D6 DUP7 PUSH2 0x7C0 JUMP JUMPDEST PUSH0 JUMPDEST DUP3 DUP2 LT ISZERO PUSH2 0x9FD JUMPI DUP5 DUP10 ADD MLOAD DUP3 SSTORE PUSH1 0x1 DUP3 ADD SWAP2 POP PUSH1 0x20 DUP6 ADD SWAP5 POP PUSH1 0x20 DUP2 ADD SWAP1 POP PUSH2 0x9D8 JUMP JUMPDEST DUP7 DUP4 LT ISZERO PUSH2 0xA1A JUMPI DUP5 DUP10 ADD MLOAD PUSH2 0xA16 PUSH1 0x1F DUP10 AND DUP3 PUSH2 0x929 JUMP JUMPDEST DUP4 SSTORE POP JUMPDEST PUSH1 0x1 PUSH1 0x2 DUP9 MUL ADD DUP9 SSTORE POP POP POP JUMPDEST POP POP POP POP POP POP JUMP JUMPDEST PUSH32 0x4E487B7100000000000000000000000000000000000000000000000000000000 PUSH0 MSTORE PUSH1 0x12 PUSH1 0x4 MSTORE PUSH1 0x24 PUSH0 REVERT JUMPDEST PUSH0 PUSH2 0xA66 DUP3 PUSH2 0x464 JUMP JUMPDEST SWAP2 POP PUSH2 0xA71 DUP4 PUSH2 0x464 JUMP JUMPDEST SWAP3 POP DUP3 PUSH2 0xA81 JUMPI PUSH2 0xA80 PUSH2 0xA2F JUMP JUMPDEST JUMPDEST DUP3 DUP3 DIV SWAP1 POP SWAP3 SWAP2 POP POP JUMP INVALID LOG2 PUSH5 0x6970667358 0x22 SLT KECCAK256 BLOBBASEFEE JUMPF 0x1E1 0x4C 0xD8 SMOD 0xD2 PUSH8 0x94C28F5C3C71C2F4 0xBB SELFBALANCE PUSH27 0xABEFDA536C2CADEBF4E8FA2F64736F6C634300081E003300000000 "
				},
				"gasEstimates": {
					"creation": {
						"codeDepositCost": "550800",
						"executionCost": "585",
						"totalCost": "551385"
					},
					"external": {
						"getValue()": "2477",
						"message()": "infinite",
						"multiply(uint256,uint256)": "infinite",
						"name()": "infinite",
						"num()": "2424",
						"payEther()": "207",
						"setMsg(string)": "infinite",
						"setName(string,uint256)": "infinite",
						"setValue(uint256)": "22537"
					},
					"internal": {
						"halfNum(uint256)": "infinite"
					}
				},
				"methodIdentifiers": {
					"getValue()": "20965255",
					"message()": "e21f37ce",
					"multiply(uint256,uint256)": "165c4a16",
					"name()": "06fdde03",
					"num()": "4e70b1dc",
					"payEther()": "f7474d00",
					"setMsg(string)": "c4784fd4",
					"setName(string,uint256)": "3baa8170",
					"setValue(uint256)": "55241077"
				}
			},
			"storageLayout": {
				"storage": [
					{
						"astId": 3,
						"contract": "functions.sol:ExampleFunctions",
						"label": "num",
						"offset": 0,
						"slot": "0",
						"type": "t_uint256"
					},
					{
						"astId": 5,
						"contract": "functions.sol:ExampleFunctions",
						"label": "name",
						"offset": 0,
						"slot": "1",
						"type": "t_string_storage"
					},
					{
						"astId": 7,
						"contract": "functions.sol:ExampleFunctions",
						"label": "message",
						"offset": 0,
						"slot": "2",
						"type": "t_string_storage"
					},
					{
						"astId": 9,
						"contract": "functions.sol:ExampleFunctions",
						"label": "value",
						"offset": 0,
						"slot": "3",
						"type": "t_uint256"
					}
				],
				"types": {
					"t_string_storage": {
						"encoding": "bytes",
						"label": "string",
						"numberOfBytes": "32"
					},
					"t_uint256": {
						"encoding": "inplace",
						"label": "uint256",
						"numberOfBytes": "32"
					}
				}
			},
			"userdoc": {
				"kind": "user",
				"methods": {},
				"version": 1
			}
		}
	}
}