{
	"functions.sol": {
		"exampleFunctions": {
			"abi": [
				{
					"inputs": [],
					"name": "getValue",
					"outputs": [
						{
							"internalType": "uint256",
							"name": "",
							"type": "uint256"
						}
					],
					"stateMutability": "view",
					"type": "function"
				},
				{
					"inputs": [],
					"name": "message",
					"outputs": [
						{
							"internalType": "string",
							"name": "",
							"type": "string"
						}
					],
					"stateMutability": "view",
					"type": "function"
				},
				{
					"inputs": [
						{
							"internalType": "uint256",
							"name": "x",
							"type": "uint256"
						},
						{
							"internalType": "uint256",
							"name": "y",
							"type": "uint256"
						}
					],
					"name": "multiply",
					"outputs": [
						{
							"internalType": "uint256",
							"name": "",
							"type": "uint256"
						}
					],
					"stateMutability": "pure",
					"type": "function"
				},
				{
					"inputs": [],
					"name": "name",
					"outputs": [
						{
							"internalType": "string",
							"name": "",
							"type": "string"
						}
					],
					"stateMutability": "view",
					"type": "function"
				},
				{
					"inputs": [],
					"name": "num",
					"outputs": [
						{
							"internalType": "uint256",
							"name": "",
							"type": "uint256"
						}
					],
					"stateMutability": "view",
					"type": "function"
				},
				{
					"inputs": [],
					"name": "payEther",
					"outputs": [],
					"stateMutability": "payable",
					"type": "function"
				},
				{
					"inputs": [
						{
							"internalType": "string",
							"name": "_msg",
							"type": "string"
						}
					],
					"name": "setMsg",
					"outputs": [],
					"stateMutability": "nonpayable",
					"type": "function"
				},
				{
					"inputs": [
						{
							"internalType": "string",
							"name": "_name",
							"type": "string"
						},
						{
							"internalType": "uint256",
							"name": "_number",
							"type": "uint256"
						}
					],
					"name": "setName",
					"outputs": [],
					"stateMutability": "nonpayable",
					"type": "function"
				},
				{
					"inputs": [
						{
							"internalType": "uint256",
							"name": "_value",
							"type": "uint256"
						}
					],
					"name": "setValue",
					"outputs": [],
					"stateMutability": "nonpayable",
					"type": "function"
				}
			],
			"devdoc": {
				"kind": "dev",
				"methods": {},
				"version": 1
			},
			"evm": {
				"assembly": "    /* \"functions.sol\":60:1169  contract exampleFunctions{\r... */\n  mstore(0x40, 0x80)\n  callvalue\n  dup1\n  iszero\n  tag_1\n  jumpi\n  0x00\n  dup1\n  revert\ntag_1:\n  pop\n  dataSize(sub_0)\n  dup1\n  dataOffset(sub_0)\n  0x00\n  codecopy\n  0x00\n  return\nstop\n\nsub_0: assembly {\n        /* \"functions.sol\":60:1169  contract exampleFunctions{\r... */\n      mstore(0x40, 0x80)\n      jumpi(tag_1, lt(calldatasize, 0x04))\n      shr(0xe0, calldataload(0x00))\n      dup1\n      0x4e70b1dc\n      gt\n      tag_11\n      jumpi\n      dup1\n      0x4e70b1dc\n      eq\n      tag_6\n      jumpi\n      dup1\n      0x55241077\n      eq\n      tag_7\n      jumpi\n      dup1\n      0xc4784fd4\n      eq\n      tag_8\n      jumpi\n      dup1\n      0xe21f37ce\n      eq\n      tag_9\n      jumpi\n      dup1\n      0xf7474d00\n      eq\n      tag_10\n      jumpi\n      jump(tag_1)\n    tag_11:\n      dup1\n      0x06fdde03\n      eq\n      tag_2\n      jumpi\n      dup1\n      0x165c4a16\n      eq\n      tag_3\n      jumpi\n      dup1\n      0x20965255\n      eq\n      tag_4\n      jumpi\n      dup1\n      0x3baa8170\n      eq\n      tag_5\n      jumpi\n    tag_1:\n      0x00\n      dup1\n      revert\n        /* \"functions.sol\":150:168  string public name */\n    tag_2:\n      callvalue\n      dup1\n      iszero\n      tag_12\n      jumpi\n      0x00\n      dup1\n      revert\n    tag_12:\n      pop\n      tag_13\n      tag_14\n      jump\t// in\n    tag_13:\n      mload(0x40)\n      tag_15\n      swap2\n      swap1\n      tag_16\n      jump\t// in\n    tag_15:\n      mload(0x40)\n      dup1\n      swap2\n      sub\n      swap1\n      return\n        /* \"functions.sol\":966:1119  function multiply(uint256 x, uint256 y) external pure returns(uint256){\r... */\n    tag_3:\n      callvalue\n      dup1\n      iszero\n      tag_17\n      jumpi\n      0x00\n      dup1\n      revert\n    tag_17:\n      pop\n      tag_18\n      0x04\n      dup1\n      calldatasize\n      sub\n      dup2\n      add\n      swap1\n      tag_19\n      swap2\n      swap1\n      tag_20\n      jump\t// in\n    tag_19:\n      tag_21\n      jump\t// in\n    tag_18:\n      mload(0x40)\n      tag_22\n      swap2\n      swap1\n      tag_23\n      jump\t// in\n    tag_22:\n      mload(0x40)\n      dup1\n      swap2\n      sub\n      swap1\n      return\n        /* \"functions.sol\":876:958  function getValue() external view returns(uint256) {\r... */\n    tag_4:\n      callvalue\n      dup1\n      iszero\n      tag_24\n      jumpi\n      0x00\n      dup1\n      revert\n    tag_24:\n      pop\n      tag_25\n      tag_26\n      jump\t// in\n    tag_25:\n      mload(0x40)\n      tag_27\n      swap2\n      swap1\n      tag_23\n      jump\t// in\n    tag_27:\n      mload(0x40)\n      dup1\n      swap2\n      sub\n      swap1\n      return\n        /* \"functions.sol\":622:784  function setName(string memory _name, uint256 _number) external {\r... */\n    tag_5:\n      callvalue\n      dup1\n      iszero\n      tag_28\n      jumpi\n      0x00\n      dup1\n      revert\n    tag_28:\n      pop\n      tag_29\n      0x04\n      dup1\n      calldatasize\n      sub\n      dup2\n      add\n      swap1\n      tag_30\n      swap2\n      swap1\n      tag_31\n      jump\t// in\n    tag_30:\n      tag_32\n      jump\t// in\n    tag_29:\n      stop\n        /* \"functions.sol\":125:143  uint256 public num */\n    tag_6:\n      callvalue\n      dup1\n      iszero\n      tag_33\n      jumpi\n      0x00\n      dup1\n      revert\n    tag_33:\n      pop\n      tag_34\n      tag_35\n      jump\t// in\n    tag_34:\n      mload(0x40)\n      tag_36\n      swap2\n      swap1\n      tag_23\n      jump\t// in\n    tag_36:\n      mload(0x40)\n      dup1\n      swap2\n      sub\n      swap1\n      return\n        /* \"functions.sol\":792:868  function setValue(uint256 _value) external {\r... */\n    tag_7:\n      callvalue\n      dup1\n      iszero\n      tag_37\n      jumpi\n      0x00\n      dup1\n      revert\n    tag_37:\n      pop\n      tag_38\n      0x04\n      dup1\n      calldatasize\n      sub\n      dup2\n      add\n      swap1\n      tag_39\n      swap2\n      swap1\n      tag_40\n      jump\t// in\n    tag_39:\n      tag_41\n      jump\t// in\n    tag_38:\n      stop\n        /* \"functions.sol\":538:614  function setMsg(string memory _msg) public {\r... */\n    tag_8:\n      callvalue\n      dup1\n      iszero\n      tag_42\n      jumpi\n      0x00\n      dup1\n      revert\n    tag_42:\n      pop\n      tag_43\n      0x04\n      dup1\n      calldatasize\n      sub\n      dup2\n      add\n      swap1\n      tag_44\n      swap2\n      swap1\n      tag_45\n      jump\t// in\n    tag_44:\n      tag_46\n      jump\t// in\n    tag_43:\n      stop\n        /* \"functions.sol\":175:196  string public message */\n    tag_9:\n      callvalue\n      dup1\n      iszero\n      tag_47\n      jumpi\n      0x00\n      dup1\n      revert\n    tag_47:\n      pop\n      tag_48\n      tag_49\n      jump\t// in\n    tag_48:\n      mload(0x40)\n      tag_50\n      swap2\n      swap1\n      tag_16\n      jump\t// in\n    tag_50:\n      mload(0x40)\n      dup1\n      swap2\n      sub\n      swap1\n      return\n        /* \"functions.sol\":1127:1166  function payEther() external payable {} */\n    tag_10:\n      tag_51\n      tag_52\n      jump\t// in\n    tag_51:\n      stop\n        /* \"functions.sol\":150:168  string public name */\n    tag_14:\n      0x01\n      dup1\n      sload\n      tag_53\n      swap1\n      tag_54\n      jump\t// in\n    tag_53:\n      dup1\n      0x1f\n      add\n      0x20\n      dup1\n      swap2\n      div\n      mul\n      0x20\n      add\n      mload(0x40)\n      swap1\n      dup2\n      add\n      0x40\n      mstore\n      dup1\n      swap3\n      swap2\n      swap1\n      dup2\n      dup2\n      mstore\n      0x20\n      add\n      dup3\n      dup1\n      sload\n      tag_55\n      swap1\n      tag_54\n      jump\t// in\n    tag_55:\n      dup1\n      iszero\n      tag_56\n      jumpi\n      dup1\n      0x1f\n      lt\n      tag_57\n      jumpi\n      0x0100\n      dup1\n      dup4\n      sload\n      div\n      mul\n      dup4\n      mstore\n      swap2\n      0x20\n      add\n      swap2\n      jump(tag_56)\n    tag_57:\n      dup3\n      add\n      swap2\n      swap1\n      0x00\n      mstore\n      keccak256(0x00, 0x20)\n      swap1\n    tag_58:\n      dup2\n      sload\n      dup2\n      mstore\n      swap1\n      0x01\n      add\n      swap1\n      0x20\n      add\n      dup1\n      dup4\n      gt\n      tag_58\n      jumpi\n      dup3\n      swap1\n      sub\n      0x1f\n      and\n      dup3\n      add\n      swap2\n    tag_56:\n      pop\n      pop\n      pop\n      pop\n      pop\n      dup2\n      jump\t// out\n        /* \"functions.sol\":966:1119  function multiply(uint256 x, uint256 y) external pure returns(uint256){\r... */\n    tag_21:\n        /* \"functions.sol\":1028:1035  uint256 */\n      0x00\n        /* \"functions.sol\":1047:1070  uint256 multipliedValue */\n      dup1\n        /* \"functions.sol\":1077:1078  y */\n      dup3\n        /* \"functions.sol\":1073:1074  x */\n      dup5\n        /* \"functions.sol\":1073:1078  x * y */\n      tag_60\n      swap2\n      swap1\n      tag_61\n      jump\t// in\n    tag_60:\n        /* \"functions.sol\":1047:1078  uint256 multipliedValue = x * y */\n      swap1\n      pop\n        /* \"functions.sol\":1096:1111  multipliedValue */\n      dup1\n        /* \"functions.sol\":1089:1111  return multipliedValue */\n      swap2\n      pop\n      pop\n        /* \"functions.sol\":966:1119  function multiply(uint256 x, uint256 y) external pure returns(uint256){\r... */\n      swap3\n      swap2\n      pop\n      pop\n      jump\t// out\n        /* \"functions.sol\":876:958  function getValue() external view returns(uint256) {\r... */\n    tag_26:\n        /* \"functions.sol\":918:925  uint256 */\n      0x00\n        /* \"functions.sol\":945:950  value */\n      sload(0x03)\n        /* \"functions.sol\":938:950  return value */\n      swap1\n      pop\n        /* \"functions.sol\":876:958  function getValue() external view returns(uint256) {\r... */\n      swap1\n      jump\t// out\n        /* \"functions.sol\":622:784  function setName(string memory _name, uint256 _number) external {\r... */\n    tag_32:\n        /* \"functions.sol\":704:709  _name */\n      dup2\n        /* \"functions.sol\":697:701  name */\n      0x01\n        /* \"functions.sol\":697:709  name = _name */\n      swap1\n      dup1\n      mload\n      swap1\n      0x20\n      add\n      swap1\n      tag_64\n      swap3\n      swap2\n      swap1\n      tag_65\n      jump\t// in\n    tag_64:\n      pop\n        /* \"functions.sol\":720:736  halfNum(_number) */\n      tag_66\n        /* \"functions.sol\":728:735  _number */\n      dup2\n        /* \"functions.sol\":720:727  halfNum */\n      tag_67\n        /* \"functions.sol\":720:736  halfNum(_number) */\n      jump\t// in\n    tag_66:\n        /* \"functions.sol\":747:776  setMsg(\"Called the contract\") */\n      tag_68\n      mload(0x40)\n      dup1\n      0x40\n      add\n      0x40\n      mstore\n      dup1\n      0x13\n      dup2\n      mstore\n      0x20\n      add\n      0x43616c6c65642074686520636f6e747261637400000000000000000000000000\n      dup2\n      mstore\n      pop\n        /* \"functions.sol\":747:753  setMsg */\n      tag_46\n        /* \"functions.sol\":747:776  setMsg(\"Called the contract\") */\n      jump\t// in\n    tag_68:\n        /* \"functions.sol\":622:784  function setName(string memory _name, uint256 _number) external {\r... */\n      pop\n      pop\n      jump\t// out\n        /* \"functions.sol\":125:143  uint256 public num */\n    tag_35:\n      sload(0x00)\n      dup2\n      jump\t// out\n        /* \"functions.sol\":792:868  function setValue(uint256 _value) external {\r... */\n    tag_41:\n        /* \"functions.sol\":854:860  _value */\n      dup1\n        /* \"functions.sol\":846:851  value */\n      0x03\n        /* \"functions.sol\":846:860  value = _value */\n      dup2\n      swap1\n      sstore\n      pop\n        /* \"functions.sol\":792:868  function setValue(uint256 _value) external {\r... */\n      pop\n      jump\t// out\n        /* \"functions.sol\":538:614  function setMsg(string memory _msg) public {\r... */\n    tag_46:\n        /* \"functions.sol\":602:606  _msg */\n      dup1\n        /* \"functions.sol\":592:599  message */\n      0x02\n        /* \"functions.sol\":592:606  message = _msg */\n      swap1\n      dup1\n      mload\n      swap1\n      0x20\n      add\n      swap1\n      tag_71\n      swap3\n      swap2\n      swap1\n      tag_65\n      jump\t// in\n    tag_71:\n      pop\n        /* \"functions.sol\":538:614  function setMsg(string memory _msg) public {\r... */\n      pop\n      jump\t// out\n        /* \"functions.sol\":175:196  string public message */\n    tag_49:\n      0x02\n      dup1\n      sload\n      tag_72\n      swap1\n      tag_54\n      jump\t// in\n    tag_72:\n      dup1\n      0x1f\n      add\n      0x20\n      dup1\n      swap2\n      div\n      mul\n      0x20\n      add\n      mload(0x40)\n      swap1\n      dup2\n      add\n      0x40\n      mstore\n      dup1\n      swap3\n      swap2\n      swap1\n      dup2\n      dup2\n      mstore\n      0x20\n      add\n      dup3\n      dup1\n      sload\n      tag_73\n      swap1\n      tag_54\n      jump\t// in\n    tag_73:\n      dup1\n      iszero\n      tag_74\n      jumpi\n      dup1\n      0x1f\n      lt\n      tag_75\n      jumpi\n      0x0100\n      dup1\n      dup4\n      sload\n      div\n      mul\n      dup4\n      mstore\n      swap2\n      0x20\n      add\n      swap2\n      jump(tag_74)\n    tag_75:\n      dup3\n      add\n      swap2\n      swap1\n      0x00\n      mstore\n      keccak256(0x00, 0x20)\n      swap1\n    tag_76:\n      dup2\n      sload\n      dup2\n      mstore\n      swap1\n      0x01\n      add\n      swap1\n      0x20\n      add\n      dup1\n      dup4\n      gt\n      tag_76\n      jumpi\n      dup3\n      swap1\n      sub\n      0x1f\n      and\n      dup3\n      add\n      swap2\n    tag_74:\n      pop\n      pop\n      pop\n      pop\n      pop\n      dup2\n      jump\t// out\n        /* \"functions.sol\":1127:1166  function payEther() external payable {} */\n    tag_52:\n      jump\t// out\n        /* \"functions.sol\":353:530  function halfNum(uint256 _number) internal { // When calling it this way, it's only accessible to the contract\r... */\n    tag_67:\n        /* \"functions.sol\":474:486  uint256 half */\n      0x00\n        /* \"functions.sol\":499:500  2 */\n      0x02\n        /* \"functions.sol\":489:496  _number */\n      dup3\n        /* \"functions.sol\":489:500  _number / 2 */\n      tag_79\n      swap2\n      swap1\n      tag_80\n      jump\t// in\n    tag_79:\n        /* \"functions.sol\":474:500  uint256 half = _number / 2 */\n      swap1\n      pop\n        /* \"functions.sol\":518:522  half */\n      dup1\n        /* \"functions.sol\":512:515  num */\n      0x00\n        /* \"functions.sol\":512:522  num = half */\n      dup2\n      swap1\n      sstore\n      pop\n        /* \"functions.sol\":353:530  function halfNum(uint256 _number) internal { // When calling it this way, it's only accessible to the contract\r... */\n      pop\n      pop\n      jump\t// out\n    tag_65:\n      dup3\n      dup1\n      sload\n      tag_81\n      swap1\n      tag_54\n      jump\t// in\n    tag_81:\n      swap1\n      0x00\n      mstore\n      keccak256(0x00, 0x20)\n      swap1\n      0x1f\n      add\n      0x20\n      swap1\n      div\n      dup2\n      add\n      swap3\n      dup3\n      tag_83\n      jumpi\n      0x00\n      dup6\n      sstore\n      jump(tag_82)\n    tag_83:\n      dup3\n      0x1f\n      lt\n      tag_84\n      jumpi\n      dup1\n      mload\n      not(0xff)\n      and\n      dup4\n      dup1\n      add\n      or\n      dup6\n      sstore\n      jump(tag_82)\n    tag_84:\n      dup3\n      dup1\n      add\n      0x01\n      add\n      dup6\n      sstore\n      dup3\n      iszero\n      tag_82\n      jumpi\n      swap2\n      dup3\n      add\n    tag_85:\n      dup3\n      dup2\n      gt\n      iszero\n      tag_86\n      jumpi\n      dup3\n      mload\n      dup3\n      sstore\n      swap2\n      0x20\n      add\n      swap2\n      swap1\n      0x01\n      add\n      swap1\n      jump(tag_85)\n    tag_86:\n    tag_82:\n      pop\n      swap1\n      pop\n      tag_87\n      swap2\n      swap1\n      tag_88\n      jump\t// in\n    tag_87:\n      pop\n      swap1\n      jump\t// out\n    tag_88:\n    tag_89:\n      dup1\n      dup3\n      gt\n      iszero\n      tag_90\n      jumpi\n      0x00\n      dup2\n      0x00\n      swap1\n      sstore\n      pop\n      0x01\n      add\n      jump(tag_89)\n    tag_90:\n      pop\n      swap1\n      jump\t// out\n        /* \"#utility.yul\":7:352   */\n    tag_92:\n        /* \"#utility.yul\":85:90   */\n      0x00\n        /* \"#utility.yul\":110:176   */\n      tag_94\n        /* \"#utility.yul\":126:175   */\n      tag_95\n        /* \"#utility.yul\":168:174   */\n      dup5\n        /* \"#utility.yul\":126:175   */\n      tag_96\n      jump\t// in\n    tag_95:\n        /* \"#utility.yul\":110:176   */\n      tag_97\n      jump\t// in\n    tag_94:\n        /* \"#utility.yul\":101:176   */\n      swap1\n      pop\n        /* \"#utility.yul\":199:205   */\n      dup3\n        /* \"#utility.yul\":192:197   */\n      dup2\n        /* \"#utility.yul\":185:206   */\n      mstore\n        /* \"#utility.yul\":237:241   */\n      0x20\n        /* \"#utility.yul\":230:235   */\n      dup2\n        /* \"#utility.yul\":226:242   */\n      add\n        /* \"#utility.yul\":275:278   */\n      dup5\n        /* \"#utility.yul\":266:272   */\n      dup5\n        /* \"#utility.yul\":261:264   */\n      dup5\n        /* \"#utility.yul\":257:273   */\n      add\n        /* \"#utility.yul\":254:279   */\n      gt\n        /* \"#utility.yul\":251:253   */\n      iszero\n      tag_98\n      jumpi\n        /* \"#utility.yul\":292:293   */\n      0x00\n        /* \"#utility.yul\":289:290   */\n      dup1\n        /* \"#utility.yul\":282:294   */\n      revert\n        /* \"#utility.yul\":251:253   */\n    tag_98:\n        /* \"#utility.yul\":305:346   */\n      tag_99\n        /* \"#utility.yul\":339:345   */\n      dup5\n        /* \"#utility.yul\":334:337   */\n      dup3\n        /* \"#utility.yul\":329:332   */\n      dup6\n        /* \"#utility.yul\":305:346   */\n      tag_100\n      jump\t// in\n    tag_99:\n        /* \"#utility.yul\":91:352   */\n      pop\n      swap4\n      swap3\n      pop\n      pop\n      pop\n      jump\t// out\n        /* \"#utility.yul\":372:645   */\n    tag_101:\n        /* \"#utility.yul\":428:433   */\n      0x00\n        /* \"#utility.yul\":477:480   */\n      dup3\n        /* \"#utility.yul\":470:474   */\n      0x1f\n        /* \"#utility.yul\":462:468   */\n      dup4\n        /* \"#utility.yul\":458:475   */\n      add\n        /* \"#utility.yul\":454:481   */\n      slt\n        /* \"#utility.yul\":444:446   */\n      tag_103\n      jumpi\n        /* \"#utility.yul\":495:496   */\n      0x00\n        /* \"#utility.yul\":492:493   */\n      dup1\n        /* \"#utility.yul\":485:497   */\n      revert\n        /* \"#utility.yul\":444:446   */\n    tag_103:\n        /* \"#utility.yul\":535:541   */\n      dup2\n        /* \"#utility.yul\":522:542   */\n      calldataload\n        /* \"#utility.yul\":560:639   */\n      tag_104\n        /* \"#utility.yul\":635:638   */\n      dup5\n        /* \"#utility.yul\":627:633   */\n      dup3\n        /* \"#utility.yul\":620:624   */\n      0x20\n        /* \"#utility.yul\":612:618   */\n      dup7\n        /* \"#utility.yul\":608:625   */\n      add\n        /* \"#utility.yul\":560:639   */\n      tag_92\n      jump\t// in\n    tag_104:\n        /* \"#utility.yul\":551:639   */\n      swap2\n      pop\n        /* \"#utility.yul\":434:645   */\n      pop\n      swap3\n      swap2\n      pop\n      pop\n      jump\t// out\n        /* \"#utility.yul\":651:790   */\n    tag_105:\n        /* \"#utility.yul\":697:702   */\n      0x00\n        /* \"#utility.yul\":735:741   */\n      dup2\n        /* \"#utility.yul\":722:742   */\n      calldataload\n        /* \"#utility.yul\":713:742   */\n      swap1\n      pop\n        /* \"#utility.yul\":751:784   */\n      tag_107\n        /* \"#utility.yul\":778:783   */\n      dup2\n        /* \"#utility.yul\":751:784   */\n      tag_108\n      jump\t// in\n    tag_107:\n        /* \"#utility.yul\":703:790   */\n      swap3\n      swap2\n      pop\n      pop\n      jump\t// out\n        /* \"#utility.yul\":796:1171   */\n    tag_45:\n        /* \"#utility.yul\":865:871   */\n      0x00\n        /* \"#utility.yul\":914:916   */\n      0x20\n        /* \"#utility.yul\":902:911   */\n      dup3\n        /* \"#utility.yul\":893:900   */\n      dup5\n        /* \"#utility.yul\":889:912   */\n      sub\n        /* \"#utility.yul\":885:917   */\n      slt\n        /* \"#utility.yul\":882:884   */\n      iszero\n      tag_110\n      jumpi\n        /* \"#utility.yul\":930:931   */\n      0x00\n        /* \"#utility.yul\":927:928   */\n      dup1\n        /* \"#utility.yul\":920:932   */\n      revert\n        /* \"#utility.yul\":882:884   */\n    tag_110:\n        /* \"#utility.yul\":1001:1002   */\n      0x00\n        /* \"#utility.yul\":990:999   */\n      dup3\n        /* \"#utility.yul\":986:1003   */\n      add\n        /* \"#utility.yul\":973:1004   */\n      calldataload\n        /* \"#utility.yul\":1031:1049   */\n      0xffffffffffffffff\n        /* \"#utility.yul\":1023:1029   */\n      dup2\n        /* \"#utility.yul\":1020:1050   */\n      gt\n        /* \"#utility.yul\":1017:1019   */\n      iszero\n      tag_111\n      jumpi\n        /* \"#utility.yul\":1063:1064   */\n      0x00\n        /* \"#utility.yul\":1060:1061   */\n      dup1\n        /* \"#utility.yul\":1053:1065   */\n      revert\n        /* \"#utility.yul\":1017:1019   */\n    tag_111:\n        /* \"#utility.yul\":1091:1154   */\n      tag_112\n        /* \"#utility.yul\":1146:1153   */\n      dup5\n        /* \"#utility.yul\":1137:1143   */\n      dup3\n        /* \"#utility.yul\":1126:1135   */\n      dup6\n        /* \"#utility.yul\":1122:1144   */\n      add\n        /* \"#utility.yul\":1091:1154   */\n      tag_101\n      jump\t// in\n    tag_112:\n        /* \"#utility.yul\":1081:1154   */\n      swap2\n      pop\n        /* \"#utility.yul\":944:1164   */\n      pop\n        /* \"#utility.yul\":872:1171   */\n      swap3\n      swap2\n      pop\n      pop\n      jump\t// out\n        /* \"#utility.yul\":1177:1697   */\n    tag_31:\n        /* \"#utility.yul\":1255:1261   */\n      0x00\n        /* \"#utility.yul\":1263:1269   */\n      dup1\n        /* \"#utility.yul\":1312:1314   */\n      0x40\n        /* \"#utility.yul\":1300:1309   */\n      dup4\n        /* \"#utility.yul\":1291:1298   */\n      dup6\n        /* \"#utility.yul\":1287:1310   */\n      sub\n        /* \"#utility.yul\":1283:1315   */\n      slt\n        /* \"#utility.yul\":1280:1282   */\n      iszero\n      tag_114\n      jumpi\n        /* \"#utility.yul\":1328:1329   */\n      0x00\n        /* \"#utility.yul\":1325:1326   */\n      dup1\n        /* \"#utility.yul\":1318:1330   */\n      revert\n        /* \"#utility.yul\":1280:1282   */\n    tag_114:\n        /* \"#utility.yul\":1399:1400   */\n      0x00\n        /* \"#utility.yul\":1388:1397   */\n      dup4\n        /* \"#utility.yul\":1384:1401   */\n      add\n        /* \"#utility.yul\":1371:1402   */\n      calldataload\n        /* \"#utility.yul\":1429:1447   */\n      0xffffffffffffffff\n        /* \"#utility.yul\":1421:1427   */\n      dup2\n        /* \"#utility.yul\":1418:1448   */\n      gt\n        /* \"#utility.yul\":1415:1417   */\n      iszero\n      tag_115\n      jumpi\n        /* \"#utility.yul\":1461:1462   */\n      0x00\n        /* \"#utility.yul\":1458:1459   */\n      dup1\n        /* \"#utility.yul\":1451:1463   */\n      revert\n        /* \"#utility.yul\":1415:1417   */\n    tag_115:\n        /* \"#utility.yul\":1489:1552   */\n      tag_116\n        /* \"#utility.yul\":1544:1551   */\n      dup6\n        /* \"#utility.yul\":1535:1541   */\n      dup3\n        /* \"#utility.yul\":1524:1533   */\n      dup7\n        /* \"#utility.yul\":1520:1542   */\n      add\n        /* \"#utility.yul\":1489:1552   */\n      tag_101\n      jump\t// in\n    tag_116:\n        /* \"#utility.yul\":1479:1552   */\n      swap3\n      pop\n        /* \"#utility.yul\":1342:1562   */\n      pop\n        /* \"#utility.yul\":1601:1603   */\n      0x20\n        /* \"#utility.yul\":1627:1680   */\n      tag_117\n        /* \"#utility.yul\":1672:1679   */\n      dup6\n        /* \"#utility.yul\":1663:1669   */\n      dup3\n        /* \"#utility.yul\":1652:1661   */\n      dup7\n        /* \"#utility.yul\":1648:1670   */\n      add\n        /* \"#utility.yul\":1627:1680   */\n      tag_105\n      jump\t// in\n    tag_117:\n        /* \"#utility.yul\":1617:1680   */\n      swap2\n      pop\n        /* \"#utility.yul\":1572:1690   */\n      pop\n        /* \"#utility.yul\":1270:1697   */\n      swap3\n      pop\n      swap3\n      swap1\n      pop\n      jump\t// out\n        /* \"#utility.yul\":1703:1965   */\n    tag_40:\n        /* \"#utility.yul\":1762:1768   */\n      0x00\n        /* \"#utility.yul\":1811:1813   */\n      0x20\n        /* \"#utility.yul\":1799:1808   */\n      dup3\n        /* \"#utility.yul\":1790:1797   */\n      dup5\n        /* \"#utility.yul\":1786:1809   */\n      sub\n        /* \"#utility.yul\":1782:1814   */\n      slt\n        /* \"#utility.yul\":1779:1781   */\n      iszero\n      tag_119\n      jumpi\n        /* \"#utility.yul\":1827:1828   */\n      0x00\n        /* \"#utility.yul\":1824:1825   */\n      dup1\n        /* \"#utility.yul\":1817:1829   */\n      revert\n        /* \"#utility.yul\":1779:1781   */\n    tag_119:\n        /* \"#utility.yul\":1870:1871   */\n      0x00\n        /* \"#utility.yul\":1895:1948   */\n      tag_120\n        /* \"#utility.yul\":1940:1947   */\n      dup5\n        /* \"#utility.yul\":1931:1937   */\n      dup3\n        /* \"#utility.yul\":1920:1929   */\n      dup6\n        /* \"#utility.yul\":1916:1938   */\n      add\n        /* \"#utility.yul\":1895:1948   */\n      tag_105\n      jump\t// in\n    tag_120:\n        /* \"#utility.yul\":1885:1948   */\n      swap2\n      pop\n        /* \"#utility.yul\":1841:1958   */\n      pop\n        /* \"#utility.yul\":1769:1965   */\n      swap3\n      swap2\n      pop\n      pop\n      jump\t// out\n        /* \"#utility.yul\":1971:2378   */\n    tag_20:\n        /* \"#utility.yul\":2039:2045   */\n      0x00\n        /* \"#utility.yul\":2047:2053   */\n      dup1\n        /* \"#utility.yul\":2096:2098   */\n      0x40\n        /* \"#utility.yul\":2084:2093   */\n      dup4\n        /* \"#utility.yul\":2075:2082   */\n      dup6\n        /* \"#utility.yul\":2071:2094   */\n      sub\n        /* \"#utility.yul\":2067:2099   */\n      slt\n        /* \"#utility.yul\":2064:2066   */\n      iszero\n      tag_122\n      jumpi\n        /* \"#utility.yul\":2112:2113   */\n      0x00\n        /* \"#utility.yul\":2109:2110   */\n      dup1\n        /* \"#utility.yul\":2102:2114   */\n      revert\n        /* \"#utility.yul\":2064:2066   */\n    tag_122:\n        /* \"#utility.yul\":2155:2156   */\n      0x00\n        /* \"#utility.yul\":2180:2233   */\n      tag_123\n        /* \"#utility.yul\":2225:2232   */\n      dup6\n        /* \"#utility.yul\":2216:2222   */\n      dup3\n        /* \"#utility.yul\":2205:2214   */\n      dup7\n        /* \"#utility.yul\":2201:2223   */\n      add\n        /* \"#utility.yul\":2180:2233   */\n      tag_105\n      jump\t// in\n    tag_123:\n        /* \"#utility.yul\":2170:2233   */\n      swap3\n      pop\n        /* \"#utility.yul\":2126:2243   */\n      pop\n        /* \"#utility.yul\":2282:2284   */\n      0x20\n        /* \"#utility.yul\":2308:2361   */\n      tag_124\n        /* \"#utility.yul\":2353:2360   */\n      dup6\n        /* \"#utility.yul\":2344:2350   */\n      dup3\n        /* \"#utility.yul\":2333:2342   */\n      dup7\n        /* \"#utility.yul\":2329:2351   */\n      add\n        /* \"#utility.yul\":2308:2361   */\n      tag_105\n      jump\t// in\n    tag_124:\n        /* \"#utility.yul\":2298:2361   */\n      swap2\n      pop\n        /* \"#utility.yul\":2253:2371   */\n      pop\n        /* \"#utility.yul\":2054:2378   */\n      swap3\n      pop\n      swap3\n      swap1\n      pop\n      jump\t// out\n        /* \"#utility.yul\":2384:2748   */\n    tag_125:\n        /* \"#utility.yul\":2472:2475   */\n      0x00\n        /* \"#utility.yul\":2500:2539   */\n      tag_127\n        /* \"#utility.yul\":2533:2538   */\n      dup3\n        /* \"#utility.yul\":2500:2539   */\n      tag_128\n      jump\t// in\n    tag_127:\n        /* \"#utility.yul\":2555:2626   */\n      tag_129\n        /* \"#utility.yul\":2619:2625   */\n      dup2\n        /* \"#utility.yul\":2614:2617   */\n      dup6\n        /* \"#utility.yul\":2555:2626   */\n      tag_130\n      jump\t// in\n    tag_129:\n        /* \"#utility.yul\":2548:2626   */\n      swap4\n      pop\n        /* \"#utility.yul\":2635:2687   */\n      tag_131\n        /* \"#utility.yul\":2680:2686   */\n      dup2\n        /* \"#utility.yul\":2675:2678   */\n      dup6\n        /* \"#utility.yul\":2668:2672   */\n      0x20\n        /* \"#utility.yul\":2661:2666   */\n      dup7\n        /* \"#utility.yul\":2657:2673   */\n      add\n        /* \"#utility.yul\":2635:2687   */\n      tag_132\n      jump\t// in\n    tag_131:\n        /* \"#utility.yul\":2712:2741   */\n      tag_133\n        /* \"#utility.yul\":2734:2740   */\n      dup2\n        /* \"#utility.yul\":2712:2741   */\n      tag_134\n      jump\t// in\n    tag_133:\n        /* \"#utility.yul\":2707:2710   */\n      dup5\n        /* \"#utility.yul\":2703:2742   */\n      add\n        /* \"#utility.yul\":2696:2742   */\n      swap2\n      pop\n        /* \"#utility.yul\":2476:2748   */\n      pop\n      swap3\n      swap2\n      pop\n      pop\n      jump\t// out\n        /* \"#utility.yul\":2754:2872   */\n    tag_135:\n        /* \"#utility.yul\":2841:2865   */\n      tag_137\n        /* \"#utility.yul\":2859:2864   */\n      dup2\n        /* \"#utility.yul\":2841:2865   */\n      tag_138\n      jump\t// in\n    tag_137:\n        /* \"#utility.yul\":2836:2839   */\n      dup3\n        /* \"#utility.yul\":2829:2866   */\n      mstore\n        /* \"#utility.yul\":2819:2872   */\n      pop\n      pop\n      jump\t// out\n        /* \"#utility.yul\":2878:3191   */\n    tag_16:\n        /* \"#utility.yul\":2991:2995   */\n      0x00\n        /* \"#utility.yul\":3029:3031   */\n      0x20\n        /* \"#utility.yul\":3018:3027   */\n      dup3\n        /* \"#utility.yul\":3014:3032   */\n      add\n        /* \"#utility.yul\":3006:3032   */\n      swap1\n      pop\n        /* \"#utility.yul\":3078:3087   */\n      dup2\n        /* \"#utility.yul\":3072:3076   */\n      dup2\n        /* \"#utility.yul\":3068:3088   */\n      sub\n        /* \"#utility.yul\":3064:3065   */\n      0x00\n        /* \"#utility.yul\":3053:3062   */\n      dup4\n        /* \"#utility.yul\":3049:3066   */\n      add\n        /* \"#utility.yul\":3042:3089   */\n      mstore\n        /* \"#utility.yul\":3106:3184   */\n      tag_140\n        /* \"#utility.yul\":3179:3183   */\n      dup2\n        /* \"#utility.yul\":3170:3176   */\n      dup5\n        /* \"#utility.yul\":3106:3184   */\n      tag_125\n      jump\t// in\n    tag_140:\n        /* \"#utility.yul\":3098:3184   */\n      swap1\n      pop\n        /* \"#utility.yul\":2996:3191   */\n      swap3\n      swap2\n      pop\n      pop\n      jump\t// out\n        /* \"#utility.yul\":3197:3419   */\n    tag_23:\n        /* \"#utility.yul\":3290:3294   */\n      0x00\n        /* \"#utility.yul\":3328:3330   */\n      0x20\n        /* \"#utility.yul\":3317:3326   */\n      dup3\n        /* \"#utility.yul\":3313:3331   */\n      add\n        /* \"#utility.yul\":3305:3331   */\n      swap1\n      pop\n        /* \"#utility.yul\":3341:3412   */\n      tag_142\n        /* \"#utility.yul\":3409:3410   */\n      0x00\n        /* \"#utility.yul\":3398:3407   */\n      dup4\n        /* \"#utility.yul\":3394:3411   */\n      add\n        /* \"#utility.yul\":3385:3391   */\n      dup5\n        /* \"#utility.yul\":3341:3412   */\n      tag_135\n      jump\t// in\n    tag_142:\n        /* \"#utility.yul\":3295:3419   */\n      swap3\n      swap2\n      pop\n      pop\n      jump\t// out\n        /* \"#utility.yul\":3425:3554   */\n    tag_97:\n        /* \"#utility.yul\":3459:3465   */\n      0x00\n        /* \"#utility.yul\":3486:3506   */\n      tag_144\n      tag_145\n      jump\t// in\n    tag_144:\n        /* \"#utility.yul\":3476:3506   */\n      swap1\n      pop\n        /* \"#utility.yul\":3515:3548   */\n      tag_146\n        /* \"#utility.yul\":3543:3547   */\n      dup3\n        /* \"#utility.yul\":3535:3541   */\n      dup3\n        /* \"#utility.yul\":3515:3548   */\n      tag_147\n      jump\t// in\n    tag_146:\n        /* \"#utility.yul\":3466:3554   */\n      swap2\n      swap1\n      pop\n      jump\t// out\n        /* \"#utility.yul\":3560:3635   */\n    tag_145:\n        /* \"#utility.yul\":3593:3599   */\n      0x00\n        /* \"#utility.yul\":3626:3628   */\n      0x40\n        /* \"#utility.yul\":3620:3629   */\n      mload\n        /* \"#utility.yul\":3610:3629   */\n      swap1\n      pop\n        /* \"#utility.yul\":3600:3635   */\n      swap1\n      jump\t// out\n        /* \"#utility.yul\":3641:3949   */\n    tag_96:\n        /* \"#utility.yul\":3703:3707   */\n      0x00\n        /* \"#utility.yul\":3793:3811   */\n      0xffffffffffffffff\n        /* \"#utility.yul\":3785:3791   */\n      dup3\n        /* \"#utility.yul\":3782:3812   */\n      gt\n        /* \"#utility.yul\":3779:3781   */\n      iszero\n      tag_150\n      jumpi\n        /* \"#utility.yul\":3815:3833   */\n      tag_151\n      tag_152\n      jump\t// in\n    tag_151:\n        /* \"#utility.yul\":3779:3781   */\n    tag_150:\n        /* \"#utility.yul\":3853:3882   */\n      tag_153\n        /* \"#utility.yul\":3875:3881   */\n      dup3\n        /* \"#utility.yul\":3853:3882   */\n      tag_134\n      jump\t// in\n    tag_153:\n        /* \"#utility.yul\":3845:3882   */\n      swap1\n      pop\n        /* \"#utility.yul\":3937:3941   */\n      0x20\n        /* \"#utility.yul\":3931:3935   */\n      dup2\n        /* \"#utility.yul\":3927:3942   */\n      add\n        /* \"#utility.yul\":3919:3942   */\n      swap1\n      pop\n        /* \"#utility.yul\":3708:3949   */\n      swap2\n      swap1\n      pop\n      jump\t// out\n        /* \"#utility.yul\":3955:4054   */\n    tag_128:\n        /* \"#utility.yul\":4007:4013   */\n      0x00\n        /* \"#utility.yul\":4041:4046   */\n      dup2\n        /* \"#utility.yul\":4035:4047   */\n      mload\n        /* \"#utility.yul\":4025:4047   */\n      swap1\n      pop\n        /* \"#utility.yul\":4014:4054   */\n      swap2\n      swap1\n      pop\n      jump\t// out\n        /* \"#utility.yul\":4060:4229   */\n    tag_130:\n        /* \"#utility.yul\":4144:4155   */\n      0x00\n        /* \"#utility.yul\":4178:4184   */\n      dup3\n        /* \"#utility.yul\":4173:4176   */\n      dup3\n        /* \"#utility.yul\":4166:4185   */\n      mstore\n        /* \"#utility.yul\":4218:4222   */\n      0x20\n        /* \"#utility.yul\":4213:4216   */\n      dup3\n        /* \"#utility.yul\":4209:4223   */\n      add\n        /* \"#utility.yul\":4194:4223   */\n      swap1\n      pop\n        /* \"#utility.yul\":4156:4229   */\n      swap3\n      swap2\n      pop\n      pop\n      jump\t// out\n        /* \"#utility.yul\":4235:4420   */\n    tag_80:\n        /* \"#utility.yul\":4275:4276   */\n      0x00\n        /* \"#utility.yul\":4292:4312   */\n      tag_157\n        /* \"#utility.yul\":4310:4311   */\n      dup3\n        /* \"#utility.yul\":4292:4312   */\n      tag_138\n      jump\t// in\n    tag_157:\n        /* \"#utility.yul\":4287:4312   */\n      swap2\n      pop\n        /* \"#utility.yul\":4326:4346   */\n      tag_158\n        /* \"#utility.yul\":4344:4345   */\n      dup4\n        /* \"#utility.yul\":4326:4346   */\n      tag_138\n      jump\t// in\n    tag_158:\n        /* \"#utility.yul\":4321:4346   */\n      swap3\n      pop\n        /* \"#utility.yul\":4365:4366   */\n      dup3\n        /* \"#utility.yul\":4355:4357   */\n      tag_159\n      jumpi\n        /* \"#utility.yul\":4370:4388   */\n      tag_160\n      tag_161\n      jump\t// in\n    tag_160:\n        /* \"#utility.yul\":4355:4357   */\n    tag_159:\n        /* \"#utility.yul\":4412:4413   */\n      dup3\n        /* \"#utility.yul\":4409:4410   */\n      dup3\n        /* \"#utility.yul\":4405:4414   */\n      div\n        /* \"#utility.yul\":4400:4414   */\n      swap1\n      pop\n        /* \"#utility.yul\":4277:4420   */\n      swap3\n      swap2\n      pop\n      pop\n      jump\t// out\n        /* \"#utility.yul\":4426:4774   */\n    tag_61:\n        /* \"#utility.yul\":4466:4473   */\n      0x00\n        /* \"#utility.yul\":4489:4509   */\n      tag_163\n        /* \"#utility.yul\":4507:4508   */\n      dup3\n        /* \"#utility.yul\":4489:4509   */\n      tag_138\n      jump\t// in\n    tag_163:\n        /* \"#utility.yul\":4484:4509   */\n      swap2\n      pop\n        /* \"#utility.yul\":4523:4543   */\n      tag_164\n        /* \"#utility.yul\":4541:4542   */\n      dup4\n        /* \"#utility.yul\":4523:4543   */\n      tag_138\n      jump\t// in\n    tag_164:\n        /* \"#utility.yul\":4518:4543   */\n      swap3\n      pop\n        /* \"#utility.yul\":4711:4712   */\n      dup2\n        /* \"#utility.yul\":4643:4709   */\n      0xffffffffffffffffffffffffffffffffffffffffffffffffffffffffffffffff\n        /* \"#utility.yul\":4639:4713   */\n      div\n        /* \"#utility.yul\":4636:4637   */\n      dup4\n        /* \"#utility.yul\":4633:4714   */\n      gt\n        /* \"#utility.yul\":4628:4629   */\n      dup3\n        /* \"#utility.yul\":4621:4630   */\n      iszero\n        /* \"#utility.yul\":4614:4631   */\n      iszero\n        /* \"#utility.yul\":4610:4715   */\n      and\n        /* \"#utility.yul\":4607:4609   */\n      iszero\n      tag_165\n      jumpi\n        /* \"#utility.yul\":4718:4736   */\n      tag_166\n      tag_167\n      jump\t// in\n    tag_166:\n        /* \"#utility.yul\":4607:4609   */\n    tag_165:\n        /* \"#utility.yul\":4766:4767   */\n      dup3\n        /* \"#utility.yul\":4763:4764   */\n      dup3\n        /* \"#utility.yul\":4759:4768   */\n      mul\n        /* \"#utility.yul\":4748:4768   */\n      swap1\n      pop\n        /* \"#utility.yul\":4474:4774   */\n      swap3\n      swap2\n      pop\n      pop\n      jump\t// out\n        /* \"#utility.yul\":4780:4857   */\n    tag_138:\n        /* \"#utility.yul\":4817:4824   */\n      0x00\n        /* \"#utility.yul\":4846:4851   */\n      dup2\n        /* \"#utility.yul\":4835:4851   */\n      swap1\n      pop\n        /* \"#utility.yul\":4825:4857   */\n      swap2\n      swap1\n      pop\n      jump\t// out\n        /* \"#utility.yul\":4863:5017   */\n    tag_100:\n        /* \"#utility.yul\":4947:4953   */\n      dup3\n        /* \"#utility.yul\":4942:4945   */\n      dup2\n        /* \"#utility.yul\":4937:4940   */\n      dup4\n        /* \"#utility.yul\":4924:4954   */\n      calldatacopy\n        /* \"#utility.yul\":5009:5010   */\n      0x00\n        /* \"#utility.yul\":5000:5006   */\n      dup4\n        /* \"#utility.yul\":4995:4998   */\n      dup4\n        /* \"#utility.yul\":4991:5007   */\n      add\n        /* \"#utility.yul\":4984:5011   */\n      mstore\n        /* \"#utility.yul\":4914:5017   */\n      pop\n      pop\n      pop\n      jump\t// out\n        /* \"#utility.yul\":5023:5330   */\n    tag_132:\n        /* \"#utility.yul\":5091:5092   */\n      0x00\n        /* \"#utility.yul\":5101:5214   */\n    tag_171:\n        /* \"#utility.yul\":5115:5121   */\n      dup4\n        /* \"#utility.yul\":5112:5113   */\n      dup2\n        /* \"#utility.yul\":5109:5122   */\n      lt\n        /* \"#utility.yul\":5101:5214   */\n      iszero\n      tag_173\n      jumpi\n        /* \"#utility.yul\":5200:5201   */\n      dup1\n        /* \"#utility.yul\":5195:5198   */\n      dup3\n        /* \"#utility.yul\":5191:5202   */\n      add\n        /* \"#utility.yul\":5185:5203   */\n      mload\n        /* \"#utility.yul\":5181:5182   */\n      dup2\n        /* \"#utility.yul\":5176:5179   */\n      dup5\n        /* \"#utility.yul\":5172:5183   */\n      add\n        /* \"#utility.yul\":5165:5204   */\n      mstore\n        /* \"#utility.yul\":5137:5139   */\n      0x20\n        /* \"#utility.yul\":5134:5135   */\n      dup2\n        /* \"#utility.yul\":5130:5140   */\n      add\n        /* \"#utility.yul\":5125:5140   */\n      swap1\n      pop\n        /* \"#utility.yul\":5101:5214   */\n      jump(tag_171)\n    tag_173:\n        /* \"#utility.yul\":5232:5238   */\n      dup4\n        /* \"#utility.yul\":5229:5230   */\n      dup2\n        /* \"#utility.yul\":5226:5239   */\n      gt\n        /* \"#utility.yul\":5223:5225   */\n      iszero\n      tag_174\n      jumpi\n        /* \"#utility.yul\":5312:5313   */\n      0x00\n        /* \"#utility.yul\":5303:5309   */\n      dup5\n        /* \"#utility.yul\":5298:5301   */\n      dup5\n        /* \"#utility.yul\":5294:5310   */\n      add\n        /* \"#utility.yul\":5287:5314   */\n      mstore\n        /* \"#utility.yul\":5223:5225   */\n    tag_174:\n        /* \"#utility.yul\":5072:5330   */\n      pop\n      pop\n      pop\n      pop\n      jump\t// out\n        /* \"#utility.yul\":5336:5656   */\n    tag_54:\n        /* \"#utility.yul\":5380:5386   */\n      0x00\n        /* \"#utility.yul\":5417:5418   */\n      0x02\n        /* \"#utility.yul\":5411:5415   */\n      dup3\n        /* \"#utility.yul\":5407:5419   */\n      div\n        /* \"#utility.yul\":5397:5419   */\n      swap1\n      pop\n        /* \"#utility.yul\":5464:5465   */\n      0x01\n        /* \"#utility.yul\":5458:5462   */\n      dup3\n        /* \"#utility.yul\":5454:5466   */\n      and\n        /* \"#utility.yul\":5485:5503   */\n      dup1\n        /* \"#utility.yul\":5475:5477   */\n      tag_176\n      jumpi\n        /* \"#utility.yul\":5541:5545   */\n      0x7f\n        /* \"#utility.yul\":5533:5539   */\n      dup3\n        /* \"#utility.yul\":5529:5546   */\n      and\n        /* \"#utility.yul\":5519:5546   */\n      swap2\n      pop\n        /* \"#utility.yul\":5475:5477   */\n    tag_176:\n        /* \"#utility.yul\":5603:5605   */\n      0x20\n        /* \"#utility.yul\":5595:5601   */\n      dup3\n        /* \"#utility.yul\":5592:5606   */\n      lt\n        /* \"#utility.yul\":5572:5590   */\n      dup2\n        /* \"#utility.yul\":5569:5607   */\n      eq\n        /* \"#utility.yul\":5566:5568   */\n      iszero\n      tag_177\n      jumpi\n        /* \"#utility.yul\":5622:5640   */\n      tag_178\n      tag_179\n      jump\t// in\n    tag_178:\n        /* \"#utility.yul\":5566:5568   */\n    tag_177:\n        /* \"#utility.yul\":5387:5656   */\n      pop\n      swap2\n      swap1\n      pop\n      jump\t// out\n        /* \"#utility.yul\":5662:5943   */\n    tag_147:\n        /* \"#utility.yul\":5745:5772   */\n      tag_181\n        /* \"#utility.yul\":5767:5771   */\n      dup3\n        /* \"#utility.yul\":5745:5772   */\n      tag_134\n      jump\t// in\n    tag_181:\n        /* \"#utility.yul\":5737:5743   */\n      dup2\n        /* \"#utility.yul\":5733:5773   */\n      add\n        /* \"#utility.yul\":5875:5881   */\n      dup2\n        /* \"#utility.yul\":5863:5873   */\n      dup2\n        /* \"#utility.yul\":5860:5882   */\n      lt\n        /* \"#utility.yul\":5839:5857   */\n      0xffffffffffffffff\n        /* \"#utility.yul\":5827:5837   */\n      dup3\n        /* \"#utility.yul\":5824:5858   */\n      gt\n        /* \"#utility.yul\":5821:5883   */\n      or\n        /* \"#utility.yul\":5818:5820   */\n      iszero\n      tag_182\n      jumpi\n        /* \"#utility.yul\":5886:5904   */\n      tag_183\n      tag_152\n      jump\t// in\n    tag_183:\n        /* \"#utility.yul\":5818:5820   */\n    tag_182:\n        /* \"#utility.yul\":5926:5936   */\n      dup1\n        /* \"#utility.yul\":5922:5924   */\n      0x40\n        /* \"#utility.yul\":5915:5937   */\n      mstore\n        /* \"#utility.yul\":5705:5943   */\n      pop\n      pop\n      pop\n      jump\t// out\n        /* \"#utility.yul\":5949:6129   */\n    tag_167:\n        /* \"#utility.yul\":5997:6074   */\n      0x4e487b7100000000000000000000000000000000000000000000000000000000\n        /* \"#utility.yul\":5994:5995   */\n      0x00\n        /* \"#utility.yul\":5987:6075   */\n      mstore\n        /* \"#utility.yul\":6094:6098   */\n      0x11\n        /* \"#utility.yul\":6091:6092   */\n      0x04\n        /* \"#utility.yul\":6084:6099   */\n      mstore\n        /* \"#utility.yul\":6118:6122   */\n      0x24\n        /* \"#utility.yul\":6115:6116   */\n      0x00\n        /* \"#utility.yul\":6108:6123   */\n      revert\n        /* \"#utility.yul\":6135:6315   */\n    tag_161:\n        /* \"#utility.yul\":6183:6260   */\n      0x4e487b7100000000000000000000000000000000000000000000000000000000\n        /* \"#utility.yul\":6180:6181   */\n      0x00\n        /* \"#utility.yul\":6173:6261   */\n      mstore\n        /* \"#utility.yul\":6280:6284   */\n      0x12\n        /* \"#utility.yul\":6277:6278   */\n      0x04\n        /* \"#utility.yul\":6270:6285   */\n      mstore\n        /* \"#utility.yul\":6304:6308   */\n      0x24\n        /* \"#utility.yul\":6301:6302   */\n      0x00\n        /* \"#utility.yul\":6294:6309   */\n      revert\n        /* \"#utility.yul\":6321:6501   */\n    tag_179:\n        /* \"#utility.yul\":6369:6446   */\n      0x4e487b7100000000000000000000000000000000000000000000000000000000\n        /* \"#utility.yul\":6366:6367   */\n      0x00\n        /* \"#utility.yul\":6359:6447   */\n      mstore\n        /* \"#utility.yul\":6466:6470   */\n      0x22\n        /* \"#utility.yul\":6463:6464   */\n      0x04\n        /* \"#utility.yul\":6456:6471   */\n      mstore\n        /* \"#utility.yul\":6490:6494   */\n      0x24\n        /* \"#utility.yul\":6487:6488   */\n      0x00\n        /* \"#utility.yul\":6480:6495   */\n      revert\n        /* \"#utility.yul\":6507:6687   */\n    tag_152:\n        /* \"#utility.yul\":6555:6632   */\n      0x4e487b7100000000000000000000000000000000000000000000000000000000\n        /* \"#utility.yul\":6552:6553   */\n      0x00\n        /* \"#utility.yul\":6545:6633   */\n      mstore\n        /* \"#utility.yul\":6652:6656   */\n      0x41\n        /* \"#utility.yul\":6649:6650   */\n      0x04\n        /* \"#utility.yul\":6642:6657   */\n      mstore\n        /* \"#utility.yul\":6676:6680   */\n      0x24\n        /* \"#utility.yul\":6673:6674   */\n      0x00\n        /* \"#utility.yul\":6666:6681   */\n      revert\n        /* \"#utility.yul\":6693:6795   */\n    tag_134:\n        /* \"#utility.yul\":6734:6740   */\n      0x00\n        /* \"#utility.yul\":6785:6787   */\n      0x1f\n        /* \"#utility.yul\":6781:6788   */\n      not\n        /* \"#utility.yul\":6776:6778   */\n      0x1f\n        /* \"#utility.yul\":6769:6774   */\n      dup4\n        /* \"#utility.yul\":6765:6779   */\n      add\n        /* \"#utility.yul\":6761:6789   */\n      and\n        /* \"#utility.yul\":6751:6789   */\n      swap1\n      pop\n        /* \"#utility.yul\":6741:6795   */\n      swap2\n      swap1\n      pop\n      jump\t// out\n        /* \"#utility.yul\":6801:6923   */\n    tag_108:\n        /* \"#utility.yul\":6874:6898   */\n      tag_190\n        /* \"#utility.yul\":6892:6897   */\n      dup2\n        /* \"#utility.yul\":6874:6898   */\n      tag_138\n      jump\t// in\n    tag_190:\n        /* \"#utility.yul\":6867:6872   */\n      dup2\n        /* \"#utility.yul\":6864:6899   */\n      eq\n        /* \"#utility.yul\":6854:6856   */\n      tag_191\n      jumpi\n        /* \"#utility.yul\":6913:6914   */\n      0x00\n        /* \"#utility.yul\":6910:6911   */\n      dup1\n        /* \"#utility.yul\":6903:6915   */\n      revert\n        /* \"#utility.yul\":6854:6856   */\n    tag_191:\n        /* \"#utility.yul\":6844:6923   */\n      pop\n      jump\t// out\n\n    auxdata: 0xa26469706673582212200617a1de89311346b101b67f02122d82509900d8d3509a2127d3eb99ba4fef8464736f6c63430008040033\n}\n",
				"bytecode": {
					"linkReferences": {},
					"object": "608060405234801561001057600080fd5b50610949806100206000396000f3fe6080604052600436106100865760003560e01c80634e70b1dc116100595780634e70b1dc146101475780635524107714610172578063c4784fd41461019b578063e21f37ce146101c4578063f7474d00146101ef57610086565b806306fdde031461008b578063165c4a16146100b657806320965255146100f35780633baa81701461011e575b600080fd5b34801561009757600080fd5b506100a06101f9565b6040516100ad9190610646565b60405180910390f35b3480156100c257600080fd5b506100dd60048036038101906100d891906105c2565b610287565b6040516100ea9190610668565b60405180910390f35b3480156100ff57600080fd5b506101086102a2565b6040516101159190610668565b60405180910390f35b34801561012a57600080fd5b5061014560048036038101906101409190610545565b6102ac565b005b34801561015357600080fd5b5061015c61030e565b6040516101699190610668565b60405180910390f35b34801561017e57600080fd5b5061019960048036038101906101949190610599565b610314565b005b3480156101a757600080fd5b506101c260048036038101906101bd9190610504565b61031e565b005b3480156101d057600080fd5b506101d9610338565b6040516101e69190610646565b60405180910390f35b6101f76103c6565b005b60018054610206906107cc565b80601f0160208091040260200160405190810160405280929190818152602001828054610232906107cc565b801561027f5780601f106102545761010080835404028352916020019161027f565b820191906000526020600020905b81548152906001019060200180831161026257829003601f168201915b505050505081565b60008082846102969190610726565b90508091505092915050565b6000600354905090565b81600190805190602001906102c29291906103e4565b506102cc816103c8565b61030a6040518060400160405280601381526020017f43616c6c65642074686520636f6e74726163740000000000000000000000000081525061031e565b5050565b60005481565b8060038190555050565b80600290805190602001906103349291906103e4565b5050565b60028054610345906107cc565b80601f0160208091040260200160405190810160405280929190818152602001828054610371906107cc565b80156103be5780601f10610393576101008083540402835291602001916103be565b820191906000526020600020905b8154815290600101906020018083116103a157829003601f168201915b505050505081565b565b60006002826103d791906106f5565b9050806000819055505050565b8280546103f0906107cc565b90600052602060002090601f0160209004810192826104125760008555610459565b82601f1061042b57805160ff1916838001178555610459565b82800160010185558215610459579182015b8281111561045857825182559160200191906001019061043d565b5b509050610466919061046a565b5090565b5b8082111561048357600081600090555060010161046b565b5090565b600061049a610495846106a8565b610683565b9050828152602081018484840111156104b257600080fd5b6104bd84828561078a565b509392505050565b600082601f8301126104d657600080fd5b81356104e6848260208601610487565b91505092915050565b6000813590506104fe816108fc565b92915050565b60006020828403121561051657600080fd5b600082013567ffffffffffffffff81111561053057600080fd5b61053c848285016104c5565b91505092915050565b6000806040838503121561055857600080fd5b600083013567ffffffffffffffff81111561057257600080fd5b61057e858286016104c5565b925050602061058f858286016104ef565b9150509250929050565b6000602082840312156105ab57600080fd5b60006105b9848285016104ef565b91505092915050565b600080604083850312156105d557600080fd5b60006105e3858286016104ef565b92505060206105f4858286016104ef565b9150509250929050565b6000610609826106d9565b61061381856106e4565b9350610623818560208601610799565b61062c816108eb565b840191505092915050565b61064081610780565b82525050565b6000602082019050818103600083015261066081846105fe565b905092915050565b600060208201905061067d6000830184610637565b92915050565b600061068d61069e565b905061069982826107fe565b919050565b6000604051905090565b600067ffffffffffffffff8211156106c3576106c26108bc565b5b6106cc826108eb565b9050602081019050919050565b600081519050919050565b600082825260208201905092915050565b600061070082610780565b915061070b83610780565b92508261071b5761071a61085e565b5b828204905092915050565b600061073182610780565b915061073c83610780565b9250817fffffffffffffffffffffffffffffffffffffffffffffffffffffffffffffffff04831182151516156107755761077461082f565b5b828202905092915050565b6000819050919050565b82818337600083830152505050565b60005b838110156107b757808201518184015260208101905061079c565b838111156107c6576000848401525b50505050565b600060028204905060018216806107e457607f821691505b602082108114156107f8576107f761088d565b5b50919050565b610807826108eb565b810181811067ffffffffffffffff82111715610826576108256108bc565b5b80604052505050565b7f4e487b7100000000000000000000000000000000000000000000000000000000600052601160045260246000fd5b7f4e487b7100000000000000000000000000000000000000000000000000000000600052601260045260246000fd5b7f4e487b7100000000000000000000000000000000000000000000000000000000600052602260045260246000fd5b7f4e487b7100000000000000000000000000000000000000000000000000000000600052604160045260246000fd5b6000601f19601f8301169050919050565b61090581610780565b811461091057600080fd5b5056fea26469706673582212200617a1de89311346b101b67f02122d82509900d8d3509a2127d3eb99ba4fef8464736f6c63430008040033",
					"opcodes": "PUSH1 0x80 PUSH1 0x40 MSTORE CALLVALUE DUP1 ISZERO PUSH2 0x10 JUMPI PUSH1 0x0 DUP1 REVERT JUMPDEST POP PUSH2 0x949 DUP1 PUSH2 0x20 PUSH1 0x0 CODECOPY PUSH1 0x0 RETURN INVALID PUSH1 0x80 PUSH1 0x40 MSTORE PUSH1 0x4 CALLDATASIZE LT PUSH2 0x86 JUMPI PUSH1 0x0 CALLDATALOAD PUSH1 0xE0 SHR DUP1 PUSH4 0x4E70B1DC GT PUSH2 0x59 JUMPI DUP1 PUSH4 0x4E70B1DC EQ PUSH2 0x147 JUMPI DUP1 PUSH4 0x55241077 EQ PUSH2 0x172 JUMPI DUP1 PUSH4 0xC4784FD4 EQ PUSH2 0x19B JUMPI DUP1 PUSH4 0xE21F37CE EQ PUSH2 0x1C4 JUMPI DUP1 PUSH4 0xF7474D00 EQ PUSH2 0x1EF JUMPI PUSH2 0x86 JUMP JUMPDEST DUP1 PUSH4 0x6FDDE03 EQ PUSH2 0x8B JUMPI DUP1 PUSH4 0x165C4A16 EQ PUSH2 0xB6 JUMPI DUP1 PUSH4 0x20965255 EQ PUSH2 0xF3 JUMPI DUP1 PUSH4 0x3BAA8170 EQ PUSH2 0x11E JUMPI JUMPDEST PUSH1 0x0 DUP1 REVERT JUMPDEST CALLVALUE DUP1 ISZERO PUSH2 0x97 JUMPI PUSH1 0x0 DUP1 REVERT JUMPDEST POP PUSH2 0xA0 PUSH2 0x1F9 JUMP JUMPDEST PUSH1 0x40 MLOAD PUSH2 0xAD SWAP2 SWAP1 PUSH2 0x646 JUMP JUMPDEST PUSH1 0x40 MLOAD DUP1 SWAP2 SUB SWAP1 RETURN JUMPDEST CALLVALUE DUP1 ISZERO PUSH2 0xC2 JUMPI PUSH1 0x0 DUP1 REVERT JUMPDEST POP PUSH2 0xDD PUSH1 0x4 DUP1 CALLDATASIZE SUB DUP2 ADD SWAP1 PUSH2 0xD8 SWAP2 SWAP1 PUSH2 0x5C2 JUMP JUMPDEST PUSH2 0x287 JUMP JUMPDEST PUSH1 0x40 MLOAD PUSH2 0xEA SWAP2 SWAP1 PUSH2 0x668 JUMP JUMPDEST PUSH1 0x40 MLOAD DUP1 SWAP2 SUB SWAP1 RETURN JUMPDEST CALLVALUE DUP1 ISZERO PUSH2 0xFF JUMPI PUSH1 0x0 DUP1 REVERT JUMPDEST POP PUSH2 0x108 PUSH2 0x2A2 JUMP JUMPDEST PUSH1 0x40 MLOAD PUSH2 0x115 SWAP2 SWAP1 PUSH2 0x668 JUMP JUMPDEST PUSH1 0x40 MLOAD DUP1 SWAP2 SUB SWAP1 RETURN JUMPDEST CALLVALUE DUP1 ISZERO PUSH2 0x12A JUMPI PUSH1 0x0 DUP1 REVERT JUMPDEST POP PUSH2 0x145 PUSH1 0x4 DUP1 CALLDATASIZE SUB DUP2 ADD SWAP1 PUSH2 0x140 SWAP2 SWAP1 PUSH2 0x545 JUMP JUMPDEST PUSH2 0x2AC JUMP JUMPDEST STOP JUMPDEST CALLVALUE DUP1 ISZERO PUSH2 0x153 JUMPI PUSH1 0x0 DUP1 REVERT JUMPDEST POP PUSH2 0x15C PUSH2 0x30E JUMP JUMPDEST PUSH1 0x40 MLOAD PUSH2 0x169 SWAP2 SWAP1 PUSH2 0x668 JUMP JUMPDEST PUSH1 0x40 MLOAD DUP1 SWAP2 SUB SWAP1 RETURN JUMPDEST CALLVALUE DUP1 ISZERO PUSH2 0x17E JUMPI PUSH1 0x0 DUP1 REVERT JUMPDEST POP PUSH2 0x199 PUSH1 0x4 DUP1 CALLDATASIZE SUB DUP2 ADD SWAP1 PUSH2 0x194 SWAP2 SWAP1 PUSH2 0x599 JUMP JUMPDEST PUSH2 0x314 JUMP JUMPDEST STOP JUMPDEST CALLVALUE DUP1 ISZERO PUSH2 0x1A7 JUMPI PUSH1 0x0 DUP1 REVERT JUMPDEST POP PUSH2 0x1C2 PUSH1 0x4 DUP1 CALLDATASIZE SUB DUP2 ADD SWAP1 PUSH2 0x1BD SWAP2 SWAP1 PUSH2 0x504 JUMP JUMPDEST PUSH2 0x31E JUMP JUMPDEST STOP JUMPDEST CALLVALUE DUP1 ISZERO PUSH2 0x1D0 JUMPI PUSH1 0x0 DUP1 REVERT JUMPDEST POP PUSH2 0x1D9 PUSH2 0x338 JUMP JUMPDEST PUSH1 0x40 MLOAD PUSH2 0x1E6 SWAP2 SWAP1 PUSH2 0x646 JUMP JUMPDEST PUSH1 0x40 MLOAD DUP1 SWAP2 SUB SWAP1 RETURN JUMPDEST PUSH2 0x1F7 PUSH2 0x3C6 JUMP JUMPDEST STOP JUMPDEST PUSH1 0x1 DUP1 SLOAD PUSH2 0x206 SWAP1 PUSH2 0x7CC JUMP JUMPDEST DUP1 PUSH1 0x1F ADD PUSH1 0x20 DUP1 SWAP2 DIV MUL PUSH1 0x20 ADD PUSH1 0x40 MLOAD SWAP1 DUP2 ADD PUSH1 0x40 MSTORE DUP1 SWAP3 SWAP2 SWAP1 DUP2 DUP2 MSTORE PUSH1 0x20 ADD DUP3 DUP1 SLOAD PUSH2 0x232 SWAP1 PUSH2 0x7CC JUMP JUMPDEST DUP1 ISZERO PUSH2 0x27F JUMPI DUP1 PUSH1 0x1F LT PUSH2 0x254 JUMPI PUSH2 0x100 DUP1 DUP4 SLOAD DIV MUL DUP4 MSTORE SWAP2 PUSH1 0x20 ADD SWAP2 PUSH2 0x27F JUMP JUMPDEST DUP3 ADD SWAP2 SWAP1 PUSH1 0x0 MSTORE PUSH1 0x20 PUSH1 0x0 KECCAK256 SWAP1 JUMPDEST DUP2 SLOAD DUP2 MSTORE SWAP1 PUSH1 0x1 ADD SWAP1 PUSH1 0x20 ADD DUP1 DUP4 GT PUSH2 0x262 JUMPI DUP3 SWAP1 SUB PUSH1 0x1F AND DUP3 ADD SWAP2 JUMPDEST POP POP POP POP POP DUP2 JUMP JUMPDEST PUSH1 0x0 DUP1 DUP3 DUP5 PUSH2 0x296 SWAP2 SWAP1 PUSH2 0x726 JUMP JUMPDEST SWAP1 POP DUP1 SWAP2 POP POP SWAP3 SWAP2 POP POP JUMP JUMPDEST PUSH1 0x0 PUSH1 0x3 SLOAD SWAP1 POP SWAP1 JUMP JUMPDEST DUP2 PUSH1 0x1 SWAP1 DUP1 MLOAD SWAP1 PUSH1 0x20 ADD SWAP1 PUSH2 0x2C2 SWAP3 SWAP2 SWAP1 PUSH2 0x3E4 JUMP JUMPDEST POP PUSH2 0x2CC DUP2 PUSH2 0x3C8 JUMP JUMPDEST PUSH2 0x30A PUSH1 0x40 MLOAD DUP1 PUSH1 0x40 ADD PUSH1 0x40 MSTORE DUP1 PUSH1 0x13 DUP2 MSTORE PUSH1 0x20 ADD PUSH32 0x43616C6C65642074686520636F6E747261637400000000000000000000000000 DUP2 MSTORE POP PUSH2 0x31E JUMP JUMPDEST POP POP JUMP JUMPDEST PUSH1 0x0 SLOAD DUP2 JUMP JUMPDEST DUP1 PUSH1 0x3 DUP2 SWAP1 SSTORE POP POP JUMP JUMPDEST DUP1 PUSH1 0x2 SWAP1 DUP1 MLOAD SWAP1 PUSH1 0x20 ADD SWAP1 PUSH2 0x334 SWAP3 SWAP2 SWAP1 PUSH2 0x3E4 JUMP JUMPDEST POP POP JUMP JUMPDEST PUSH1 0x2 DUP1 SLOAD PUSH2 0x345 SWAP1 PUSH2 0x7CC JUMP JUMPDEST DUP1 PUSH1 0x1F ADD PUSH1 0x20 DUP1 SWAP2 DIV MUL PUSH1 0x20 ADD PUSH1 0x40 MLOAD SWAP1 DUP2 ADD PUSH1 0x40 MSTORE DUP1 SWAP3 SWAP2 SWAP1 DUP2 DUP2 MSTORE PUSH1 0x20 ADD DUP3 DUP1 SLOAD PUSH2 0x371 SWAP1 PUSH2 0x7CC JUMP JUMPDEST DUP1 ISZERO PUSH2 0x3BE JUMPI DUP1 PUSH1 0x1F LT PUSH2 0x393 JUMPI PUSH2 0x100 DUP1 DUP4 SLOAD DIV MUL DUP4 MSTORE SWAP2 PUSH1 0x20 ADD SWAP2 PUSH2 0x3BE JUMP JUMPDEST DUP3 ADD SWAP2 SWAP1 PUSH1 0x0 MSTORE PUSH1 0x20 PUSH1 0x0 KECCAK256 SWAP1 JUMPDEST DUP2 SLOAD DUP2 MSTORE SWAP1 PUSH1 0x1 ADD SWAP1 PUSH1 0x20 ADD DUP1 DUP4 GT PUSH2 0x3A1 JUMPI DUP3 SWAP1 SUB PUSH1 0x1F AND DUP3 ADD SWAP2 JUMPDEST POP POP POP POP POP DUP2 JUMP JUMPDEST JUMP JUMPDEST PUSH1 0x0 PUSH1 0x2 DUP3 PUSH2 0x3D7 SWAP2 SWAP1 PUSH2 0x6F5 JUMP JUMPDEST SWAP1 POP DUP1 PUSH1 0x0 DUP2 SWAP1 SSTORE POP POP POP JUMP JUMPDEST DUP3 DUP1 SLOAD PUSH2 0x3F0 SWAP1 PUSH2 0x7CC JUMP JUMPDEST SWAP1 PUSH1 0x0 MSTORE PUSH1 0x20 PUSH1 0x0 KECCAK256 SWAP1 PUSH1 0x1F ADD PUSH1 0x20 SWAP1 DIV DUP2 ADD SWAP3 DUP3 PUSH2 0x412 JUMPI PUSH1 0x0 DUP6 SSTORE PUSH2 0x459 JUMP JUMPDEST DUP3 PUSH1 0x1F LT PUSH2 0x42B JUMPI DUP1 MLOAD PUSH1 0xFF NOT AND DUP4 DUP1 ADD OR DUP6 SSTORE PUSH2 0x459 JUMP JUMPDEST DUP3 DUP1 ADD PUSH1 0x1 ADD DUP6 SSTORE DUP3 ISZERO PUSH2 0x459 JUMPI SWAP2 DUP3 ADD JUMPDEST DUP3 DUP2 GT ISZERO PUSH2 0x458 JUMPI DUP3 MLOAD DUP3 SSTORE SWAP2 PUSH1 0x20 ADD SWAP2 SWAP1 PUSH1 0x1 ADD SWAP1 PUSH2 0x43D JUMP JUMPDEST JUMPDEST POP SWAP1 POP PUSH2 0x466 SWAP2 SWAP1 PUSH2 0x46A JUMP JUMPDEST POP SWAP1 JUMP JUMPDEST JUMPDEST DUP1 DUP3 GT ISZERO PUSH2 0x483 JUMPI PUSH1 0x0 DUP2 PUSH1 0x0 SWAP1 SSTORE POP PUSH1 0x1 ADD PUSH2 0x46B JUMP JUMPDEST POP SWAP1 JUMP JUMPDEST PUSH1 0x0 PUSH2 0x49A PUSH2 0x495 DUP5 PUSH2 0x6A8 JUMP JUMPDEST PUSH2 0x683 JUMP JUMPDEST SWAP1 POP DUP3 DUP2 MSTORE PUSH1 0x20 DUP2 ADD DUP5 DUP5 DUP5 ADD GT ISZERO PUSH2 0x4B2 JUMPI PUSH1 0x0 DUP1 REVERT JUMPDEST PUSH2 0x4BD DUP5 DUP3 DUP6 PUSH2 0x78A JUMP JUMPDEST POP SWAP4 SWAP3 POP POP POP JUMP JUMPDEST PUSH1 0x0 DUP3 PUSH1 0x1F DUP4 ADD SLT PUSH2 0x4D6 JUMPI PUSH1 0x0 DUP1 REVERT JUMPDEST DUP2 CALLDATALOAD PUSH2 0x4E6 DUP5 DUP3 PUSH1 0x20 DUP7 ADD PUSH2 0x487 JUMP JUMPDEST SWAP2 POP POP SWAP3 SWAP2 POP POP JUMP JUMPDEST PUSH1 0x0 DUP2 CALLDATALOAD SWAP1 POP PUSH2 0x4FE DUP2 PUSH2 0x8FC JUMP JUMPDEST SWAP3 SWAP2 POP POP JUMP JUMPDEST PUSH1 0x0 PUSH1 0x20 DUP3 DUP5 SUB SLT ISZERO PUSH2 0x516 JUMPI PUSH1 0x0 DUP1 REVERT JUMPDEST PUSH1 0x0 DUP3 ADD CALLDATALOAD PUSH8 0xFFFFFFFFFFFFFFFF DUP2 GT ISZERO PUSH2 0x530 JUMPI PUSH1 0x0 DUP1 REVERT JUMPDEST PUSH2 0x53C DUP5 DUP3 DUP6 ADD PUSH2 0x4C5 JUMP JUMPDEST SWAP2 POP POP SWAP3 SWAP2 POP POP JUMP JUMPDEST PUSH1 0x0 DUP1 PUSH1 0x40 DUP4 DUP6 SUB SLT ISZERO PUSH2 0x558 JUMPI PUSH1 0x0 DUP1 REVERT JUMPDEST PUSH1 0x0 DUP4 ADD CALLDATALOAD PUSH8 0xFFFFFFFFFFFFFFFF DUP2 GT ISZERO PUSH2 0x572 JUMPI PUSH1 0x0 DUP1 REVERT JUMPDEST PUSH2 0x57E DUP6 DUP3 DUP7 ADD PUSH2 0x4C5 JUMP JUMPDEST SWAP3 POP POP PUSH1 0x20 PUSH2 0x58F DUP6 DUP3 DUP7 ADD PUSH2 0x4EF JUMP JUMPDEST SWAP2 POP POP SWAP3 POP SWAP3 SWAP1 POP JUMP JUMPDEST PUSH1 0x0 PUSH1 0x20 DUP3 DUP5 SUB SLT ISZERO PUSH2 0x5AB JUMPI PUSH1 0x0 DUP1 REVERT JUMPDEST PUSH1 0x0 PUSH2 0x5B9 DUP5 DUP3 DUP6 ADD PUSH2 0x4EF JUMP JUMPDEST SWAP2 POP POP SWAP3 SWAP2 POP POP JUMP JUMPDEST PUSH1 0x0 DUP1 PUSH1 0x40 DUP4 DUP6 SUB SLT ISZERO PUSH2 0x5D5 JUMPI PUSH1 0x0 DUP1 REVERT JUMPDEST PUSH1 0x0 PUSH2 0x5E3 DUP6 DUP3 DUP7 ADD PUSH2 0x4EF JUMP JUMPDEST SWAP3 POP POP PUSH1 0x20 PUSH2 0x5F4 DUP6 DUP3 DUP7 ADD PUSH2 0x4EF JUMP JUMPDEST SWAP2 POP POP SWAP3 POP SWAP3 SWAP1 POP JUMP JUMPDEST PUSH1 0x0 PUSH2 0x609 DUP3 PUSH2 0x6D9 JUMP JUMPDEST PUSH2 0x613 DUP2 DUP6 PUSH2 0x6E4 JUMP JUMPDEST SWAP4 POP PUSH2 0x623 DUP2 DUP6 PUSH1 0x20 DUP7 ADD PUSH2 0x799 JUMP JUMPDEST PUSH2 0x62C DUP2 PUSH2 0x8EB JUMP JUMPDEST DUP5 ADD SWAP2 POP POP SWAP3 SWAP2 POP POP JUMP JUMPDEST PUSH2 0x640 DUP2 PUSH2 0x780 JUMP JUMPDEST DUP3 MSTORE POP POP JUMP JUMPDEST PUSH1 0x0 PUSH1 0x20 DUP3 ADD SWAP1 POP DUP2 DUP2 SUB PUSH1 0x0 DUP4 ADD MSTORE PUSH2 0x660 DUP2 DUP5 PUSH2 0x5FE JUMP JUMPDEST SWAP1 POP SWAP3 SWAP2 POP POP JUMP JUMPDEST PUSH1 0x0 PUSH1 0x20 DUP3 ADD SWAP1 POP PUSH2 0x67D PUSH1 0x0 DUP4 ADD DUP5 PUSH2 0x637 JUMP JUMPDEST SWAP3 SWAP2 POP POP JUMP JUMPDEST PUSH1 0x0 PUSH2 0x68D PUSH2 0x69E JUMP JUMPDEST SWAP1 POP PUSH2 0x699 DUP3 DUP3 PUSH2 0x7FE JUMP JUMPDEST SWAP2 SWAP1 POP JUMP JUMPDEST PUSH1 0x0 PUSH1 0x40 MLOAD SWAP1 POP SWAP1 JUMP JUMPDEST PUSH1 0x0 PUSH8 0xFFFFFFFFFFFFFFFF DUP3 GT ISZERO PUSH2 0x6C3 JUMPI PUSH2 0x6C2 PUSH2 0x8BC JUMP JUMPDEST JUMPDEST PUSH2 0x6CC DUP3 PUSH2 0x8EB JUMP JUMPDEST SWAP1 POP PUSH1 0x20 DUP2 ADD SWAP1 POP SWAP2 SWAP1 POP JUMP JUMPDEST PUSH1 0x0 DUP2 MLOAD SWAP1 POP SWAP2 SWAP1 POP JUMP JUMPDEST PUSH1 0x0 DUP3 DUP3 MSTORE PUSH1 0x20 DUP3 ADD SWAP1 POP SWAP3 SWAP2 POP POP JUMP JUMPDEST PUSH1 0x0 PUSH2 0x700 DUP3 PUSH2 0x780 JUMP JUMPDEST SWAP2 POP PUSH2 0x70B DUP4 PUSH2 0x780 JUMP JUMPDEST SWAP3 POP DUP3 PUSH2 0x71B JUMPI PUSH2 0x71A PUSH2 0x85E JUMP JUMPDEST JUMPDEST DUP3 DUP3 DIV SWAP1 POP SWAP3 SWAP2 POP POP JUMP JUMPDEST PUSH1 0x0 PUSH2 0x731 DUP3 PUSH2 0x780 JUMP JUMPDEST SWAP2 POP PUSH2 0x73C DUP4 PUSH2 0x780 JUMP JUMPDEST SWAP3 POP DUP2 PUSH32 0xFFFFFFFFFFFFFFFFFFFFFFFFFFFFFFFFFFFFFFFFFFFFFFFFFFFFFFFFFFFFFFFF DIV DUP4 GT DUP3 ISZERO ISZERO AND ISZERO PUSH2 0x775 JUMPI PUSH2 0x774 PUSH2 0x82F JUMP JUMPDEST JUMPDEST DUP3 DUP3 MUL SWAP1 POP SWAP3 SWAP2 POP POP JUMP JUMPDEST PUSH1 0x0 DUP2 SWAP1 POP SWAP2 SWAP1 POP JUMP JUMPDEST DUP3 DUP2 DUP4 CALLDATACOPY PUSH1 0x0 DUP4 DUP4 ADD MSTORE POP POP POP JUMP JUMPDEST PUSH1 0x0 JUMPDEST DUP4 DUP2 LT ISZERO PUSH2 0x7B7 JUMPI DUP1 DUP3 ADD MLOAD DUP2 DUP5 ADD MSTORE PUSH1 0x20 DUP2 ADD SWAP1 POP PUSH2 0x79C JUMP JUMPDEST DUP4 DUP2 GT ISZERO PUSH2 0x7C6 JUMPI PUSH1 0x0 DUP5 DUP5 ADD MSTORE JUMPDEST POP POP POP POP JUMP JUMPDEST PUSH1 0x0 PUSH1 0x2 DUP3 DIV SWAP1 POP PUSH1 0x1 DUP3 AND DUP1 PUSH2 0x7E4 JUMPI PUSH1 0x7F DUP3 AND SWAP2 POP JUMPDEST PUSH1 0x20 DUP3 LT DUP2 EQ ISZERO PUSH2 0x7F8 JUMPI PUSH2 0x7F7 PUSH2 0x88D JUMP JUMPDEST JUMPDEST POP SWAP2 SWAP1 POP JUMP JUMPDEST PUSH2 0x807 DUP3 PUSH2 0x8EB JUMP JUMPDEST DUP2 ADD DUP2 DUP2 LT PUSH8 0xFFFFFFFFFFFFFFFF DUP3 GT OR ISZERO PUSH2 0x826 JUMPI PUSH2 0x825 PUSH2 0x8BC JUMP JUMPDEST JUMPDEST DUP1 PUSH1 0x40 MSTORE POP POP POP JUMP JUMPDEST PUSH32 0x4E487B7100000000000000000000000000000000000000000000000000000000 PUSH1 0x0 MSTORE PUSH1 0x11 PUSH1 0x4 MSTORE PUSH1 0x24 PUSH1 0x0 REVERT JUMPDEST PUSH32 0x4E487B7100000000000000000000000000000000000000000000000000000000 PUSH1 0x0 MSTORE PUSH1 0x12 PUSH1 0x4 MSTORE PUSH1 0x24 PUSH1 0x0 REVERT JUMPDEST PUSH32 0x4E487B7100000000000000000000000000000000000000000000000000000000 PUSH1 0x0 MSTORE PUSH1 0x22 PUSH1 0x4 MSTORE PUSH1 0x24 PUSH1 0x0 REVERT JUMPDEST PUSH32 0x4E487B7100000000000000000000000000000000000000000000000000000000 PUSH1 0x0 MSTORE PUSH1 0x41 PUSH1 0x4 MSTORE PUSH1 0x24 PUSH1 0x0 REVERT JUMPDEST PUSH1 0x0 PUSH1 0x1F NOT PUSH1 0x1F DUP4 ADD AND SWAP1 POP SWAP2 SWAP1 POP JUMP JUMPDEST PUSH2 0x905 DUP2 PUSH2 0x780 JUMP JUMPDEST DUP2 EQ PUSH2 0x910 JUMPI PUSH1 0x0 DUP1 REVERT JUMPDEST POP JUMP INVALID LOG2 PUSH5 0x6970667358 0x22 SLT KECCAK256 MOD OR LOG1 0xDE DUP10 BALANCE SGT CHAINID 0xB1 ADD 0xB6 PUSH32 0x2122D82509900D8D3509A2127D3EB99BA4FEF8464736F6C6343000804003300 "
				},
				"gasEstimates": {
					"creation": {
						"codeDepositCost": "475400",
						"executionCost": "511",
						"totalCost": "475911"
					},
					"external": {
						"getValue()": "1182",
						"message()": "infinite",
						"multiply(uint256,uint256)": "infinite",
						"name()": "infinite",
						"num()": "1129",
						"payEther()": "208",
						"setMsg(string)": "infinite",
						"setName(string,uint256)": "infinite",
						"setValue(uint256)": "20442"
					},
					"internal": {
						"halfNum(uint256)": "infinite"
					}
				},
				"methodIdentifiers": {
					"getValue()": "20965255",
					"message()": "e21f37ce",
					"multiply(uint256,uint256)": "165c4a16",
					"name()": "06fdde03",
					"num()": "4e70b1dc",
					"payEther()": "f7474d00",
					"setMsg(string)": "c4784fd4",
					"setName(string,uint256)": "3baa8170",
					"setValue(uint256)": "55241077"
				}
			},
			"storageLayout": {
				"storage": [
					{
						"astId": 3,
						"contract": "functions.sol:exampleFunctions",
						"label": "num",
						"offset": 0,
						"slot": "0",
						"type": "t_uint256"
					},
					{
						"astId": 5,
						"contract": "functions.sol:exampleFunctions",
						"label": "name",
						"offset": 0,
						"slot": "1",
						"type": "t_string_storage"
					},
					{
						"astId": 7,
						"contract": "functions.sol:exampleFunctions",
						"label": "message",
						"offset": 0,
						"slot": "2",
						"type": "t_string_storage"
					},
					{
						"astId": 9,
						"contract": "functions.sol:exampleFunctions",
						"label": "value",
						"offset": 0,
						"slot": "3",
						"type": "t_uint256"
					}
				],
				"types": {
					"t_string_storage": {
						"encoding": "bytes",
						"label": "string",
						"numberOfBytes": "32"
					},
					"t_uint256": {
						"encoding": "inplace",
						"label": "uint256",
						"numberOfBytes": "32"
					}
				}
			},
			"userdoc": {
				"kind": "user",
				"methods": {},
				"version": 1
			}
		}
	}
}