{
	"othercontract.sol": {
		"CallerFunctions": {
			"abi": [
				{
					"inputs": [
						{
							"internalType": "contract Callee",
							"name": "_callee",
							"type": "address"
						},
						{
							"internalType": "uint256",
							"name": "_x",
							"type": "uint256"
						}
					],
					"name": "setX",
					"outputs": [],
					"stateMutability": "nonpayable",
					"type": "function"
				},
				{
					"inputs": [
						{
							"internalType": "contract Callee",
							"name": "_callee",
							"type": "address"
						},
						{
							"internalType": "uint256",
							"name": "_x",
							"type": "uint256"
						}
					],
					"name": "setXAndSendEther",
					"outputs": [],
					"stateMutability": "payable",
					"type": "function"
				},
				{
					"inputs": [
						{
							"internalType": "address",
							"name": "_addr",
							"type": "address"
						},
						{
							"internalType": "uint256",
							"name": "_x",
							"type": "uint256"
						}
					],
					"name": "setXFromAddress",
					"outputs": [],
					"stateMutability": "nonpayable",
					"type": "function"
				}
			],
			"devdoc": {
				"kind": "dev",
				"methods": {},
				"version": 1
			},
			"evm": {
				"assembly": "    /* \"othercontract.sol\":475:1179  contract CallerFunctions {... */\n  mstore(0x40, 0x80)\n  callvalue\n  dup1\n  iszero\n  tag_1\n  jumpi\n  revert(0x00, 0x00)\ntag_1:\n  pop\n  dataSize(sub_0)\n  dup1\n  dataOffset(sub_0)\n  0x00\n  codecopy\n  0x00\n  return\nstop\n\nsub_0: assembly {\n        /* \"othercontract.sol\":475:1179  contract CallerFunctions {... */\n      mstore(0x40, 0x80)\n      jumpi(tag_1, lt(calldatasize, 0x04))\n      shr(0xe0, calldataload(0x00))\n      dup1\n      0x27a9f474\n      eq\n      tag_2\n      jumpi\n      dup1\n      0x4a2ad99f\n      eq\n      tag_3\n      jumpi\n      dup1\n      0xcb587039\n      eq\n      tag_4\n      jumpi\n    tag_1:\n      revert(0x00, 0x00)\n        /* \"othercontract.sol\":846:1134  function setXAndSendEther(Callee _callee, uint256 _x) public payable { // Setando e enviando Ether através de outro contrato... */\n    tag_2:\n      tag_5\n      0x04\n      dup1\n      calldatasize\n      sub\n      dup2\n      add\n      swap1\n      tag_6\n      swap2\n      swap1\n      tag_7\n      jump\t// in\n    tag_6:\n      tag_8\n      jump\t// in\n    tag_5:\n      stop\n        /* \"othercontract.sol\":507:697  function setX(Callee _callee, uint256 _x) public { // Está chamando o contrato _callee do tipo Callee... */\n    tag_3:\n      callvalue\n      dup1\n      iszero\n      tag_9\n      jumpi\n      revert(0x00, 0x00)\n    tag_9:\n      pop\n      tag_10\n      0x04\n      dup1\n      calldatasize\n      sub\n      dup2\n      add\n      swap1\n      tag_11\n      swap2\n      swap1\n      tag_7\n      jump\t// in\n    tag_11:\n      tag_12\n      jump\t// in\n    tag_10:\n      stop\n        /* \"othercontract.sol\":705:838  function setXFromAddress(address _addr, uint256 _x) public {... */\n    tag_4:\n      callvalue\n      dup1\n      iszero\n      tag_13\n      jumpi\n      revert(0x00, 0x00)\n    tag_13:\n      pop\n      tag_14\n      0x04\n      dup1\n      calldatasize\n      sub\n      dup2\n      add\n      swap1\n      tag_15\n      swap2\n      swap1\n      tag_16\n      jump\t// in\n    tag_15:\n      tag_17\n      jump\t// in\n    tag_14:\n      stop\n        /* \"othercontract.sol\":846:1134  function setXAndSendEther(Callee _callee, uint256 _x) public payable { // Setando e enviando Ether através de outro contrato... */\n    tag_8:\n        /* \"othercontract.sol\":982:991  uint256 x */\n      0x00\n        /* \"othercontract.sol\":993:1006  uint256 value */\n      0x00\n        /* \"othercontract.sol\":1010:1017  _callee */\n      dup4\n        /* \"othercontract.sol\":1010:1034  _callee.setXAndSendEther */\n      0xffffffffffffffffffffffffffffffffffffffff\n      and\n      0x8f52503f\n        /* \"othercontract.sol\":1043:1052  msg.value */\n      callvalue\n        /* \"othercontract.sol\":1054:1056  _x */\n      dup6\n        /* \"othercontract.sol\":1010:1057  _callee.setXAndSendEther {value: msg.value}(_x) */\n      mload(0x40)\n      dup4\n      0xffffffff\n      and\n      0xe0\n      shl\n      dup2\n      mstore\n      0x04\n      add\n      tag_19\n      swap2\n      swap1\n      tag_20\n      jump\t// in\n    tag_19:\n      0x40\n      dup1\n      mload\n      dup1\n      dup4\n      sub\n      dup2\n      dup6\n      dup9\n      gas\n      call\n      iszero\n      dup1\n      iszero\n      tag_22\n      jumpi\n      returndatacopy(0x00, 0x00, returndatasize)\n      revert(0x00, returndatasize)\n    tag_22:\n      pop\n      pop\n      pop\n      pop\n      pop\n      mload(0x40)\n      returndatasize\n      not(0x1f)\n      0x1f\n      dup3\n      add\n      and\n      dup3\n      add\n      dup1\n      0x40\n      mstore\n      pop\n      dup2\n      add\n      swap1\n      tag_23\n      swap2\n      swap1\n      tag_24\n      jump\t// in\n    tag_23:\n        /* \"othercontract.sol\":981:1057  (uint256 x, uint256 value) = _callee.setXAndSendEther {value: msg.value}(_x) */\n      swap2\n      pop\n      swap2\n      pop\n        /* \"othercontract.sol\":915:1134  { // Setando e enviando Ether através de outro contrato... */\n      pop\n      pop\n        /* \"othercontract.sol\":846:1134  function setXAndSendEther(Callee _callee, uint256 _x) public payable { // Setando e enviando Ether através de outro contrato... */\n      pop\n      pop\n      jump\t// out\n        /* \"othercontract.sol\":507:697  function setX(Callee _callee, uint256 _x) public { // Está chamando o contrato _callee do tipo Callee... */\n    tag_12:\n        /* \"othercontract.sol\":619:628  uint256 x */\n      0x00\n        /* \"othercontract.sol\":631:638  _callee */\n      dup3\n        /* \"othercontract.sol\":631:643  _callee.setX */\n      0xffffffffffffffffffffffffffffffffffffffff\n      and\n      0x4018d9aa\n        /* \"othercontract.sol\":644:646  _x */\n      dup4\n        /* \"othercontract.sol\":631:647  _callee.setX(_x) */\n      mload(0x40)\n      dup3\n      0xffffffff\n      and\n      0xe0\n      shl\n      dup2\n      mstore\n      0x04\n      add\n      tag_26\n      swap2\n      swap1\n      tag_20\n      jump\t// in\n    tag_26:\n      0x20\n      mload(0x40)\n      dup1\n      dup4\n      sub\n      dup2\n      0x00\n      dup8\n      gas\n      call\n      iszero\n      dup1\n      iszero\n      tag_28\n      jumpi\n      returndatacopy(0x00, 0x00, returndatasize)\n      revert(0x00, returndatasize)\n    tag_28:\n      pop\n      pop\n      pop\n      pop\n      mload(0x40)\n      returndatasize\n      not(0x1f)\n      0x1f\n      dup3\n      add\n      and\n      dup3\n      add\n      dup1\n      0x40\n      mstore\n      pop\n      dup2\n      add\n      swap1\n      tag_29\n      swap2\n      swap1\n      tag_30\n      jump\t// in\n    tag_29:\n        /* \"othercontract.sol\":619:647  uint256 x = _callee.setX(_x) */\n      swap1\n      pop\n        /* \"othercontract.sol\":556:697  { // Está chamando o contrato _callee do tipo Callee... */\n      pop\n        /* \"othercontract.sol\":507:697  function setX(Callee _callee, uint256 _x) public { // Está chamando o contrato _callee do tipo Callee... */\n      pop\n      pop\n      jump\t// out\n        /* \"othercontract.sol\":705:838  function setXFromAddress(address _addr, uint256 _x) public {... */\n    tag_17:\n        /* \"othercontract.sol\":775:788  Callee callee */\n      0x00\n        /* \"othercontract.sol\":798:803  _addr */\n      dup3\n        /* \"othercontract.sol\":775:804  Callee callee = Callee(_addr) */\n      swap1\n      pop\n        /* \"othercontract.sol\":815:821  callee */\n      dup1\n        /* \"othercontract.sol\":815:826  callee.setX */\n      0xffffffffffffffffffffffffffffffffffffffff\n      and\n      0x4018d9aa\n        /* \"othercontract.sol\":827:829  _x */\n      dup4\n        /* \"othercontract.sol\":815:830  callee.setX(_x) */\n      mload(0x40)\n      dup3\n      0xffffffff\n      and\n      0xe0\n      shl\n      dup2\n      mstore\n      0x04\n      add\n      tag_32\n      swap2\n      swap1\n      tag_20\n      jump\t// in\n    tag_32:\n      0x20\n      mload(0x40)\n      dup1\n      dup4\n      sub\n      dup2\n      0x00\n      dup8\n      gas\n      call\n      iszero\n      dup1\n      iszero\n      tag_34\n      jumpi\n      returndatacopy(0x00, 0x00, returndatasize)\n      revert(0x00, returndatasize)\n    tag_34:\n      pop\n      pop\n      pop\n      pop\n      mload(0x40)\n      returndatasize\n      not(0x1f)\n      0x1f\n      dup3\n      add\n      and\n      dup3\n      add\n      dup1\n      0x40\n      mstore\n      pop\n      dup2\n      add\n      swap1\n      tag_35\n      swap2\n      swap1\n      tag_30\n      jump\t// in\n    tag_35:\n      pop\n        /* \"othercontract.sol\":764:838  {... */\n      pop\n        /* \"othercontract.sol\":705:838  function setXFromAddress(address _addr, uint256 _x) public {... */\n      pop\n      pop\n      jump\t// out\n        /* \"#utility.yul\":88:205   */\n    tag_37:\n        /* \"#utility.yul\":197:198   */\n      0x00\n        /* \"#utility.yul\":194:195   */\n      0x00\n        /* \"#utility.yul\":187:199   */\n      revert\n        /* \"#utility.yul\":334:460   */\n    tag_39:\n        /* \"#utility.yul\":371:378   */\n      0x00\n        /* \"#utility.yul\":411:453   */\n      0xffffffffffffffffffffffffffffffffffffffff\n        /* \"#utility.yul\":404:409   */\n      dup3\n        /* \"#utility.yul\":400:454   */\n      and\n        /* \"#utility.yul\":389:454   */\n      swap1\n      pop\n        /* \"#utility.yul\":334:460   */\n      swap2\n      swap1\n      pop\n      jump\t// out\n        /* \"#utility.yul\":466:562   */\n    tag_40:\n        /* \"#utility.yul\":503:510   */\n      0x00\n        /* \"#utility.yul\":532:556   */\n      tag_57\n        /* \"#utility.yul\":550:555   */\n      dup3\n        /* \"#utility.yul\":532:556   */\n      tag_39\n      jump\t// in\n    tag_57:\n        /* \"#utility.yul\":521:556   */\n      swap1\n      pop\n        /* \"#utility.yul\":466:562   */\n      swap2\n      swap1\n      pop\n      jump\t// out\n        /* \"#utility.yul\":568:677   */\n    tag_41:\n        /* \"#utility.yul\":618:625   */\n      0x00\n        /* \"#utility.yul\":647:671   */\n      tag_59\n        /* \"#utility.yul\":665:670   */\n      dup3\n        /* \"#utility.yul\":647:671   */\n      tag_40\n      jump\t// in\n    tag_59:\n        /* \"#utility.yul\":636:671   */\n      swap1\n      pop\n        /* \"#utility.yul\":568:677   */\n      swap2\n      swap1\n      pop\n      jump\t// out\n        /* \"#utility.yul\":683:831   */\n    tag_42:\n        /* \"#utility.yul\":769:806   */\n      tag_61\n        /* \"#utility.yul\":800:805   */\n      dup2\n        /* \"#utility.yul\":769:806   */\n      tag_41\n      jump\t// in\n    tag_61:\n        /* \"#utility.yul\":762:767   */\n      dup2\n        /* \"#utility.yul\":759:807   */\n      eq\n        /* \"#utility.yul\":749:825   */\n      tag_62\n      jumpi\n        /* \"#utility.yul\":821:822   */\n      0x00\n        /* \"#utility.yul\":818:819   */\n      0x00\n        /* \"#utility.yul\":811:823   */\n      revert\n        /* \"#utility.yul\":749:825   */\n    tag_62:\n        /* \"#utility.yul\":683:831   */\n      pop\n      jump\t// out\n        /* \"#utility.yul\":837:1002   */\n    tag_43:\n        /* \"#utility.yul\":896:901   */\n      0x00\n        /* \"#utility.yul\":934:940   */\n      dup2\n        /* \"#utility.yul\":921:941   */\n      calldataload\n        /* \"#utility.yul\":912:941   */\n      swap1\n      pop\n        /* \"#utility.yul\":950:996   */\n      tag_64\n        /* \"#utility.yul\":990:995   */\n      dup2\n        /* \"#utility.yul\":950:996   */\n      tag_42\n      jump\t// in\n    tag_64:\n        /* \"#utility.yul\":837:1002   */\n      swap3\n      swap2\n      pop\n      pop\n      jump\t// out\n        /* \"#utility.yul\":1008:1085   */\n    tag_44:\n        /* \"#utility.yul\":1045:1052   */\n      0x00\n        /* \"#utility.yul\":1074:1079   */\n      dup2\n        /* \"#utility.yul\":1063:1079   */\n      swap1\n      pop\n        /* \"#utility.yul\":1008:1085   */\n      swap2\n      swap1\n      pop\n      jump\t// out\n        /* \"#utility.yul\":1091:1213   */\n    tag_45:\n        /* \"#utility.yul\":1164:1188   */\n      tag_67\n        /* \"#utility.yul\":1182:1187   */\n      dup2\n        /* \"#utility.yul\":1164:1188   */\n      tag_44\n      jump\t// in\n    tag_67:\n        /* \"#utility.yul\":1157:1162   */\n      dup2\n        /* \"#utility.yul\":1154:1189   */\n      eq\n        /* \"#utility.yul\":1144:1207   */\n      tag_68\n      jumpi\n        /* \"#utility.yul\":1203:1204   */\n      0x00\n        /* \"#utility.yul\":1200:1201   */\n      0x00\n        /* \"#utility.yul\":1193:1205   */\n      revert\n        /* \"#utility.yul\":1144:1207   */\n    tag_68:\n        /* \"#utility.yul\":1091:1213   */\n      pop\n      jump\t// out\n        /* \"#utility.yul\":1219:1358   */\n    tag_46:\n        /* \"#utility.yul\":1265:1270   */\n      0x00\n        /* \"#utility.yul\":1303:1309   */\n      dup2\n        /* \"#utility.yul\":1290:1310   */\n      calldataload\n        /* \"#utility.yul\":1281:1310   */\n      swap1\n      pop\n        /* \"#utility.yul\":1319:1352   */\n      tag_70\n        /* \"#utility.yul\":1346:1351   */\n      dup2\n        /* \"#utility.yul\":1319:1352   */\n      tag_45\n      jump\t// in\n    tag_70:\n        /* \"#utility.yul\":1219:1358   */\n      swap3\n      swap2\n      pop\n      pop\n      jump\t// out\n        /* \"#utility.yul\":1364:1864   */\n    tag_7:\n        /* \"#utility.yul\":1445:1451   */\n      0x00\n        /* \"#utility.yul\":1453:1459   */\n      0x00\n        /* \"#utility.yul\":1502:1504   */\n      0x40\n        /* \"#utility.yul\":1490:1499   */\n      dup4\n        /* \"#utility.yul\":1481:1488   */\n      dup6\n        /* \"#utility.yul\":1477:1500   */\n      sub\n        /* \"#utility.yul\":1473:1505   */\n      slt\n        /* \"#utility.yul\":1470:1589   */\n      iszero\n      tag_72\n      jumpi\n        /* \"#utility.yul\":1508:1587   */\n      tag_73\n      tag_37\n      jump\t// in\n    tag_73:\n        /* \"#utility.yul\":1470:1589   */\n    tag_72:\n        /* \"#utility.yul\":1628:1629   */\n      0x00\n        /* \"#utility.yul\":1653:1719   */\n      tag_74\n        /* \"#utility.yul\":1711:1718   */\n      dup6\n        /* \"#utility.yul\":1702:1708   */\n      dup3\n        /* \"#utility.yul\":1691:1700   */\n      dup7\n        /* \"#utility.yul\":1687:1709   */\n      add\n        /* \"#utility.yul\":1653:1719   */\n      tag_43\n      jump\t// in\n    tag_74:\n        /* \"#utility.yul\":1643:1719   */\n      swap3\n      pop\n        /* \"#utility.yul\":1599:1729   */\n      pop\n        /* \"#utility.yul\":1768:1770   */\n      0x20\n        /* \"#utility.yul\":1794:1847   */\n      tag_75\n        /* \"#utility.yul\":1839:1846   */\n      dup6\n        /* \"#utility.yul\":1830:1836   */\n      dup3\n        /* \"#utility.yul\":1819:1828   */\n      dup7\n        /* \"#utility.yul\":1815:1837   */\n      add\n        /* \"#utility.yul\":1794:1847   */\n      tag_46\n      jump\t// in\n    tag_75:\n        /* \"#utility.yul\":1784:1847   */\n      swap2\n      pop\n        /* \"#utility.yul\":1739:1857   */\n      pop\n        /* \"#utility.yul\":1364:1864   */\n      swap3\n      pop\n      swap3\n      swap1\n      pop\n      jump\t// out\n        /* \"#utility.yul\":1870:1992   */\n    tag_47:\n        /* \"#utility.yul\":1943:1967   */\n      tag_77\n        /* \"#utility.yul\":1961:1966   */\n      dup2\n        /* \"#utility.yul\":1943:1967   */\n      tag_40\n      jump\t// in\n    tag_77:\n        /* \"#utility.yul\":1936:1941   */\n      dup2\n        /* \"#utility.yul\":1933:1968   */\n      eq\n        /* \"#utility.yul\":1923:1986   */\n      tag_78\n      jumpi\n        /* \"#utility.yul\":1982:1983   */\n      0x00\n        /* \"#utility.yul\":1979:1980   */\n      0x00\n        /* \"#utility.yul\":1972:1984   */\n      revert\n        /* \"#utility.yul\":1923:1986   */\n    tag_78:\n        /* \"#utility.yul\":1870:1992   */\n      pop\n      jump\t// out\n        /* \"#utility.yul\":1998:2137   */\n    tag_48:\n        /* \"#utility.yul\":2044:2049   */\n      0x00\n        /* \"#utility.yul\":2082:2088   */\n      dup2\n        /* \"#utility.yul\":2069:2089   */\n      calldataload\n        /* \"#utility.yul\":2060:2089   */\n      swap1\n      pop\n        /* \"#utility.yul\":2098:2131   */\n      tag_80\n        /* \"#utility.yul\":2125:2130   */\n      dup2\n        /* \"#utility.yul\":2098:2131   */\n      tag_47\n      jump\t// in\n    tag_80:\n        /* \"#utility.yul\":1998:2137   */\n      swap3\n      swap2\n      pop\n      pop\n      jump\t// out\n        /* \"#utility.yul\":2143:2617   */\n    tag_16:\n        /* \"#utility.yul\":2211:2217   */\n      0x00\n        /* \"#utility.yul\":2219:2225   */\n      0x00\n        /* \"#utility.yul\":2268:2270   */\n      0x40\n        /* \"#utility.yul\":2256:2265   */\n      dup4\n        /* \"#utility.yul\":2247:2254   */\n      dup6\n        /* \"#utility.yul\":2243:2266   */\n      sub\n        /* \"#utility.yul\":2239:2271   */\n      slt\n        /* \"#utility.yul\":2236:2355   */\n      iszero\n      tag_82\n      jumpi\n        /* \"#utility.yul\":2274:2353   */\n      tag_83\n      tag_37\n      jump\t// in\n    tag_83:\n        /* \"#utility.yul\":2236:2355   */\n    tag_82:\n        /* \"#utility.yul\":2394:2395   */\n      0x00\n        /* \"#utility.yul\":2419:2472   */\n      tag_84\n        /* \"#utility.yul\":2464:2471   */\n      dup6\n        /* \"#utility.yul\":2455:2461   */\n      dup3\n        /* \"#utility.yul\":2444:2453   */\n      dup7\n        /* \"#utility.yul\":2440:2462   */\n      add\n        /* \"#utility.yul\":2419:2472   */\n      tag_48\n      jump\t// in\n    tag_84:\n        /* \"#utility.yul\":2409:2472   */\n      swap3\n      pop\n        /* \"#utility.yul\":2365:2482   */\n      pop\n        /* \"#utility.yul\":2521:2523   */\n      0x20\n        /* \"#utility.yul\":2547:2600   */\n      tag_85\n        /* \"#utility.yul\":2592:2599   */\n      dup6\n        /* \"#utility.yul\":2583:2589   */\n      dup3\n        /* \"#utility.yul\":2572:2581   */\n      dup7\n        /* \"#utility.yul\":2568:2590   */\n      add\n        /* \"#utility.yul\":2547:2600   */\n      tag_46\n      jump\t// in\n    tag_85:\n        /* \"#utility.yul\":2537:2600   */\n      swap2\n      pop\n        /* \"#utility.yul\":2492:2610   */\n      pop\n        /* \"#utility.yul\":2143:2617   */\n      swap3\n      pop\n      swap3\n      swap1\n      pop\n      jump\t// out\n        /* \"#utility.yul\":2623:2741   */\n    tag_49:\n        /* \"#utility.yul\":2710:2734   */\n      tag_87\n        /* \"#utility.yul\":2728:2733   */\n      dup2\n        /* \"#utility.yul\":2710:2734   */\n      tag_44\n      jump\t// in\n    tag_87:\n        /* \"#utility.yul\":2705:2708   */\n      dup3\n        /* \"#utility.yul\":2698:2735   */\n      mstore\n        /* \"#utility.yul\":2623:2741   */\n      pop\n      pop\n      jump\t// out\n        /* \"#utility.yul\":2747:2969   */\n    tag_20:\n        /* \"#utility.yul\":2840:2844   */\n      0x00\n        /* \"#utility.yul\":2878:2880   */\n      0x20\n        /* \"#utility.yul\":2867:2876   */\n      dup3\n        /* \"#utility.yul\":2863:2881   */\n      add\n        /* \"#utility.yul\":2855:2881   */\n      swap1\n      pop\n        /* \"#utility.yul\":2891:2962   */\n      tag_89\n        /* \"#utility.yul\":2959:2960   */\n      0x00\n        /* \"#utility.yul\":2948:2957   */\n      dup4\n        /* \"#utility.yul\":2944:2961   */\n      add\n        /* \"#utility.yul\":2935:2941   */\n      dup5\n        /* \"#utility.yul\":2891:2962   */\n      tag_49\n      jump\t// in\n    tag_89:\n        /* \"#utility.yul\":2747:2969   */\n      swap3\n      swap2\n      pop\n      pop\n      jump\t// out\n        /* \"#utility.yul\":2975:3118   */\n    tag_50:\n        /* \"#utility.yul\":3032:3037   */\n      0x00\n        /* \"#utility.yul\":3063:3069   */\n      dup2\n        /* \"#utility.yul\":3057:3070   */\n      mload\n        /* \"#utility.yul\":3048:3070   */\n      swap1\n      pop\n        /* \"#utility.yul\":3079:3112   */\n      tag_91\n        /* \"#utility.yul\":3106:3111   */\n      dup2\n        /* \"#utility.yul\":3079:3112   */\n      tag_45\n      jump\t// in\n    tag_91:\n        /* \"#utility.yul\":2975:3118   */\n      swap3\n      swap2\n      pop\n      pop\n      jump\t// out\n        /* \"#utility.yul\":3124:3631   */\n    tag_24:\n        /* \"#utility.yul\":3203:3209   */\n      0x00\n        /* \"#utility.yul\":3211:3217   */\n      0x00\n        /* \"#utility.yul\":3260:3262   */\n      0x40\n        /* \"#utility.yul\":3248:3257   */\n      dup4\n        /* \"#utility.yul\":3239:3246   */\n      dup6\n        /* \"#utility.yul\":3235:3258   */\n      sub\n        /* \"#utility.yul\":3231:3263   */\n      slt\n        /* \"#utility.yul\":3228:3347   */\n      iszero\n      tag_93\n      jumpi\n        /* \"#utility.yul\":3266:3345   */\n      tag_94\n      tag_37\n      jump\t// in\n    tag_94:\n        /* \"#utility.yul\":3228:3347   */\n    tag_93:\n        /* \"#utility.yul\":3386:3387   */\n      0x00\n        /* \"#utility.yul\":3411:3475   */\n      tag_95\n        /* \"#utility.yul\":3467:3474   */\n      dup6\n        /* \"#utility.yul\":3458:3464   */\n      dup3\n        /* \"#utility.yul\":3447:3456   */\n      dup7\n        /* \"#utility.yul\":3443:3465   */\n      add\n        /* \"#utility.yul\":3411:3475   */\n      tag_50\n      jump\t// in\n    tag_95:\n        /* \"#utility.yul\":3401:3475   */\n      swap3\n      pop\n        /* \"#utility.yul\":3357:3485   */\n      pop\n        /* \"#utility.yul\":3524:3526   */\n      0x20\n        /* \"#utility.yul\":3550:3614   */\n      tag_96\n        /* \"#utility.yul\":3606:3613   */\n      dup6\n        /* \"#utility.yul\":3597:3603   */\n      dup3\n        /* \"#utility.yul\":3586:3595   */\n      dup7\n        /* \"#utility.yul\":3582:3604   */\n      add\n        /* \"#utility.yul\":3550:3614   */\n      tag_50\n      jump\t// in\n    tag_96:\n        /* \"#utility.yul\":3540:3614   */\n      swap2\n      pop\n        /* \"#utility.yul\":3495:3624   */\n      pop\n        /* \"#utility.yul\":3124:3631   */\n      swap3\n      pop\n      swap3\n      swap1\n      pop\n      jump\t// out\n        /* \"#utility.yul\":3637:3988   */\n    tag_30:\n        /* \"#utility.yul\":3707:3713   */\n      0x00\n        /* \"#utility.yul\":3756:3758   */\n      0x20\n        /* \"#utility.yul\":3744:3753   */\n      dup3\n        /* \"#utility.yul\":3735:3742   */\n      dup5\n        /* \"#utility.yul\":3731:3754   */\n      sub\n        /* \"#utility.yul\":3727:3759   */\n      slt\n        /* \"#utility.yul\":3724:3843   */\n      iszero\n      tag_98\n      jumpi\n        /* \"#utility.yul\":3762:3841   */\n      tag_99\n      tag_37\n      jump\t// in\n    tag_99:\n        /* \"#utility.yul\":3724:3843   */\n    tag_98:\n        /* \"#utility.yul\":3882:3883   */\n      0x00\n        /* \"#utility.yul\":3907:3971   */\n      tag_100\n        /* \"#utility.yul\":3963:3970   */\n      dup5\n        /* \"#utility.yul\":3954:3960   */\n      dup3\n        /* \"#utility.yul\":3943:3952   */\n      dup6\n        /* \"#utility.yul\":3939:3961   */\n      add\n        /* \"#utility.yul\":3907:3971   */\n      tag_50\n      jump\t// in\n    tag_100:\n        /* \"#utility.yul\":3897:3971   */\n      swap2\n      pop\n        /* \"#utility.yul\":3853:3981   */\n      pop\n        /* \"#utility.yul\":3637:3988   */\n      swap3\n      swap2\n      pop\n      pop\n      jump\t// out\n\n    auxdata: 0xa2646970667358221220aa79971a59a9ab9de6ab25ec0b64992dfd5889cd67c068511762e6a6339352e164736f6c634300081e0033\n}\n",
				"bytecode": {
					"linkReferences": {},
					"object": "6080604052348015600e575f5ffd5b506104508061001c5f395ff3fe608060405260043610610033575f3560e01c806327a9f474146100375780634a2ad99f14610053578063cb5870391461007b575b5f5ffd5b610051600480360381019061004c91906102cf565b6100a3565b005b34801561005e575f5ffd5b50610079600480360381019061007491906102cf565b610129565b005b348015610086575f5ffd5b506100a1600480360381019061009c9190610337565b6101aa565b005b5f5f8373ffffffffffffffffffffffffffffffffffffffff16638f52503f34856040518363ffffffff1660e01b81526004016100df9190610384565b604080518083038185885af11580156100fa573d5f5f3e3d5ffd5b50505050506040513d601f19601f8201168201806040525081019061011f91906103b1565b9150915050505050565b5f8273ffffffffffffffffffffffffffffffffffffffff16634018d9aa836040518263ffffffff1660e01b81526004016101639190610384565b6020604051808303815f875af115801561017f573d5f5f3e3d5ffd5b505050506040513d601f19601f820116820180604052508101906101a391906103ef565b9050505050565b5f8290508073ffffffffffffffffffffffffffffffffffffffff16634018d9aa836040518263ffffffff1660e01b81526004016101e79190610384565b6020604051808303815f875af1158015610203573d5f5f3e3d5ffd5b505050506040513d601f19601f8201168201806040525081019061022791906103ef565b50505050565b5f5ffd5b5f73ffffffffffffffffffffffffffffffffffffffff82169050919050565b5f61025a82610231565b9050919050565b5f61026b82610250565b9050919050565b61027b81610261565b8114610285575f5ffd5b50565b5f8135905061029681610272565b92915050565b5f819050919050565b6102ae8161029c565b81146102b8575f5ffd5b50565b5f813590506102c9816102a5565b92915050565b5f5f604083850312156102e5576102e461022d565b5b5f6102f285828601610288565b9250506020610303858286016102bb565b9150509250929050565b61031681610250565b8114610320575f5ffd5b50565b5f813590506103318161030d565b92915050565b5f5f6040838503121561034d5761034c61022d565b5b5f61035a85828601610323565b925050602061036b858286016102bb565b9150509250929050565b61037e8161029c565b82525050565b5f6020820190506103975f830184610375565b92915050565b5f815190506103ab816102a5565b92915050565b5f5f604083850312156103c7576103c661022d565b5b5f6103d48582860161039d565b92505060206103e58582860161039d565b9150509250929050565b5f602082840312156104045761040361022d565b5b5f6104118482850161039d565b9150509291505056fea2646970667358221220aa79971a59a9ab9de6ab25ec0b64992dfd5889cd67c068511762e6a6339352e164736f6c634300081e0033",
					"opcodes": "PUSH1 0x80 PUSH1 0x40 MSTORE CALLVALUE DUP1 ISZERO PUSH1 0xE JUMPI PUSH0 PUSH0 REVERT JUMPDEST POP PUSH2 0x450 DUP1 PUSH2 0x1C PUSH0 CODECOPY PUSH0 RETURN INVALID PUSH1 0x80 PUSH1 0x40 MSTORE PUSH1 0x4 CALLDATASIZE LT PUSH2 0x33 JUMPI PUSH0 CALLDATALOAD PUSH1 0xE0 SHR DUP1 PUSH4 0x27A9F474 EQ PUSH2 0x37 JUMPI DUP1 PUSH4 0x4A2AD99F EQ PUSH2 0x53 JUMPI DUP1 PUSH4 0xCB587039 EQ PUSH2 0x7B JUMPI JUMPDEST PUSH0 PUSH0 REVERT JUMPDEST PUSH2 0x51 PUSH1 0x4 DUP1 CALLDATASIZE SUB DUP2 ADD SWAP1 PUSH2 0x4C SWAP2 SWAP1 PUSH2 0x2CF JUMP JUMPDEST PUSH2 0xA3 JUMP JUMPDEST STOP JUMPDEST CALLVALUE DUP1 ISZERO PUSH2 0x5E JUMPI PUSH0 PUSH0 REVERT JUMPDEST POP PUSH2 0x79 PUSH1 0x4 DUP1 CALLDATASIZE SUB DUP2 ADD SWAP1 PUSH2 0x74 SWAP2 SWAP1 PUSH2 0x2CF JUMP JUMPDEST PUSH2 0x129 JUMP JUMPDEST STOP JUMPDEST CALLVALUE DUP1 ISZERO PUSH2 0x86 JUMPI PUSH0 PUSH0 REVERT JUMPDEST POP PUSH2 0xA1 PUSH1 0x4 DUP1 CALLDATASIZE SUB DUP2 ADD SWAP1 PUSH2 0x9C SWAP2 SWAP1 PUSH2 0x337 JUMP JUMPDEST PUSH2 0x1AA JUMP JUMPDEST STOP JUMPDEST PUSH0 PUSH0 DUP4 PUSH20 0xFFFFFFFFFFFFFFFFFFFFFFFFFFFFFFFFFFFFFFFF AND PUSH4 0x8F52503F CALLVALUE DUP6 PUSH1 0x40 MLOAD DUP4 PUSH4 0xFFFFFFFF AND PUSH1 0xE0 SHL DUP2 MSTORE PUSH1 0x4 ADD PUSH2 0xDF SWAP2 SWAP1 PUSH2 0x384 JUMP JUMPDEST PUSH1 0x40 DUP1 MLOAD DUP1 DUP4 SUB DUP2 DUP6 DUP9 GAS CALL ISZERO DUP1 ISZERO PUSH2 0xFA JUMPI RETURNDATASIZE PUSH0 PUSH0 RETURNDATACOPY RETURNDATASIZE PUSH0 REVERT JUMPDEST POP POP POP POP POP PUSH1 0x40 MLOAD RETURNDATASIZE PUSH1 0x1F NOT PUSH1 0x1F DUP3 ADD AND DUP3 ADD DUP1 PUSH1 0x40 MSTORE POP DUP2 ADD SWAP1 PUSH2 0x11F SWAP2 SWAP1 PUSH2 0x3B1 JUMP JUMPDEST SWAP2 POP SWAP2 POP POP POP POP POP JUMP JUMPDEST PUSH0 DUP3 PUSH20 0xFFFFFFFFFFFFFFFFFFFFFFFFFFFFFFFFFFFFFFFF AND PUSH4 0x4018D9AA DUP4 PUSH1 0x40 MLOAD DUP3 PUSH4 0xFFFFFFFF AND PUSH1 0xE0 SHL DUP2 MSTORE PUSH1 0x4 ADD PUSH2 0x163 SWAP2 SWAP1 PUSH2 0x384 JUMP JUMPDEST PUSH1 0x20 PUSH1 0x40 MLOAD DUP1 DUP4 SUB DUP2 PUSH0 DUP8 GAS CALL ISZERO DUP1 ISZERO PUSH2 0x17F JUMPI RETURNDATASIZE PUSH0 PUSH0 RETURNDATACOPY RETURNDATASIZE PUSH0 REVERT JUMPDEST POP POP POP POP PUSH1 0x40 MLOAD RETURNDATASIZE PUSH1 0x1F NOT PUSH1 0x1F DUP3 ADD AND DUP3 ADD DUP1 PUSH1 0x40 MSTORE POP DUP2 ADD SWAP1 PUSH2 0x1A3 SWAP2 SWAP1 PUSH2 0x3EF JUMP JUMPDEST SWAP1 POP POP POP POP JUMP JUMPDEST PUSH0 DUP3 SWAP1 POP DUP1 PUSH20 0xFFFFFFFFFFFFFFFFFFFFFFFFFFFFFFFFFFFFFFFF AND PUSH4 0x4018D9AA DUP4 PUSH1 0x40 MLOAD DUP3 PUSH4 0xFFFFFFFF AND PUSH1 0xE0 SHL DUP2 MSTORE PUSH1 0x4 ADD PUSH2 0x1E7 SWAP2 SWAP1 PUSH2 0x384 JUMP JUMPDEST PUSH1 0x20 PUSH1 0x40 MLOAD DUP1 DUP4 SUB DUP2 PUSH0 DUP8 GAS CALL ISZERO DUP1 ISZERO PUSH2 0x203 JUMPI RETURNDATASIZE PUSH0 PUSH0 RETURNDATACOPY RETURNDATASIZE PUSH0 REVERT JUMPDEST POP POP POP POP PUSH1 0x40 MLOAD RETURNDATASIZE PUSH1 0x1F NOT PUSH1 0x1F DUP3 ADD AND DUP3 ADD DUP1 PUSH1 0x40 MSTORE POP DUP2 ADD SWAP1 PUSH2 0x227 SWAP2 SWAP1 PUSH2 0x3EF JUMP JUMPDEST POP POP POP POP JUMP JUMPDEST PUSH0 PUSH0 REVERT JUMPDEST PUSH0 PUSH20 0xFFFFFFFFFFFFFFFFFFFFFFFFFFFFFFFFFFFFFFFF DUP3 AND SWAP1 POP SWAP2 SWAP1 POP JUMP JUMPDEST PUSH0 PUSH2 0x25A DUP3 PUSH2 0x231 JUMP JUMPDEST SWAP1 POP SWAP2 SWAP1 POP JUMP JUMPDEST PUSH0 PUSH2 0x26B DUP3 PUSH2 0x250 JUMP JUMPDEST SWAP1 POP SWAP2 SWAP1 POP JUMP JUMPDEST PUSH2 0x27B DUP2 PUSH2 0x261 JUMP JUMPDEST DUP2 EQ PUSH2 0x285 JUMPI PUSH0 PUSH0 REVERT JUMPDEST POP JUMP JUMPDEST PUSH0 DUP2 CALLDATALOAD SWAP1 POP PUSH2 0x296 DUP2 PUSH2 0x272 JUMP JUMPDEST SWAP3 SWAP2 POP POP JUMP JUMPDEST PUSH0 DUP2 SWAP1 POP SWAP2 SWAP1 POP JUMP JUMPDEST PUSH2 0x2AE DUP2 PUSH2 0x29C JUMP JUMPDEST DUP2 EQ PUSH2 0x2B8 JUMPI PUSH0 PUSH0 REVERT JUMPDEST POP JUMP JUMPDEST PUSH0 DUP2 CALLDATALOAD SWAP1 POP PUSH2 0x2C9 DUP2 PUSH2 0x2A5 JUMP JUMPDEST SWAP3 SWAP2 POP POP JUMP JUMPDEST PUSH0 PUSH0 PUSH1 0x40 DUP4 DUP6 SUB SLT ISZERO PUSH2 0x2E5 JUMPI PUSH2 0x2E4 PUSH2 0x22D JUMP JUMPDEST JUMPDEST PUSH0 PUSH2 0x2F2 DUP6 DUP3 DUP7 ADD PUSH2 0x288 JUMP JUMPDEST SWAP3 POP POP PUSH1 0x20 PUSH2 0x303 DUP6 DUP3 DUP7 ADD PUSH2 0x2BB JUMP JUMPDEST SWAP2 POP POP SWAP3 POP SWAP3 SWAP1 POP JUMP JUMPDEST PUSH2 0x316 DUP2 PUSH2 0x250 JUMP JUMPDEST DUP2 EQ PUSH2 0x320 JUMPI PUSH0 PUSH0 REVERT JUMPDEST POP JUMP JUMPDEST PUSH0 DUP2 CALLDATALOAD SWAP1 POP PUSH2 0x331 DUP2 PUSH2 0x30D JUMP JUMPDEST SWAP3 SWAP2 POP POP JUMP JUMPDEST PUSH0 PUSH0 PUSH1 0x40 DUP4 DUP6 SUB SLT ISZERO PUSH2 0x34D JUMPI PUSH2 0x34C PUSH2 0x22D JUMP JUMPDEST JUMPDEST PUSH0 PUSH2 0x35A DUP6 DUP3 DUP7 ADD PUSH2 0x323 JUMP JUMPDEST SWAP3 POP POP PUSH1 0x20 PUSH2 0x36B DUP6 DUP3 DUP7 ADD PUSH2 0x2BB JUMP JUMPDEST SWAP2 POP POP SWAP3 POP SWAP3 SWAP1 POP JUMP JUMPDEST PUSH2 0x37E DUP2 PUSH2 0x29C JUMP JUMPDEST DUP3 MSTORE POP POP JUMP JUMPDEST PUSH0 PUSH1 0x20 DUP3 ADD SWAP1 POP PUSH2 0x397 PUSH0 DUP4 ADD DUP5 PUSH2 0x375 JUMP JUMPDEST SWAP3 SWAP2 POP POP JUMP JUMPDEST PUSH0 DUP2 MLOAD SWAP1 POP PUSH2 0x3AB DUP2 PUSH2 0x2A5 JUMP JUMPDEST SWAP3 SWAP2 POP POP JUMP JUMPDEST PUSH0 PUSH0 PUSH1 0x40 DUP4 DUP6 SUB SLT ISZERO PUSH2 0x3C7 JUMPI PUSH2 0x3C6 PUSH2 0x22D JUMP JUMPDEST JUMPDEST PUSH0 PUSH2 0x3D4 DUP6 DUP3 DUP7 ADD PUSH2 0x39D JUMP JUMPDEST SWAP3 POP POP PUSH1 0x20 PUSH2 0x3E5 DUP6 DUP3 DUP7 ADD PUSH2 0x39D JUMP JUMPDEST SWAP2 POP POP SWAP3 POP SWAP3 SWAP1 POP JUMP JUMPDEST PUSH0 PUSH1 0x20 DUP3 DUP5 SUB SLT ISZERO PUSH2 0x404 JUMPI PUSH2 0x403 PUSH2 0x22D JUMP JUMPDEST JUMPDEST PUSH0 PUSH2 0x411 DUP5 DUP3 DUP6 ADD PUSH2 0x39D JUMP JUMPDEST SWAP2 POP POP SWAP3 SWAP2 POP POP JUMP INVALID LOG2 PUSH5 0x6970667358 0x22 SLT KECCAK256 0xAA PUSH26 0x971A59A9AB9DE6AB25EC0B64992DFD5889CD67C068511762E6A6 CALLER SWAP4 MSTORE RJUMPI 0x6473 PUSH16 0x6C634300081E00330000000000000000 "
				},
				"gasEstimates": {
					"creation": {
						"codeDepositCost": "220800",
						"executionCost": "261",
						"totalCost": "221061"
					},
					"external": {
						"setX(address,uint256)": "infinite",
						"setXAndSendEther(address,uint256)": "infinite",
						"setXFromAddress(address,uint256)": "infinite"
					}
				},
				"methodIdentifiers": {
					"setX(address,uint256)": "4a2ad99f",
					"setXAndSendEther(address,uint256)": "27a9f474",
					"setXFromAddress(address,uint256)": "cb587039"
				}
			},
			"storageLayout": {
				"storage": [],
				"types": null
			},
			"userdoc": {
				"kind": "user",
				"methods": {},
				"version": 1
			}
		}
	}
}