{
	"data": {
		"bytecode": {
			"linkReferences": {},
			"object": "6080604052348015600e575f5ffd5b506107fc8061001c5f395ff3fe608060405234801561000f575f5ffd5b5060043610610055575f3560e01c806306fdde0314610059578063262a9dff146100775780633bc5de3014610095578063c47f0027146100b4578063d5dcf127146100d0575b5f5ffd5b6100616100ec565b60405161006e91906102a2565b60405180910390f35b61007f610177565b60405161008c91906102da565b60405180910390f35b61009d61017d565b6040516100ab9291906102f3565b60405180910390f35b6100ce60048036038101906100c9919061045e565b610216565b005b6100ea60048036038101906100e591906104cf565b610228565b005b5f80546100f890610527565b80601f016020809104026020016040519081016040528092919081815260200182805461012490610527565b801561016f5780601f106101465761010080835404028352916020019161016f565b820191905f5260205f20905b81548152906001019060200180831161015257829003601f168201915b505050505081565b60015481565b60605f5f60015481805461019090610527565b80601f01602080910402602001604051908101604052809291908181526020018280546101bc90610527565b80156102075780601f106101de57610100808354040283529160200191610207565b820191905f5260205f20905b8154815290600101906020018083116101ea57829003601f168201915b50505050509150915091509091565b805f908161022491906106f7565b5050565b8060018190555050565b5f81519050919050565b5f82825260208201905092915050565b8281835e5f83830152505050565b5f601f19601f8301169050919050565b5f61027482610232565b61027e818561023c565b935061028e81856020860161024c565b6102978161025a565b840191505092915050565b5f6020820190508181035f8301526102ba818461026a565b905092915050565b5f819050919050565b6102d4816102c2565b82525050565b5f6020820190506102ed5f8301846102cb565b92915050565b5f6040820190508181035f83015261030b818561026a565b905061031a60208301846102cb565b9392505050565b5f604051905090565b5f5ffd5b5f5ffd5b5f5ffd5b5f5ffd5b7f4e487b71000000000000000000000000000000000000000000000000000000005f52604160045260245ffd5b6103708261025a565b810181811067ffffffffffffffff8211171561038f5761038e61033a565b5b80604052505050565b5f6103a1610321565b90506103ad8282610367565b919050565b5f67ffffffffffffffff8211156103cc576103cb61033a565b5b6103d58261025a565b9050602081019050919050565b828183375f83830152505050565b5f6104026103fd846103b2565b610398565b90508281526020810184848401111561041e5761041d610336565b5b6104298482856103e2565b509392505050565b5f82601f83011261044557610444610332565b5b81356104558482602086016103f0565b91505092915050565b5f602082840312156104735761047261032a565b5b5f82013567ffffffffffffffff8111156104905761048f61032e565b5b61049c84828501610431565b91505092915050565b6104ae816102c2565b81146104b8575f5ffd5b50565b5f813590506104c9816104a5565b92915050565b5f602082840312156104e4576104e361032a565b5b5f6104f1848285016104bb565b91505092915050565b7f4e487b71000000000000000000000000000000000000000000000000000000005f52602260045260245ffd5b5f600282049050600182168061053e57607f821691505b602082108103610551576105506104fa565b5b50919050565b5f819050815f5260205f209050919050565b5f6020601f8301049050919050565b5f82821b905092915050565b5f600883026105b37fffffffffffffffffffffffffffffffffffffffffffffffffffffffffffffffff82610578565b6105bd8683610578565b95508019841693508086168417925050509392505050565b5f819050919050565b5f6105f86105f36105ee846102c2565b6105d5565b6102c2565b9050919050565b5f819050919050565b610611836105de565b61062561061d826105ff565b848454610584565b825550505050565b5f5f905090565b61063c61062d565b610647818484610608565b505050565b5b8181101561066a5761065f5f82610634565b60018101905061064d565b5050565b601f8211156106af5761068081610557565b61068984610569565b81016020851015610698578190505b6106ac6106a485610569565b83018261064c565b50505b505050565b5f82821c905092915050565b5f6106cf5f19846008026106b4565b1980831691505092915050565b5f6106e783836106c0565b9150826002028217905092915050565b61070082610232565b67ffffffffffffffff8111156107195761071861033a565b5b6107238254610527565b61072e82828561066e565b5f60209050601f83116001811461075f575f841561074d578287015190505b61075785826106dc565b8655506107be565b601f19841661076d86610557565b5f5b828110156107945784890151825560018201915060208501945060208101905061076f565b868310156107b157848901516107ad601f8916826106c0565b8355505b6001600288020188555050505b50505050505056fea2646970667358221220171666c12e797a35482b218a62bd4e005ae5d5fccee61568cf36458c8c8c6eb864736f6c634300081e0033",
			"opcodes": "PUSH1 0x80 PUSH1 0x40 MSTORE CALLVALUE DUP1 ISZERO PUSH1 0xE JUMPI PUSH0 PUSH0 REVERT JUMPDEST POP PUSH2 0x7FC DUP1 PUSH2 0x1C PUSH0 CODECOPY PUSH0 RETURN INVALID PUSH1 0x80 PUSH1 0x40 MSTORE CALLVALUE DUP1 ISZERO PUSH2 0xF JUMPI PUSH0 PUSH0 REVERT JUMPDEST POP PUSH1 0x4 CALLDATASIZE LT PUSH2 0x55 JUMPI PUSH0 CALLDATALOAD PUSH1 0xE0 SHR DUP1 PUSH4 0x6FDDE03 EQ PUSH2 0x59 JUMPI DUP1 PUSH4 0x262A9DFF EQ PUSH2 0x77 JUMPI DUP1 PUSH4 0x3BC5DE30 EQ PUSH2 0x95 JUMPI DUP1 PUSH4 0xC47F0027 EQ PUSH2 0xB4 JUMPI DUP1 PUSH4 0xD5DCF127 EQ PUSH2 0xD0 JUMPI JUMPDEST PUSH0 PUSH0 REVERT JUMPDEST PUSH2 0x61 PUSH2 0xEC JUMP JUMPDEST PUSH1 0x40 MLOAD PUSH2 0x6E SWAP2 SWAP1 PUSH2 0x2A2 JUMP JUMPDEST PUSH1 0x40 MLOAD DUP1 SWAP2 SUB SWAP1 RETURN JUMPDEST PUSH2 0x7F PUSH2 0x177 JUMP JUMPDEST PUSH1 0x40 MLOAD PUSH2 0x8C SWAP2 SWAP1 PUSH2 0x2DA JUMP JUMPDEST PUSH1 0x40 MLOAD DUP1 SWAP2 SUB SWAP1 RETURN JUMPDEST PUSH2 0x9D PUSH2 0x17D JUMP JUMPDEST PUSH1 0x40 MLOAD PUSH2 0xAB SWAP3 SWAP2 SWAP1 PUSH2 0x2F3 JUMP JUMPDEST PUSH1 0x40 MLOAD DUP1 SWAP2 SUB SWAP1 RETURN JUMPDEST PUSH2 0xCE PUSH1 0x4 DUP1 CALLDATASIZE SUB DUP2 ADD SWAP1 PUSH2 0xC9 SWAP2 SWAP1 PUSH2 0x45E JUMP JUMPDEST PUSH2 0x216 JUMP JUMPDEST STOP JUMPDEST PUSH2 0xEA PUSH1 0x4 DUP1 CALLDATASIZE SUB DUP2 ADD SWAP1 PUSH2 0xE5 SWAP2 SWAP1 PUSH2 0x4CF JUMP JUMPDEST PUSH2 0x228 JUMP JUMPDEST STOP JUMPDEST PUSH0 DUP1 SLOAD PUSH2 0xF8 SWAP1 PUSH2 0x527 JUMP JUMPDEST DUP1 PUSH1 0x1F ADD PUSH1 0x20 DUP1 SWAP2 DIV MUL PUSH1 0x20 ADD PUSH1 0x40 MLOAD SWAP1 DUP2 ADD PUSH1 0x40 MSTORE DUP1 SWAP3 SWAP2 SWAP1 DUP2 DUP2 MSTORE PUSH1 0x20 ADD DUP3 DUP1 SLOAD PUSH2 0x124 SWAP1 PUSH2 0x527 JUMP JUMPDEST DUP1 ISZERO PUSH2 0x16F JUMPI DUP1 PUSH1 0x1F LT PUSH2 0x146 JUMPI PUSH2 0x100 DUP1 DUP4 SLOAD DIV MUL DUP4 MSTORE SWAP2 PUSH1 0x20 ADD SWAP2 PUSH2 0x16F JUMP JUMPDEST DUP3 ADD SWAP2 SWAP1 PUSH0 MSTORE PUSH1 0x20 PUSH0 KECCAK256 SWAP1 JUMPDEST DUP2 SLOAD DUP2 MSTORE SWAP1 PUSH1 0x1 ADD SWAP1 PUSH1 0x20 ADD DUP1 DUP4 GT PUSH2 0x152 JUMPI DUP3 SWAP1 SUB PUSH1 0x1F AND DUP3 ADD SWAP2 JUMPDEST POP POP POP POP POP DUP2 JUMP JUMPDEST PUSH1 0x1 SLOAD DUP2 JUMP JUMPDEST PUSH1 0x60 PUSH0 PUSH0 PUSH1 0x1 SLOAD DUP2 DUP1 SLOAD PUSH2 0x190 SWAP1 PUSH2 0x527 JUMP JUMPDEST DUP1 PUSH1 0x1F ADD PUSH1 0x20 DUP1 SWAP2 DIV MUL PUSH1 0x20 ADD PUSH1 0x40 MLOAD SWAP1 DUP2 ADD PUSH1 0x40 MSTORE DUP1 SWAP3 SWAP2 SWAP1 DUP2 DUP2 MSTORE PUSH1 0x20 ADD DUP3 DUP1 SLOAD PUSH2 0x1BC SWAP1 PUSH2 0x527 JUMP JUMPDEST DUP1 ISZERO PUSH2 0x207 JUMPI DUP1 PUSH1 0x1F LT PUSH2 0x1DE JUMPI PUSH2 0x100 DUP1 DUP4 SLOAD DIV MUL DUP4 MSTORE SWAP2 PUSH1 0x20 ADD SWAP2 PUSH2 0x207 JUMP JUMPDEST DUP3 ADD SWAP2 SWAP1 PUSH0 MSTORE PUSH1 0x20 PUSH0 KECCAK256 SWAP1 JUMPDEST DUP2 SLOAD DUP2 MSTORE SWAP1 PUSH1 0x1 ADD SWAP1 PUSH1 0x20 ADD DUP1 DUP4 GT PUSH2 0x1EA JUMPI DUP3 SWAP1 SUB PUSH1 0x1F AND DUP3 ADD SWAP2 JUMPDEST POP POP POP POP POP SWAP2 POP SWAP2 POP SWAP2 POP SWAP1 SWAP2 JUMP JUMPDEST DUP1 PUSH0 SWAP1 DUP2 PUSH2 0x224 SWAP2 SWAP1 PUSH2 0x6F7 JUMP JUMPDEST POP POP JUMP JUMPDEST DUP1 PUSH1 0x1 DUP2 SWAP1 SSTORE POP POP JUMP JUMPDEST PUSH0 DUP2 MLOAD SWAP1 POP SWAP2 SWAP1 POP JUMP JUMPDEST PUSH0 DUP3 DUP3 MSTORE PUSH1 0x20 DUP3 ADD SWAP1 POP SWAP3 SWAP2 POP POP JUMP JUMPDEST DUP3 DUP2 DUP4 MCOPY PUSH0 DUP4 DUP4 ADD MSTORE POP POP POP JUMP JUMPDEST PUSH0 PUSH1 0x1F NOT PUSH1 0x1F DUP4 ADD AND SWAP1 POP SWAP2 SWAP1 POP JUMP JUMPDEST PUSH0 PUSH2 0x274 DUP3 PUSH2 0x232 JUMP JUMPDEST PUSH2 0x27E DUP2 DUP6 PUSH2 0x23C JUMP JUMPDEST SWAP4 POP PUSH2 0x28E DUP2 DUP6 PUSH1 0x20 DUP7 ADD PUSH2 0x24C JUMP JUMPDEST PUSH2 0x297 DUP2 PUSH2 0x25A JUMP JUMPDEST DUP5 ADD SWAP2 POP POP SWAP3 SWAP2 POP POP JUMP JUMPDEST PUSH0 PUSH1 0x20 DUP3 ADD SWAP1 POP DUP2 DUP2 SUB PUSH0 DUP4 ADD MSTORE PUSH2 0x2BA DUP2 DUP5 PUSH2 0x26A JUMP JUMPDEST SWAP1 POP SWAP3 SWAP2 POP POP JUMP JUMPDEST PUSH0 DUP2 SWAP1 POP SWAP2 SWAP1 POP JUMP JUMPDEST PUSH2 0x2D4 DUP2 PUSH2 0x2C2 JUMP JUMPDEST DUP3 MSTORE POP POP JUMP JUMPDEST PUSH0 PUSH1 0x20 DUP3 ADD SWAP1 POP PUSH2 0x2ED PUSH0 DUP4 ADD DUP5 PUSH2 0x2CB JUMP JUMPDEST SWAP3 SWAP2 POP POP JUMP JUMPDEST PUSH0 PUSH1 0x40 DUP3 ADD SWAP1 POP DUP2 DUP2 SUB PUSH0 DUP4 ADD MSTORE PUSH2 0x30B DUP2 DUP6 PUSH2 0x26A JUMP JUMPDEST SWAP1 POP PUSH2 0x31A PUSH1 0x20 DUP4 ADD DUP5 PUSH2 0x2CB JUMP JUMPDEST SWAP4 SWAP3 POP POP POP JUMP JUMPDEST PUSH0 PUSH1 0x40 MLOAD SWAP1 POP SWAP1 JUMP JUMPDEST PUSH0 PUSH0 REVERT JUMPDEST PUSH0 PUSH0 REVERT JUMPDEST PUSH0 PUSH0 REVERT JUMPDEST PUSH0 PUSH0 REVERT JUMPDEST PUSH32 0x4E487B7100000000000000000000000000000000000000000000000000000000 PUSH0 MSTORE PUSH1 0x41 PUSH1 0x4 MSTORE PUSH1 0x24 PUSH0 REVERT JUMPDEST PUSH2 0x370 DUP3 PUSH2 0x25A JUMP JUMPDEST DUP2 ADD DUP2 DUP2 LT PUSH8 0xFFFFFFFFFFFFFFFF DUP3 GT OR ISZERO PUSH2 0x38F JUMPI PUSH2 0x38E PUSH2 0x33A JUMP JUMPDEST JUMPDEST DUP1 PUSH1 0x40 MSTORE POP POP POP JUMP JUMPDEST PUSH0 PUSH2 0x3A1 PUSH2 0x321 JUMP JUMPDEST SWAP1 POP PUSH2 0x3AD DUP3 DUP3 PUSH2 0x367 JUMP JUMPDEST SWAP2 SWAP1 POP JUMP JUMPDEST PUSH0 PUSH8 0xFFFFFFFFFFFFFFFF DUP3 GT ISZERO PUSH2 0x3CC JUMPI PUSH2 0x3CB PUSH2 0x33A JUMP JUMPDEST JUMPDEST PUSH2 0x3D5 DUP3 PUSH2 0x25A JUMP JUMPDEST SWAP1 POP PUSH1 0x20 DUP2 ADD SWAP1 POP SWAP2 SWAP1 POP JUMP JUMPDEST DUP3 DUP2 DUP4 CALLDATACOPY PUSH0 DUP4 DUP4 ADD MSTORE POP POP POP JUMP JUMPDEST PUSH0 PUSH2 0x402 PUSH2 0x3FD DUP5 PUSH2 0x3B2 JUMP JUMPDEST PUSH2 0x398 JUMP JUMPDEST SWAP1 POP DUP3 DUP2 MSTORE PUSH1 0x20 DUP2 ADD DUP5 DUP5 DUP5 ADD GT ISZERO PUSH2 0x41E JUMPI PUSH2 0x41D PUSH2 0x336 JUMP JUMPDEST JUMPDEST PUSH2 0x429 DUP5 DUP3 DUP6 PUSH2 0x3E2 JUMP JUMPDEST POP SWAP4 SWAP3 POP POP POP JUMP JUMPDEST PUSH0 DUP3 PUSH1 0x1F DUP4 ADD SLT PUSH2 0x445 JUMPI PUSH2 0x444 PUSH2 0x332 JUMP JUMPDEST JUMPDEST DUP2 CALLDATALOAD PUSH2 0x455 DUP5 DUP3 PUSH1 0x20 DUP7 ADD PUSH2 0x3F0 JUMP JUMPDEST SWAP2 POP POP SWAP3 SWAP2 POP POP JUMP JUMPDEST PUSH0 PUSH1 0x20 DUP3 DUP5 SUB SLT ISZERO PUSH2 0x473 JUMPI PUSH2 0x472 PUSH2 0x32A JUMP JUMPDEST JUMPDEST PUSH0 DUP3 ADD CALLDATALOAD PUSH8 0xFFFFFFFFFFFFFFFF DUP2 GT ISZERO PUSH2 0x490 JUMPI PUSH2 0x48F PUSH2 0x32E JUMP JUMPDEST JUMPDEST PUSH2 0x49C DUP5 DUP3 DUP6 ADD PUSH2 0x431 JUMP JUMPDEST SWAP2 POP POP SWAP3 SWAP2 POP POP JUMP JUMPDEST PUSH2 0x4AE DUP2 PUSH2 0x2C2 JUMP JUMPDEST DUP2 EQ PUSH2 0x4B8 JUMPI PUSH0 PUSH0 REVERT JUMPDEST POP JUMP JUMPDEST PUSH0 DUP2 CALLDATALOAD SWAP1 POP PUSH2 0x4C9 DUP2 PUSH2 0x4A5 JUMP JUMPDEST SWAP3 SWAP2 POP POP JUMP JUMPDEST PUSH0 PUSH1 0x20 DUP3 DUP5 SUB SLT ISZERO PUSH2 0x4E4 JUMPI PUSH2 0x4E3 PUSH2 0x32A JUMP JUMPDEST JUMPDEST PUSH0 PUSH2 0x4F1 DUP5 DUP3 DUP6 ADD PUSH2 0x4BB JUMP JUMPDEST SWAP2 POP POP SWAP3 SWAP2 POP POP JUMP JUMPDEST PUSH32 0x4E487B7100000000000000000000000000000000000000000000000000000000 PUSH0 MSTORE PUSH1 0x22 PUSH1 0x4 MSTORE PUSH1 0x24 PUSH0 REVERT JUMPDEST PUSH0 PUSH1 0x2 DUP3 DIV SWAP1 POP PUSH1 0x1 DUP3 AND DUP1 PUSH2 0x53E JUMPI PUSH1 0x7F DUP3 AND SWAP2 POP JUMPDEST PUSH1 0x20 DUP3 LT DUP2 SUB PUSH2 0x551 JUMPI PUSH2 0x550 PUSH2 0x4FA JUMP JUMPDEST JUMPDEST POP SWAP2 SWAP1 POP JUMP JUMPDEST PUSH0 DUP2 SWAP1 POP DUP2 PUSH0 MSTORE PUSH1 0x20 PUSH0 KECCAK256 SWAP1 POP SWAP2 SWAP1 POP JUMP JUMPDEST PUSH0 PUSH1 0x20 PUSH1 0x1F DUP4 ADD DIV SWAP1 POP SWAP2 SWAP1 POP JUMP JUMPDEST PUSH0 DUP3 DUP3 SHL SWAP1 POP SWAP3 SWAP2 POP POP JUMP JUMPDEST PUSH0 PUSH1 0x8 DUP4 MUL PUSH2 0x5B3 PUSH32 0xFFFFFFFFFFFFFFFFFFFFFFFFFFFFFFFFFFFFFFFFFFFFFFFFFFFFFFFFFFFFFFFF DUP3 PUSH2 0x578 JUMP JUMPDEST PUSH2 0x5BD DUP7 DUP4 PUSH2 0x578 JUMP JUMPDEST SWAP6 POP DUP1 NOT DUP5 AND SWAP4 POP DUP1 DUP7 AND DUP5 OR SWAP3 POP POP POP SWAP4 SWAP3 POP POP POP JUMP JUMPDEST PUSH0 DUP2 SWAP1 POP SWAP2 SWAP1 POP JUMP JUMPDEST PUSH0 PUSH2 0x5F8 PUSH2 0x5F3 PUSH2 0x5EE DUP5 PUSH2 0x2C2 JUMP JUMPDEST PUSH2 0x5D5 JUMP JUMPDEST PUSH2 0x2C2 JUMP JUMPDEST SWAP1 POP SWAP2 SWAP1 POP JUMP JUMPDEST PUSH0 DUP2 SWAP1 POP SWAP2 SWAP1 POP JUMP JUMPDEST PUSH2 0x611 DUP4 PUSH2 0x5DE JUMP JUMPDEST PUSH2 0x625 PUSH2 0x61D DUP3 PUSH2 0x5FF JUMP JUMPDEST DUP5 DUP5 SLOAD PUSH2 0x584 JUMP JUMPDEST DUP3 SSTORE POP POP POP POP JUMP JUMPDEST PUSH0 PUSH0 SWAP1 POP SWAP1 JUMP JUMPDEST PUSH2 0x63C PUSH2 0x62D JUMP JUMPDEST PUSH2 0x647 DUP2 DUP5 DUP5 PUSH2 0x608 JUMP JUMPDEST POP POP POP JUMP JUMPDEST JUMPDEST DUP2 DUP2 LT ISZERO PUSH2 0x66A JUMPI PUSH2 0x65F PUSH0 DUP3 PUSH2 0x634 JUMP JUMPDEST PUSH1 0x1 DUP2 ADD SWAP1 POP PUSH2 0x64D JUMP JUMPDEST POP POP JUMP JUMPDEST PUSH1 0x1F DUP3 GT ISZERO PUSH2 0x6AF JUMPI PUSH2 0x680 DUP2 PUSH2 0x557 JUMP JUMPDEST PUSH2 0x689 DUP5 PUSH2 0x569 JUMP JUMPDEST DUP2 ADD PUSH1 0x20 DUP6 LT ISZERO PUSH2 0x698 JUMPI DUP2 SWAP1 POP JUMPDEST PUSH2 0x6AC PUSH2 0x6A4 DUP6 PUSH2 0x569 JUMP JUMPDEST DUP4 ADD DUP3 PUSH2 0x64C JUMP JUMPDEST POP POP JUMPDEST POP POP POP JUMP JUMPDEST PUSH0 DUP3 DUP3 SHR SWAP1 POP SWAP3 SWAP2 POP POP JUMP JUMPDEST PUSH0 PUSH2 0x6CF PUSH0 NOT DUP5 PUSH1 0x8 MUL PUSH2 0x6B4 JUMP JUMPDEST NOT DUP1 DUP4 AND SWAP2 POP POP SWAP3 SWAP2 POP POP JUMP JUMPDEST PUSH0 PUSH2 0x6E7 DUP4 DUP4 PUSH2 0x6C0 JUMP JUMPDEST SWAP2 POP DUP3 PUSH1 0x2 MUL DUP3 OR SWAP1 POP SWAP3 SWAP2 POP POP JUMP JUMPDEST PUSH2 0x700 DUP3 PUSH2 0x232 JUMP JUMPDEST PUSH8 0xFFFFFFFFFFFFFFFF DUP2 GT ISZERO PUSH2 0x719 JUMPI PUSH2 0x718 PUSH2 0x33A JUMP JUMPDEST JUMPDEST PUSH2 0x723 DUP3 SLOAD PUSH2 0x527 JUMP JUMPDEST PUSH2 0x72E DUP3 DUP3 DUP6 PUSH2 0x66E JUMP JUMPDEST PUSH0 PUSH1 0x20 SWAP1 POP PUSH1 0x1F DUP4 GT PUSH1 0x1 DUP2 EQ PUSH2 0x75F JUMPI PUSH0 DUP5 ISZERO PUSH2 0x74D JUMPI DUP3 DUP8 ADD MLOAD SWAP1 POP JUMPDEST PUSH2 0x757 DUP6 DUP3 PUSH2 0x6DC JUMP JUMPDEST DUP7 SSTORE POP PUSH2 0x7BE JUMP JUMPDEST PUSH1 0x1F NOT DUP5 AND PUSH2 0x76D DUP7 PUSH2 0x557 JUMP JUMPDEST PUSH0 JUMPDEST DUP3 DUP2 LT ISZERO PUSH2 0x794 JUMPI DUP5 DUP10 ADD MLOAD DUP3 SSTORE PUSH1 0x1 DUP3 ADD SWAP2 POP PUSH1 0x20 DUP6 ADD SWAP5 POP PUSH1 0x20 DUP2 ADD SWAP1 POP PUSH2 0x76F JUMP JUMPDEST DUP7 DUP4 LT ISZERO PUSH2 0x7B1 JUMPI DUP5 DUP10 ADD MLOAD PUSH2 0x7AD PUSH1 0x1F DUP10 AND DUP3 PUSH2 0x6C0 JUMP JUMPDEST DUP4 SSTORE POP JUMPDEST PUSH1 0x1 PUSH1 0x2 DUP9 MUL ADD DUP9 SSTORE POP POP POP JUMPDEST POP POP POP POP POP POP JUMP INVALID LOG2 PUSH5 0x6970667358 0x22 SLT KECCAK256 OR AND PUSH7 0xC12E797A35482B 0x21 DUP11 PUSH3 0xBD4E00 GAS JUMPF 0xD5FC 0xCE DUPN 0x15 PUSH9 0xCF36458C8C8C6EB864 PUSH20 0x6F6C634300081E00330000000000000000000000 "
		},
		"gasEstimates": {
			"creation": {
				"codeDepositCost": "408800",
				"executionCost": "441",
				"totalCost": "409241"
			},
			"external": {
				"age()": "2425",
				"getData()": "infinite",
				"name()": "infinite",
				"setAge(uint256)": "22581",
				"setName(string)": "infinite"
			}
		},
		"methodIdentifiers": {
			"age()": "262a9dff",
			"getData()": "3bc5de30",
			"name()": "06fdde03",
			"setAge(uint256)": "d5dcf127",
			"setName(string)": "c47f0027"
		}
	},
	"abi": [
		{
			"inputs": [],
			"name": "age",
			"outputs": [
				{
					"internalType": "uint256",
					"name": "",
					"type": "uint256"
				}
			],
			"stateMutability": "view",
			"type": "function"
		},
		{
			"inputs": [],
			"name": "getData",
			"outputs": [
				{
					"internalType": "string",
					"name": "",
					"type": "string"
				},
				{
					"internalType": "uint256",
					"name": "",
					"type": "uint256"
				}
			],
			"stateMutability": "view",
			"type": "function"
		},
		{
			"inputs": [],
			"name": "name",
			"outputs": [
				{
					"internalType": "string",
					"name": "",
					"type": "string"
				}
			],
			"stateMutability": "view",
			"type": "function"
		},
		{
			"inputs": [
				{
					"internalType": "uint256",
					"name": "_age",
					"type": "uint256"
				}
			],
			"name": "setAge",
			"outputs": [],
			"stateMutability": "nonpayable",
			"type": "function"
		},
		{
			"inputs": [
				{
					"internalType": "string",
					"name": "_name",
					"type": "string"
				}
			],
			"name": "setName",
			"outputs": [],
			"stateMutability": "nonpayable",
			"type": "function"
		}
	]
}