{
	"data": {
		"bytecode": {
			"linkReferences": {},
			"object": "6080604052600c60075560026009556001600a5534801561001e575f5ffd5b506040518060400160405280600c81526020017f4d79436f6c6c656374696f6e00000000000000000000000000000000000000008152506040518060400160405280600681526020017f53796d626f6c0000000000000000000000000000000000000000000000000000815250815f908161009991906102ee565b5080600190816100a991906102ee565b5050506103bd565b5f81519050919050565b7f4e487b71000000000000000000000000000000000000000000000000000000005f52604160045260245ffd5b7f4e487b71000000000000000000000000000000000000000000000000000000005f52602260045260245ffd5b5f600282049050600182168061012c57607f821691505b60208210810361013f5761013e6100e8565b5b50919050565b5f819050815f5260205f209050919050565b5f6020601f8301049050919050565b5f82821b905092915050565b5f600883026101a17fffffffffffffffffffffffffffffffffffffffffffffffffffffffffffffffff82610166565b6101ab8683610166565b95508019841693508086168417925050509392505050565b5f819050919050565b5f819050919050565b5f6101ef6101ea6101e5846101c3565b6101cc565b6101c3565b9050919050565b5f819050919050565b610208836101d5565b61021c610214826101f6565b848454610172565b825550505050565b5f5f905090565b610233610224565b61023e8184846101ff565b505050565b5b81811015610261576102565f8261022b565b600181019050610244565b5050565b601f8211156102a65761027781610145565b61028084610157565b8101602085101561028f578190505b6102a361029b85610157565b830182610243565b50505b505050565b5f82821c905092915050565b5f6102c65f19846008026102ab565b1980831691505092915050565b5f6102de83836102b7565b9150826002028217905092915050565b6102f7826100b1565b67ffffffffffffffff8111156103105761030f6100bb565b5b61031a8254610115565b610325828285610265565b5f60209050601f831160018114610356575f8415610344578287015190505b61034e85826102d3565b8655506103b5565b601f19841661036486610145565b5f5b8281101561038b57848901518255600182019150602085019450602081019050610366565b868310156103a857848901516103a4601f8916826102b7565b8355505b6001600288020188555050505b505050505050565b612133806103ca5f395ff3fe608060405260043610610108575f3560e01c80636352211e11610094578063b88d4fde11610063578063b88d4fde14610372578063c87b56dd1461039a578063cfa150a5146103d6578063e985e9c514610412578063f8bf1af01461044e57610108565b80636352211e146102a857806370a08231146102e457806395d89b4114610320578063a22cb4651461034a57610108565b806323b872dd116100db57806323b872dd146101d657806339e1dee8146101fe57806340c10f191461023a57806342842e0e146102565780635986144e1461027e57610108565b806301ffc9a71461010c57806306fdde0314610148578063081812fc14610172578063095ea7b3146101ae575b5f5ffd5b348015610117575f5ffd5b50610132600480360381019061012d9190611937565b610478565b60405161013f919061197c565b60405180910390f35b348015610153575f5ffd5b5061015c610559565b6040516101699190611a05565b60405180910390f35b34801561017d575f5ffd5b5061019860048036038101906101939190611a58565b6105e8565b6040516101a59190611ac2565b60405180910390f35b3480156101b9575f5ffd5b506101d460048036038101906101cf9190611b05565b610603565b005b3480156101e1575f5ffd5b506101fc60048036038101906101f79190611b43565b610619565b005b348015610209575f5ffd5b50610224600480360381019061021f9190611a58565b610718565b6040516102319190611ac2565b60405180910390f35b610254600480360381019061024f9190611b05565b610753565b005b348015610261575f5ffd5b5061027c60048036038101906102779190611b43565b61078f565b005b348015610289575f5ffd5b506102926107ae565b60405161029f9190611a05565b60405180910390f35b3480156102b3575f5ffd5b506102ce60048036038101906102c99190611a58565b6108d0565b6040516102db9190611ac2565b60405180910390f35b3480156102ef575f5ffd5b5061030a60048036038101906103059190611b93565b6108e1565b6040516103179190611bcd565b60405180910390f35b34801561032b575f5ffd5b50610334610997565b6040516103419190611a05565b60405180910390f35b348015610355575f5ffd5b50610370600480360381019061036b9190611c10565b610a27565b005b34801561037d575f5ffd5b5061039860048036038101906103939190611d7a565b610a3d565b005b3480156103a5575f5ffd5b506103c060048036038101906103bb9190611a58565b610a62565b6040516103cd9190611a05565b60405180910390f35b3480156103e1575f5ffd5b506103fc60048036038101906103f79190611b93565b610ac8565b6040516104099190611bcd565b60405180910390f35b34801561041d575f5ffd5b5061043860048036038101906104339190611dfa565b610add565b604051610445919061197c565b60405180910390f35b348015610459575f5ffd5b50610462610b6b565b60405161046f9190611bcd565b60405180910390f35b5f7f80ac58cd000000000000000000000000000000000000000000000000000000007bffffffffffffffffffffffffffffffffffffffffffffffffffffffff1916827bffffffffffffffffffffffffffffffffffffffffffffffffffffffff1916148061054257507f5b5e139f000000000000000000000000000000000000000000000000000000007bffffffffffffffffffffffffffffffffffffffffffffffffffffffff1916827bffffffffffffffffffffffffffffffffffffffffffffffffffffffff1916145b80610552575061055182610b71565b5b9050919050565b60605f805461056790611e65565b80601f016020809104026020016040519081016040528092919081815260200182805461059390611e65565b80156105de5780601f106105b5576101008083540402835291602001916105de565b820191905f5260205f20905b8154815290600101906020018083116105c157829003601f168201915b5050505050905090565b5f6105f282610bda565b506105fc82610c60565b9050919050565b6106158282610610610c99565b610ca0565b5050565b5f73ffffffffffffffffffffffffffffffffffffffff168273ffffffffffffffffffffffffffffffffffffffff1603610689575f6040517f64a0ae920000000000000000000000000000000000000000000000000000000081526004016106809190611ac2565b60405180910390fd5b5f61069c8383610697610c99565b610cb2565b90508373ffffffffffffffffffffffffffffffffffffffff168173ffffffffffffffffffffffffffffffffffffffff1614610712578382826040517f64283d7b00000000000000000000000000000000000000000000000000000000815260040161070993929190611e95565b60405180910390fd5b50505050565b600c8181548110610727575f80fd5b905f5260205f20015f915054906101000a900473ffffffffffffffffffffffffffffffffffffffff1681565b5f5f90505b8181101561078a5761076a6006610ebd565b61077d836107786006610ed1565b610edd565b8080600101915050610758565b505050565b6107a983838360405180602001604052805f815250610a3d565b505050565b60605f5f90505b6007548110156108345760085f8154809291906107d190611ef7565b9190505550600a546009546107e69190611f3e565b600b5f3373ffffffffffffffffffffffffffffffffffffffff1673ffffffffffffffffffffffffffffffffffffffff1681526020019081526020015f208190555080806001019150506107b5565b50600c33908060018154018082558091505060019003905f5260205f20015f9091909190916101000a81548173ffffffffffffffffffffffffffffffffffffffff021916908373ffffffffffffffffffffffffffffffffffffffff1602179055506040518060400160405280601481526020017f6d61697320756d20626f6c6f2070726f6e746f21000000000000000000000000815250905090565b5f6108da82610bda565b9050919050565b5f5f73ffffffffffffffffffffffffffffffffffffffff168273ffffffffffffffffffffffffffffffffffffffff1603610952575f6040517f89c62b640000000000000000000000000000000000000000000000000000000081526004016109499190611ac2565b60405180910390fd5b60035f8373ffffffffffffffffffffffffffffffffffffffff1673ffffffffffffffffffffffffffffffffffffffff1681526020019081526020015f20549050919050565b6060600180546109a690611e65565b80601f01602080910402602001604051908101604052809291908181526020018280546109d290611e65565b8015610a1d5780601f106109f457610100808354040283529160200191610a1d565b820191905f5260205f20905b815481529060010190602001808311610a0057829003601f168201915b5050505050905090565b610a39610a32610c99565b8383610efa565b5050565b610a48848484610619565b610a5c610a53610c99565b85858585611063565b50505050565b6060610a6d82610bda565b505f610a7761120f565b90505f815111610a955760405180602001604052805f815250610ac0565b80610a9f84611225565b604051602001610ab0929190611fab565b6040516020818303038152906040525b915050919050565b600b602052805f5260405f205f915090505481565b5f60055f8473ffffffffffffffffffffffffffffffffffffffff1673ffffffffffffffffffffffffffffffffffffffff1681526020019081526020015f205f8373ffffffffffffffffffffffffffffffffffffffff1673ffffffffffffffffffffffffffffffffffffffff1681526020019081526020015f205f9054906101000a900460ff16905092915050565b60085481565b5f7f01ffc9a7000000000000000000000000000000000000000000000000000000007bffffffffffffffffffffffffffffffffffffffffffffffffffffffff1916827bffffffffffffffffffffffffffffffffffffffffffffffffffffffff1916149050919050565b5f5f610be5836112ef565b90505f73ffffffffffffffffffffffffffffffffffffffff168173ffffffffffffffffffffffffffffffffffffffff1603610c5757826040517f7e273289000000000000000000000000000000000000000000000000000000008152600401610c4e9190611bcd565b60405180910390fd5b80915050919050565b5f60045f8381526020019081526020015f205f9054906101000a900473ffffffffffffffffffffffffffffffffffffffff169050919050565b5f33905090565b610cad8383836001611328565b505050565b5f5f610cbd846112ef565b90505f73ffffffffffffffffffffffffffffffffffffffff168373ffffffffffffffffffffffffffffffffffffffff1614610cfe57610cfd8184866114e7565b5b5f73ffffffffffffffffffffffffffffffffffffffff168173ffffffffffffffffffffffffffffffffffffffff1614610d8957610d3d5f855f5f611328565b600160035f8373ffffffffffffffffffffffffffffffffffffffff1673ffffffffffffffffffffffffffffffffffffffff1681526020019081526020015f205f82825403925050819055505b5f73ffffffffffffffffffffffffffffffffffffffff168573ffffffffffffffffffffffffffffffffffffffff1614610e0857600160035f8773ffffffffffffffffffffffffffffffffffffffff1673ffffffffffffffffffffffffffffffffffffffff1681526020019081526020015f205f82825401925050819055505b8460025f8681526020019081526020015f205f6101000a81548173ffffffffffffffffffffffffffffffffffffffff021916908373ffffffffffffffffffffffffffffffffffffffff160217905550838573ffffffffffffffffffffffffffffffffffffffff168273ffffffffffffffffffffffffffffffffffffffff167fddf252ad1be2c89b69c2b068fc378daa952ba7f163c4a11628f55a4df523b3ef60405160405180910390a4809150509392505050565b6001815f015f828254019250508190555050565b5f815f01549050919050565b610ef6828260405180602001604052805f8152506115aa565b5050565b5f73ffffffffffffffffffffffffffffffffffffffff168273ffffffffffffffffffffffffffffffffffffffff1603610f6a57816040517f5b08ba18000000000000000000000000000000000000000000000000000000008152600401610f619190611ac2565b60405180910390fd5b8060055f8573ffffffffffffffffffffffffffffffffffffffff1673ffffffffffffffffffffffffffffffffffffffff1681526020019081526020015f205f8473ffffffffffffffffffffffffffffffffffffffff1673ffffffffffffffffffffffffffffffffffffffff1681526020019081526020015f205f6101000a81548160ff0219169083151502179055508173ffffffffffffffffffffffffffffffffffffffff168373ffffffffffffffffffffffffffffffffffffffff167f17307eab39ab6107e8899845ad3d59bd9653f200f220920489ca2b5937696c3183604051611056919061197c565b60405180910390a3505050565b5f8373ffffffffffffffffffffffffffffffffffffffff163b1115611208578273ffffffffffffffffffffffffffffffffffffffff1663150b7a02868685856040518563ffffffff1660e01b81526004016110c19493929190612020565b6020604051808303815f875af19250505080156110fc57506040513d601f19601f820116820180604052508101906110f9919061207e565b60015b61117d573d805f811461112a576040519150601f19603f3d011682016040523d82523d5f602084013e61112f565b606091505b505f81510361117557836040517f64a0ae9200000000000000000000000000000000000000000000000000000000815260040161116c9190611ac2565b60405180910390fd5b805160208201fd5b63150b7a0260e01b7bffffffffffffffffffffffffffffffffffffffffffffffffffffffff1916817bffffffffffffffffffffffffffffffffffffffffffffffffffffffff19161461120657836040517f64a0ae920000000000000000000000000000000000000000000000000000000081526004016111fd9190611ac2565b60405180910390fd5b505b5050505050565b606060405180602001604052805f815250905090565b60605f6001611233846115cd565b0190505f8167ffffffffffffffff81111561125157611250611c56565b5b6040519080825280601f01601f1916602001820160405280156112835781602001600182028036833780820191505090505b5090505f82602083010190505b6001156112e4578080600190039150507f3031323334353637383961626364656600000000000000000000000000000000600a86061a8153600a85816112d9576112d86120a9565b5b0494505f8503611290575b819350505050919050565b5f60025f8381526020019081526020015f205f9054906101000a900473ffffffffffffffffffffffffffffffffffffffff169050919050565b808061136057505f73ffffffffffffffffffffffffffffffffffffffff168273ffffffffffffffffffffffffffffffffffffffff1614155b15611492575f61136f84610bda565b90505f73ffffffffffffffffffffffffffffffffffffffff168373ffffffffffffffffffffffffffffffffffffffff16141580156113d957508273ffffffffffffffffffffffffffffffffffffffff168173ffffffffffffffffffffffffffffffffffffffff1614155b80156113ec57506113ea8184610add565b155b1561142e57826040517fa9fbf51f0000000000000000000000000000000000000000000000000000000081526004016114259190611ac2565b60405180910390fd5b811561149057838573ffffffffffffffffffffffffffffffffffffffff168273ffffffffffffffffffffffffffffffffffffffff167f8c5be1e5ebec7d5bd14f71427d1e84f3dd0314c0f7b2291e5b200ac8c7c3b92560405160405180910390a45b505b8360045f8581526020019081526020015f205f6101000a81548173ffffffffffffffffffffffffffffffffffffffff021916908373ffffffffffffffffffffffffffffffffffffffff16021790555050505050565b6114f283838361171e565b6115a5575f73ffffffffffffffffffffffffffffffffffffffff168373ffffffffffffffffffffffffffffffffffffffff160361156657806040517f7e27328900000000000000000000000000000000000000000000000000000000815260040161155d9190611bcd565b60405180910390fd5b81816040517f177e802f00000000000000000000000000000000000000000000000000000000815260040161159c9291906120d6565b60405180910390fd5b505050565b6115b483836117de565b6115c86115bf610c99565b5f858585611063565b505050565b5f5f5f90507a184f03e93ff9f4daa797ed6e38ed64bf6a1f0100000000000000008310611629577a184f03e93ff9f4daa797ed6e38ed64bf6a1f010000000000000000838161161f5761161e6120a9565b5b0492506040810190505b6d04ee2d6d415b85acef81000000008310611666576d04ee2d6d415b85acef8100000000838161165c5761165b6120a9565b5b0492506020810190505b662386f26fc10000831061169557662386f26fc10000838161168b5761168a6120a9565b5b0492506010810190505b6305f5e10083106116be576305f5e10083816116b4576116b36120a9565b5b0492506008810190505b61271083106116e35761271083816116d9576116d86120a9565b5b0492506004810190505b6064831061170657606483816116fc576116fb6120a9565b5b0492506002810190505b600a8310611715576001810190505b80915050919050565b5f5f73ffffffffffffffffffffffffffffffffffffffff168373ffffffffffffffffffffffffffffffffffffffff16141580156117d557508273ffffffffffffffffffffffffffffffffffffffff168473ffffffffffffffffffffffffffffffffffffffff16148061179657506117958484610add565b5b806117d457508273ffffffffffffffffffffffffffffffffffffffff166117bc83610c60565b73ffffffffffffffffffffffffffffffffffffffff16145b5b90509392505050565b5f73ffffffffffffffffffffffffffffffffffffffff168273ffffffffffffffffffffffffffffffffffffffff160361184e575f6040517f64a0ae920000000000000000000000000000000000000000000000000000000081526004016118459190611ac2565b60405180910390fd5b5f61185a83835f610cb2565b90505f73ffffffffffffffffffffffffffffffffffffffff168173ffffffffffffffffffffffffffffffffffffffff16146118cc575f6040517f73c6ac6e0000000000000000000000000000000000000000000000000000000081526004016118c39190611ac2565b60405180910390fd5b505050565b5f604051905090565b5f5ffd5b5f5ffd5b5f7fffffffff0000000000000000000000000000000000000000000000000000000082169050919050565b611916816118e2565b8114611920575f5ffd5b50565b5f813590506119318161190d565b92915050565b5f6020828403121561194c5761194b6118da565b5b5f61195984828501611923565b91505092915050565b5f8115159050919050565b61197681611962565b82525050565b5f60208201905061198f5f83018461196d565b92915050565b5f81519050919050565b5f82825260208201905092915050565b8281835e5f83830152505050565b5f601f19601f8301169050919050565b5f6119d782611995565b6119e1818561199f565b93506119f18185602086016119af565b6119fa816119bd565b840191505092915050565b5f6020820190508181035f830152611a1d81846119cd565b905092915050565b5f819050919050565b611a3781611a25565b8114611a41575f5ffd5b50565b5f81359050611a5281611a2e565b92915050565b5f60208284031215611a6d57611a6c6118da565b5b5f611a7a84828501611a44565b91505092915050565b5f73ffffffffffffffffffffffffffffffffffffffff82169050919050565b5f611aac82611a83565b9050919050565b611abc81611aa2565b82525050565b5f602082019050611ad55f830184611ab3565b92915050565b611ae481611aa2565b8114611aee575f5ffd5b50565b5f81359050611aff81611adb565b92915050565b5f5f60408385031215611b1b57611b1a6118da565b5b5f611b2885828601611af1565b9250506020611b3985828601611a44565b9150509250929050565b5f5f5f60608486031215611b5a57611b596118da565b5b5f611b6786828701611af1565b9350506020611b7886828701611af1565b9250506040611b8986828701611a44565b9150509250925092565b5f60208284031215611ba857611ba76118da565b5b5f611bb584828501611af1565b91505092915050565b611bc781611a25565b82525050565b5f602082019050611be05f830184611bbe565b92915050565b611bef81611962565b8114611bf9575f5ffd5b50565b5f81359050611c0a81611be6565b92915050565b5f5f60408385031215611c2657611c256118da565b5b5f611c3385828601611af1565b9250506020611c4485828601611bfc565b9150509250929050565b5f5ffd5b5f5ffd5b7f4e487b71000000000000000000000000000000000000000000000000000000005f52604160045260245ffd5b611c8c826119bd565b810181811067ffffffffffffffff82111715611cab57611caa611c56565b5b80604052505050565b5f611cbd6118d1565b9050611cc98282611c83565b919050565b5f67ffffffffffffffff821115611ce857611ce7611c56565b5b611cf1826119bd565b9050602081019050919050565b828183375f83830152505050565b5f611d1e611d1984611cce565b611cb4565b905082815260208101848484011115611d3a57611d39611c52565b5b611d45848285611cfe565b509392505050565b5f82601f830112611d6157611d60611c4e565b5b8135611d71848260208601611d0c565b91505092915050565b5f5f5f5f60808587031215611d9257611d916118da565b5b5f611d9f87828801611af1565b9450506020611db087828801611af1565b9350506040611dc187828801611a44565b925050606085013567ffffffffffffffff811115611de257611de16118de565b5b611dee87828801611d4d565b91505092959194509250565b5f5f60408385031215611e1057611e0f6118da565b5b5f611e1d85828601611af1565b9250506020611e2e85828601611af1565b9150509250929050565b7f4e487b71000000000000000000000000000000000000000000000000000000005f52602260045260245ffd5b5f6002820490506001821680611e7c57607f821691505b602082108103611e8f57611e8e611e38565b5b50919050565b5f606082019050611ea85f830186611ab3565b611eb56020830185611bbe565b611ec26040830184611ab3565b949350505050565b7f4e487b71000000000000000000000000000000000000000000000000000000005f52601160045260245ffd5b5f611f0182611a25565b91507fffffffffffffffffffffffffffffffffffffffffffffffffffffffffffffffff8203611f3357611f32611eca565b5b600182019050919050565b5f611f4882611a25565b9150611f5383611a25565b9250828201905080821115611f6b57611f6a611eca565b5b92915050565b5f81905092915050565b5f611f8582611995565b611f8f8185611f71565b9350611f9f8185602086016119af565b80840191505092915050565b5f611fb68285611f7b565b9150611fc28284611f7b565b91508190509392505050565b5f81519050919050565b5f82825260208201905092915050565b5f611ff282611fce565b611ffc8185611fd8565b935061200c8185602086016119af565b612015816119bd565b840191505092915050565b5f6080820190506120335f830187611ab3565b6120406020830186611ab3565b61204d6040830185611bbe565b818103606083015261205f8184611fe8565b905095945050505050565b5f815190506120788161190d565b92915050565b5f60208284031215612093576120926118da565b5b5f6120a08482850161206a565b91505092915050565b7f4e487b71000000000000000000000000000000000000000000000000000000005f52601260045260245ffd5b5f6040820190506120e95f830185611ab3565b6120f66020830184611bbe565b939250505056fea2646970667358221220c80010de0d810417aeca622757b17dd3cd2e372caec4668dc16586886cb9a23564736f6c634300081e0033",
			"opcodes": "PUSH1 0x80 PUSH1 0x40 MSTORE PUSH1 0xC PUSH1 0x7 SSTORE PUSH1 0x2 PUSH1 0x9 SSTORE PUSH1 0x1 PUSH1 0xA SSTORE CALLVALUE DUP1 ISZERO PUSH2 0x1E JUMPI PUSH0 PUSH0 REVERT JUMPDEST POP PUSH1 0x40 MLOAD DUP1 PUSH1 0x40 ADD PUSH1 0x40 MSTORE DUP1 PUSH1 0xC DUP2 MSTORE PUSH1 0x20 ADD PUSH32 0x4D79436F6C6C656374696F6E0000000000000000000000000000000000000000 DUP2 MSTORE POP PUSH1 0x40 MLOAD DUP1 PUSH1 0x40 ADD PUSH1 0x40 MSTORE DUP1 PUSH1 0x6 DUP2 MSTORE PUSH1 0x20 ADD PUSH32 0x53796D626F6C0000000000000000000000000000000000000000000000000000 DUP2 MSTORE POP DUP2 PUSH0 SWAP1 DUP2 PUSH2 0x99 SWAP2 SWAP1 PUSH2 0x2EE JUMP JUMPDEST POP DUP1 PUSH1 0x1 SWAP1 DUP2 PUSH2 0xA9 SWAP2 SWAP1 PUSH2 0x2EE JUMP JUMPDEST POP POP POP PUSH2 0x3BD JUMP JUMPDEST PUSH0 DUP2 MLOAD SWAP1 POP SWAP2 SWAP1 POP JUMP JUMPDEST PUSH32 0x4E487B7100000000000000000000000000000000000000000000000000000000 PUSH0 MSTORE PUSH1 0x41 PUSH1 0x4 MSTORE PUSH1 0x24 PUSH0 REVERT JUMPDEST PUSH32 0x4E487B7100000000000000000000000000000000000000000000000000000000 PUSH0 MSTORE PUSH1 0x22 PUSH1 0x4 MSTORE PUSH1 0x24 PUSH0 REVERT JUMPDEST PUSH0 PUSH1 0x2 DUP3 DIV SWAP1 POP PUSH1 0x1 DUP3 AND DUP1 PUSH2 0x12C JUMPI PUSH1 0x7F DUP3 AND SWAP2 POP JUMPDEST PUSH1 0x20 DUP3 LT DUP2 SUB PUSH2 0x13F JUMPI PUSH2 0x13E PUSH2 0xE8 JUMP JUMPDEST JUMPDEST POP SWAP2 SWAP1 POP JUMP JUMPDEST PUSH0 DUP2 SWAP1 POP DUP2 PUSH0 MSTORE PUSH1 0x20 PUSH0 KECCAK256 SWAP1 POP SWAP2 SWAP1 POP JUMP JUMPDEST PUSH0 PUSH1 0x20 PUSH1 0x1F DUP4 ADD DIV SWAP1 POP SWAP2 SWAP1 POP JUMP JUMPDEST PUSH0 DUP3 DUP3 SHL SWAP1 POP SWAP3 SWAP2 POP POP JUMP JUMPDEST PUSH0 PUSH1 0x8 DUP4 MUL PUSH2 0x1A1 PUSH32 0xFFFFFFFFFFFFFFFFFFFFFFFFFFFFFFFFFFFFFFFFFFFFFFFFFFFFFFFFFFFFFFFF DUP3 PUSH2 0x166 JUMP JUMPDEST PUSH2 0x1AB DUP7 DUP4 PUSH2 0x166 JUMP JUMPDEST SWAP6 POP DUP1 NOT DUP5 AND SWAP4 POP DUP1 DUP7 AND DUP5 OR SWAP3 POP POP POP SWAP4 SWAP3 POP POP POP JUMP JUMPDEST PUSH0 DUP2 SWAP1 POP SWAP2 SWAP1 POP JUMP JUMPDEST PUSH0 DUP2 SWAP1 POP SWAP2 SWAP1 POP JUMP JUMPDEST PUSH0 PUSH2 0x1EF PUSH2 0x1EA PUSH2 0x1E5 DUP5 PUSH2 0x1C3 JUMP JUMPDEST PUSH2 0x1CC JUMP JUMPDEST PUSH2 0x1C3 JUMP JUMPDEST SWAP1 POP SWAP2 SWAP1 POP JUMP JUMPDEST PUSH0 DUP2 SWAP1 POP SWAP2 SWAP1 POP JUMP JUMPDEST PUSH2 0x208 DUP4 PUSH2 0x1D5 JUMP JUMPDEST PUSH2 0x21C PUSH2 0x214 DUP3 PUSH2 0x1F6 JUMP JUMPDEST DUP5 DUP5 SLOAD PUSH2 0x172 JUMP JUMPDEST DUP3 SSTORE POP POP POP POP JUMP JUMPDEST PUSH0 PUSH0 SWAP1 POP SWAP1 JUMP JUMPDEST PUSH2 0x233 PUSH2 0x224 JUMP JUMPDEST PUSH2 0x23E DUP2 DUP5 DUP5 PUSH2 0x1FF JUMP JUMPDEST POP POP POP JUMP JUMPDEST JUMPDEST DUP2 DUP2 LT ISZERO PUSH2 0x261 JUMPI PUSH2 0x256 PUSH0 DUP3 PUSH2 0x22B JUMP JUMPDEST PUSH1 0x1 DUP2 ADD SWAP1 POP PUSH2 0x244 JUMP JUMPDEST POP POP JUMP JUMPDEST PUSH1 0x1F DUP3 GT ISZERO PUSH2 0x2A6 JUMPI PUSH2 0x277 DUP2 PUSH2 0x145 JUMP JUMPDEST PUSH2 0x280 DUP5 PUSH2 0x157 JUMP JUMPDEST DUP2 ADD PUSH1 0x20 DUP6 LT ISZERO PUSH2 0x28F JUMPI DUP2 SWAP1 POP JUMPDEST PUSH2 0x2A3 PUSH2 0x29B DUP6 PUSH2 0x157 JUMP JUMPDEST DUP4 ADD DUP3 PUSH2 0x243 JUMP JUMPDEST POP POP JUMPDEST POP POP POP JUMP JUMPDEST PUSH0 DUP3 DUP3 SHR SWAP1 POP SWAP3 SWAP2 POP POP JUMP JUMPDEST PUSH0 PUSH2 0x2C6 PUSH0 NOT DUP5 PUSH1 0x8 MUL PUSH2 0x2AB JUMP JUMPDEST NOT DUP1 DUP4 AND SWAP2 POP POP SWAP3 SWAP2 POP POP JUMP JUMPDEST PUSH0 PUSH2 0x2DE DUP4 DUP4 PUSH2 0x2B7 JUMP JUMPDEST SWAP2 POP DUP3 PUSH1 0x2 MUL DUP3 OR SWAP1 POP SWAP3 SWAP2 POP POP JUMP JUMPDEST PUSH2 0x2F7 DUP3 PUSH2 0xB1 JUMP JUMPDEST PUSH8 0xFFFFFFFFFFFFFFFF DUP2 GT ISZERO PUSH2 0x310 JUMPI PUSH2 0x30F PUSH2 0xBB JUMP JUMPDEST JUMPDEST PUSH2 0x31A DUP3 SLOAD PUSH2 0x115 JUMP JUMPDEST PUSH2 0x325 DUP3 DUP3 DUP6 PUSH2 0x265 JUMP JUMPDEST PUSH0 PUSH1 0x20 SWAP1 POP PUSH1 0x1F DUP4 GT PUSH1 0x1 DUP2 EQ PUSH2 0x356 JUMPI PUSH0 DUP5 ISZERO PUSH2 0x344 JUMPI DUP3 DUP8 ADD MLOAD SWAP1 POP JUMPDEST PUSH2 0x34E DUP6 DUP3 PUSH2 0x2D3 JUMP JUMPDEST DUP7 SSTORE POP PUSH2 0x3B5 JUMP JUMPDEST PUSH1 0x1F NOT DUP5 AND PUSH2 0x364 DUP7 PUSH2 0x145 JUMP JUMPDEST PUSH0 JUMPDEST DUP3 DUP2 LT ISZERO PUSH2 0x38B JUMPI DUP5 DUP10 ADD MLOAD DUP3 SSTORE PUSH1 0x1 DUP3 ADD SWAP2 POP PUSH1 0x20 DUP6 ADD SWAP5 POP PUSH1 0x20 DUP2 ADD SWAP1 POP PUSH2 0x366 JUMP JUMPDEST DUP7 DUP4 LT ISZERO PUSH2 0x3A8 JUMPI DUP5 DUP10 ADD MLOAD PUSH2 0x3A4 PUSH1 0x1F DUP10 AND DUP3 PUSH2 0x2B7 JUMP JUMPDEST DUP4 SSTORE POP JUMPDEST PUSH1 0x1 PUSH1 0x2 DUP9 MUL ADD DUP9 SSTORE POP POP POP JUMPDEST POP POP POP POP POP POP JUMP JUMPDEST PUSH2 0x2133 DUP1 PUSH2 0x3CA PUSH0 CODECOPY PUSH0 RETURN INVALID PUSH1 0x80 PUSH1 0x40 MSTORE PUSH1 0x4 CALLDATASIZE LT PUSH2 0x108 JUMPI PUSH0 CALLDATALOAD PUSH1 0xE0 SHR DUP1 PUSH4 0x6352211E GT PUSH2 0x94 JUMPI DUP1 PUSH4 0xB88D4FDE GT PUSH2 0x63 JUMPI DUP1 PUSH4 0xB88D4FDE EQ PUSH2 0x372 JUMPI DUP1 PUSH4 0xC87B56DD EQ PUSH2 0x39A JUMPI DUP1 PUSH4 0xCFA150A5 EQ PUSH2 0x3D6 JUMPI DUP1 PUSH4 0xE985E9C5 EQ PUSH2 0x412 JUMPI DUP1 PUSH4 0xF8BF1AF0 EQ PUSH2 0x44E JUMPI PUSH2 0x108 JUMP JUMPDEST DUP1 PUSH4 0x6352211E EQ PUSH2 0x2A8 JUMPI DUP1 PUSH4 0x70A08231 EQ PUSH2 0x2E4 JUMPI DUP1 PUSH4 0x95D89B41 EQ PUSH2 0x320 JUMPI DUP1 PUSH4 0xA22CB465 EQ PUSH2 0x34A JUMPI PUSH2 0x108 JUMP JUMPDEST DUP1 PUSH4 0x23B872DD GT PUSH2 0xDB JUMPI DUP1 PUSH4 0x23B872DD EQ PUSH2 0x1D6 JUMPI DUP1 PUSH4 0x39E1DEE8 EQ PUSH2 0x1FE JUMPI DUP1 PUSH4 0x40C10F19 EQ PUSH2 0x23A JUMPI DUP1 PUSH4 0x42842E0E EQ PUSH2 0x256 JUMPI DUP1 PUSH4 0x5986144E EQ PUSH2 0x27E JUMPI PUSH2 0x108 JUMP JUMPDEST DUP1 PUSH4 0x1FFC9A7 EQ PUSH2 0x10C JUMPI DUP1 PUSH4 0x6FDDE03 EQ PUSH2 0x148 JUMPI DUP1 PUSH4 0x81812FC EQ PUSH2 0x172 JUMPI DUP1 PUSH4 0x95EA7B3 EQ PUSH2 0x1AE JUMPI JUMPDEST PUSH0 PUSH0 REVERT JUMPDEST CALLVALUE DUP1 ISZERO PUSH2 0x117 JUMPI PUSH0 PUSH0 REVERT JUMPDEST POP PUSH2 0x132 PUSH1 0x4 DUP1 CALLDATASIZE SUB DUP2 ADD SWAP1 PUSH2 0x12D SWAP2 SWAP1 PUSH2 0x1937 JUMP JUMPDEST PUSH2 0x478 JUMP JUMPDEST PUSH1 0x40 MLOAD PUSH2 0x13F SWAP2 SWAP1 PUSH2 0x197C JUMP JUMPDEST PUSH1 0x40 MLOAD DUP1 SWAP2 SUB SWAP1 RETURN JUMPDEST CALLVALUE DUP1 ISZERO PUSH2 0x153 JUMPI PUSH0 PUSH0 REVERT JUMPDEST POP PUSH2 0x15C PUSH2 0x559 JUMP JUMPDEST PUSH1 0x40 MLOAD PUSH2 0x169 SWAP2 SWAP1 PUSH2 0x1A05 JUMP JUMPDEST PUSH1 0x40 MLOAD DUP1 SWAP2 SUB SWAP1 RETURN JUMPDEST CALLVALUE DUP1 ISZERO PUSH2 0x17D JUMPI PUSH0 PUSH0 REVERT JUMPDEST POP PUSH2 0x198 PUSH1 0x4 DUP1 CALLDATASIZE SUB DUP2 ADD SWAP1 PUSH2 0x193 SWAP2 SWAP1 PUSH2 0x1A58 JUMP JUMPDEST PUSH2 0x5E8 JUMP JUMPDEST PUSH1 0x40 MLOAD PUSH2 0x1A5 SWAP2 SWAP1 PUSH2 0x1AC2 JUMP JUMPDEST PUSH1 0x40 MLOAD DUP1 SWAP2 SUB SWAP1 RETURN JUMPDEST CALLVALUE DUP1 ISZERO PUSH2 0x1B9 JUMPI PUSH0 PUSH0 REVERT JUMPDEST POP PUSH2 0x1D4 PUSH1 0x4 DUP1 CALLDATASIZE SUB DUP2 ADD SWAP1 PUSH2 0x1CF SWAP2 SWAP1 PUSH2 0x1B05 JUMP JUMPDEST PUSH2 0x603 JUMP JUMPDEST STOP JUMPDEST CALLVALUE DUP1 ISZERO PUSH2 0x1E1 JUMPI PUSH0 PUSH0 REVERT JUMPDEST POP PUSH2 0x1FC PUSH1 0x4 DUP1 CALLDATASIZE SUB DUP2 ADD SWAP1 PUSH2 0x1F7 SWAP2 SWAP1 PUSH2 0x1B43 JUMP JUMPDEST PUSH2 0x619 JUMP JUMPDEST STOP JUMPDEST CALLVALUE DUP1 ISZERO PUSH2 0x209 JUMPI PUSH0 PUSH0 REVERT JUMPDEST POP PUSH2 0x224 PUSH1 0x4 DUP1 CALLDATASIZE SUB DUP2 ADD SWAP1 PUSH2 0x21F SWAP2 SWAP1 PUSH2 0x1A58 JUMP JUMPDEST PUSH2 0x718 JUMP JUMPDEST PUSH1 0x40 MLOAD PUSH2 0x231 SWAP2 SWAP1 PUSH2 0x1AC2 JUMP JUMPDEST PUSH1 0x40 MLOAD DUP1 SWAP2 SUB SWAP1 RETURN JUMPDEST PUSH2 0x254 PUSH1 0x4 DUP1 CALLDATASIZE SUB DUP2 ADD SWAP1 PUSH2 0x24F SWAP2 SWAP1 PUSH2 0x1B05 JUMP JUMPDEST PUSH2 0x753 JUMP JUMPDEST STOP JUMPDEST CALLVALUE DUP1 ISZERO PUSH2 0x261 JUMPI PUSH0 PUSH0 REVERT JUMPDEST POP PUSH2 0x27C PUSH1 0x4 DUP1 CALLDATASIZE SUB DUP2 ADD SWAP1 PUSH2 0x277 SWAP2 SWAP1 PUSH2 0x1B43 JUMP JUMPDEST PUSH2 0x78F JUMP JUMPDEST STOP JUMPDEST CALLVALUE DUP1 ISZERO PUSH2 0x289 JUMPI PUSH0 PUSH0 REVERT JUMPDEST POP PUSH2 0x292 PUSH2 0x7AE JUMP JUMPDEST PUSH1 0x40 MLOAD PUSH2 0x29F SWAP2 SWAP1 PUSH2 0x1A05 JUMP JUMPDEST PUSH1 0x40 MLOAD DUP1 SWAP2 SUB SWAP1 RETURN JUMPDEST CALLVALUE DUP1 ISZERO PUSH2 0x2B3 JUMPI PUSH0 PUSH0 REVERT JUMPDEST POP PUSH2 0x2CE PUSH1 0x4 DUP1 CALLDATASIZE SUB DUP2 ADD SWAP1 PUSH2 0x2C9 SWAP2 SWAP1 PUSH2 0x1A58 JUMP JUMPDEST PUSH2 0x8D0 JUMP JUMPDEST PUSH1 0x40 MLOAD PUSH2 0x2DB SWAP2 SWAP1 PUSH2 0x1AC2 JUMP JUMPDEST PUSH1 0x40 MLOAD DUP1 SWAP2 SUB SWAP1 RETURN JUMPDEST CALLVALUE DUP1 ISZERO PUSH2 0x2EF JUMPI PUSH0 PUSH0 REVERT JUMPDEST POP PUSH2 0x30A PUSH1 0x4 DUP1 CALLDATASIZE SUB DUP2 ADD SWAP1 PUSH2 0x305 SWAP2 SWAP1 PUSH2 0x1B93 JUMP JUMPDEST PUSH2 0x8E1 JUMP JUMPDEST PUSH1 0x40 MLOAD PUSH2 0x317 SWAP2 SWAP1 PUSH2 0x1BCD JUMP JUMPDEST PUSH1 0x40 MLOAD DUP1 SWAP2 SUB SWAP1 RETURN JUMPDEST CALLVALUE DUP1 ISZERO PUSH2 0x32B JUMPI PUSH0 PUSH0 REVERT JUMPDEST POP PUSH2 0x334 PUSH2 0x997 JUMP JUMPDEST PUSH1 0x40 MLOAD PUSH2 0x341 SWAP2 SWAP1 PUSH2 0x1A05 JUMP JUMPDEST PUSH1 0x40 MLOAD DUP1 SWAP2 SUB SWAP1 RETURN JUMPDEST CALLVALUE DUP1 ISZERO PUSH2 0x355 JUMPI PUSH0 PUSH0 REVERT JUMPDEST POP PUSH2 0x370 PUSH1 0x4 DUP1 CALLDATASIZE SUB DUP2 ADD SWAP1 PUSH2 0x36B SWAP2 SWAP1 PUSH2 0x1C10 JUMP JUMPDEST PUSH2 0xA27 JUMP JUMPDEST STOP JUMPDEST CALLVALUE DUP1 ISZERO PUSH2 0x37D JUMPI PUSH0 PUSH0 REVERT JUMPDEST POP PUSH2 0x398 PUSH1 0x4 DUP1 CALLDATASIZE SUB DUP2 ADD SWAP1 PUSH2 0x393 SWAP2 SWAP1 PUSH2 0x1D7A JUMP JUMPDEST PUSH2 0xA3D JUMP JUMPDEST STOP JUMPDEST CALLVALUE DUP1 ISZERO PUSH2 0x3A5 JUMPI PUSH0 PUSH0 REVERT JUMPDEST POP PUSH2 0x3C0 PUSH1 0x4 DUP1 CALLDATASIZE SUB DUP2 ADD SWAP1 PUSH2 0x3BB SWAP2 SWAP1 PUSH2 0x1A58 JUMP JUMPDEST PUSH2 0xA62 JUMP JUMPDEST PUSH1 0x40 MLOAD PUSH2 0x3CD SWAP2 SWAP1 PUSH2 0x1A05 JUMP JUMPDEST PUSH1 0x40 MLOAD DUP1 SWAP2 SUB SWAP1 RETURN JUMPDEST CALLVALUE DUP1 ISZERO PUSH2 0x3E1 JUMPI PUSH0 PUSH0 REVERT JUMPDEST POP PUSH2 0x3FC PUSH1 0x4 DUP1 CALLDATASIZE SUB DUP2 ADD SWAP1 PUSH2 0x3F7 SWAP2 SWAP1 PUSH2 0x1B93 JUMP JUMPDEST PUSH2 0xAC8 JUMP JUMPDEST PUSH1 0x40 MLOAD PUSH2 0x409 SWAP2 SWAP1 PUSH2 0x1BCD JUMP JUMPDEST PUSH1 0x40 MLOAD DUP1 SWAP2 SUB SWAP1 RETURN JUMPDEST CALLVALUE DUP1 ISZERO PUSH2 0x41D JUMPI PUSH0 PUSH0 REVERT JUMPDEST POP PUSH2 0x438 PUSH1 0x4 DUP1 CALLDATASIZE SUB DUP2 ADD SWAP1 PUSH2 0x433 SWAP2 SWAP1 PUSH2 0x1DFA JUMP JUMPDEST PUSH2 0xADD JUMP JUMPDEST PUSH1 0x40 MLOAD PUSH2 0x445 SWAP2 SWAP1 PUSH2 0x197C JUMP JUMPDEST PUSH1 0x40 MLOAD DUP1 SWAP2 SUB SWAP1 RETURN JUMPDEST CALLVALUE DUP1 ISZERO PUSH2 0x459 JUMPI PUSH0 PUSH0 REVERT JUMPDEST POP PUSH2 0x462 PUSH2 0xB6B JUMP JUMPDEST PUSH1 0x40 MLOAD PUSH2 0x46F SWAP2 SWAP1 PUSH2 0x1BCD JUMP JUMPDEST PUSH1 0x40 MLOAD DUP1 SWAP2 SUB SWAP1 RETURN JUMPDEST PUSH0 PUSH32 0x80AC58CD00000000000000000000000000000000000000000000000000000000 PUSH28 0xFFFFFFFFFFFFFFFFFFFFFFFFFFFFFFFFFFFFFFFFFFFFFFFFFFFFFFFF NOT AND DUP3 PUSH28 0xFFFFFFFFFFFFFFFFFFFFFFFFFFFFFFFFFFFFFFFFFFFFFFFFFFFFFFFF NOT AND EQ DUP1 PUSH2 0x542 JUMPI POP PUSH32 0x5B5E139F00000000000000000000000000000000000000000000000000000000 PUSH28 0xFFFFFFFFFFFFFFFFFFFFFFFFFFFFFFFFFFFFFFFFFFFFFFFFFFFFFFFF NOT AND DUP3 PUSH28 0xFFFFFFFFFFFFFFFFFFFFFFFFFFFFFFFFFFFFFFFFFFFFFFFFFFFFFFFF NOT AND EQ JUMPDEST DUP1 PUSH2 0x552 JUMPI POP PUSH2 0x551 DUP3 PUSH2 0xB71 JUMP JUMPDEST JUMPDEST SWAP1 POP SWAP2 SWAP1 POP JUMP JUMPDEST PUSH1 0x60 PUSH0 DUP1 SLOAD PUSH2 0x567 SWAP1 PUSH2 0x1E65 JUMP JUMPDEST DUP1 PUSH1 0x1F ADD PUSH1 0x20 DUP1 SWAP2 DIV MUL PUSH1 0x20 ADD PUSH1 0x40 MLOAD SWAP1 DUP2 ADD PUSH1 0x40 MSTORE DUP1 SWAP3 SWAP2 SWAP1 DUP2 DUP2 MSTORE PUSH1 0x20 ADD DUP3 DUP1 SLOAD PUSH2 0x593 SWAP1 PUSH2 0x1E65 JUMP JUMPDEST DUP1 ISZERO PUSH2 0x5DE JUMPI DUP1 PUSH1 0x1F LT PUSH2 0x5B5 JUMPI PUSH2 0x100 DUP1 DUP4 SLOAD DIV MUL DUP4 MSTORE SWAP2 PUSH1 0x20 ADD SWAP2 PUSH2 0x5DE JUMP JUMPDEST DUP3 ADD SWAP2 SWAP1 PUSH0 MSTORE PUSH1 0x20 PUSH0 KECCAK256 SWAP1 JUMPDEST DUP2 SLOAD DUP2 MSTORE SWAP1 PUSH1 0x1 ADD SWAP1 PUSH1 0x20 ADD DUP1 DUP4 GT PUSH2 0x5C1 JUMPI DUP3 SWAP1 SUB PUSH1 0x1F AND DUP3 ADD SWAP2 JUMPDEST POP POP POP POP POP SWAP1 POP SWAP1 JUMP JUMPDEST PUSH0 PUSH2 0x5F2 DUP3 PUSH2 0xBDA JUMP JUMPDEST POP PUSH2 0x5FC DUP3 PUSH2 0xC60 JUMP JUMPDEST SWAP1 POP SWAP2 SWAP1 POP JUMP JUMPDEST PUSH2 0x615 DUP3 DUP3 PUSH2 0x610 PUSH2 0xC99 JUMP JUMPDEST PUSH2 0xCA0 JUMP JUMPDEST POP POP JUMP JUMPDEST PUSH0 PUSH20 0xFFFFFFFFFFFFFFFFFFFFFFFFFFFFFFFFFFFFFFFF AND DUP3 PUSH20 0xFFFFFFFFFFFFFFFFFFFFFFFFFFFFFFFFFFFFFFFF AND SUB PUSH2 0x689 JUMPI PUSH0 PUSH1 0x40 MLOAD PUSH32 0x64A0AE9200000000000000000000000000000000000000000000000000000000 DUP2 MSTORE PUSH1 0x4 ADD PUSH2 0x680 SWAP2 SWAP1 PUSH2 0x1AC2 JUMP JUMPDEST PUSH1 0x40 MLOAD DUP1 SWAP2 SUB SWAP1 REVERT JUMPDEST PUSH0 PUSH2 0x69C DUP4 DUP4 PUSH2 0x697 PUSH2 0xC99 JUMP JUMPDEST PUSH2 0xCB2 JUMP JUMPDEST SWAP1 POP DUP4 PUSH20 0xFFFFFFFFFFFFFFFFFFFFFFFFFFFFFFFFFFFFFFFF AND DUP2 PUSH20 0xFFFFFFFFFFFFFFFFFFFFFFFFFFFFFFFFFFFFFFFF AND EQ PUSH2 0x712 JUMPI DUP4 DUP3 DUP3 PUSH1 0x40 MLOAD PUSH32 0x64283D7B00000000000000000000000000000000000000000000000000000000 DUP2 MSTORE PUSH1 0x4 ADD PUSH2 0x709 SWAP4 SWAP3 SWAP2 SWAP1 PUSH2 0x1E95 JUMP JUMPDEST PUSH1 0x40 MLOAD DUP1 SWAP2 SUB SWAP1 REVERT JUMPDEST POP POP POP POP JUMP JUMPDEST PUSH1 0xC DUP2 DUP2 SLOAD DUP2 LT PUSH2 0x727 JUMPI PUSH0 DUP1 REVERT JUMPDEST SWAP1 PUSH0 MSTORE PUSH1 0x20 PUSH0 KECCAK256 ADD PUSH0 SWAP2 POP SLOAD SWAP1 PUSH2 0x100 EXP SWAP1 DIV PUSH20 0xFFFFFFFFFFFFFFFFFFFFFFFFFFFFFFFFFFFFFFFF AND DUP2 JUMP JUMPDEST PUSH0 PUSH0 SWAP1 POP JUMPDEST DUP2 DUP2 LT ISZERO PUSH2 0x78A JUMPI PUSH2 0x76A PUSH1 0x6 PUSH2 0xEBD JUMP JUMPDEST PUSH2 0x77D DUP4 PUSH2 0x778 PUSH1 0x6 PUSH2 0xED1 JUMP JUMPDEST PUSH2 0xEDD JUMP JUMPDEST DUP1 DUP1 PUSH1 0x1 ADD SWAP2 POP POP PUSH2 0x758 JUMP JUMPDEST POP POP POP JUMP JUMPDEST PUSH2 0x7A9 DUP4 DUP4 DUP4 PUSH1 0x40 MLOAD DUP1 PUSH1 0x20 ADD PUSH1 0x40 MSTORE DUP1 PUSH0 DUP2 MSTORE POP PUSH2 0xA3D JUMP JUMPDEST POP POP POP JUMP JUMPDEST PUSH1 0x60 PUSH0 PUSH0 SWAP1 POP JUMPDEST PUSH1 0x7 SLOAD DUP2 LT ISZERO PUSH2 0x834 JUMPI PUSH1 0x8 PUSH0 DUP2 SLOAD DUP1 SWAP3 SWAP2 SWAP1 PUSH2 0x7D1 SWAP1 PUSH2 0x1EF7 JUMP JUMPDEST SWAP2 SWAP1 POP SSTORE POP PUSH1 0xA SLOAD PUSH1 0x9 SLOAD PUSH2 0x7E6 SWAP2 SWAP1 PUSH2 0x1F3E JUMP JUMPDEST PUSH1 0xB PUSH0 CALLER PUSH20 0xFFFFFFFFFFFFFFFFFFFFFFFFFFFFFFFFFFFFFFFF AND PUSH20 0xFFFFFFFFFFFFFFFFFFFFFFFFFFFFFFFFFFFFFFFF AND DUP2 MSTORE PUSH1 0x20 ADD SWAP1 DUP2 MSTORE PUSH1 0x20 ADD PUSH0 KECCAK256 DUP2 SWAP1 SSTORE POP DUP1 DUP1 PUSH1 0x1 ADD SWAP2 POP POP PUSH2 0x7B5 JUMP JUMPDEST POP PUSH1 0xC CALLER SWAP1 DUP1 PUSH1 0x1 DUP2 SLOAD ADD DUP1 DUP3 SSTORE DUP1 SWAP2 POP POP PUSH1 0x1 SWAP1 SUB SWAP1 PUSH0 MSTORE PUSH1 0x20 PUSH0 KECCAK256 ADD PUSH0 SWAP1 SWAP2 SWAP1 SWAP2 SWAP1 SWAP2 PUSH2 0x100 EXP DUP2 SLOAD DUP2 PUSH20 0xFFFFFFFFFFFFFFFFFFFFFFFFFFFFFFFFFFFFFFFF MUL NOT AND SWAP1 DUP4 PUSH20 0xFFFFFFFFFFFFFFFFFFFFFFFFFFFFFFFFFFFFFFFF AND MUL OR SWAP1 SSTORE POP PUSH1 0x40 MLOAD DUP1 PUSH1 0x40 ADD PUSH1 0x40 MSTORE DUP1 PUSH1 0x14 DUP2 MSTORE PUSH1 0x20 ADD PUSH32 0x6D61697320756D20626F6C6F2070726F6E746F21000000000000000000000000 DUP2 MSTORE POP SWAP1 POP SWAP1 JUMP JUMPDEST PUSH0 PUSH2 0x8DA DUP3 PUSH2 0xBDA JUMP JUMPDEST SWAP1 POP SWAP2 SWAP1 POP JUMP JUMPDEST PUSH0 PUSH0 PUSH20 0xFFFFFFFFFFFFFFFFFFFFFFFFFFFFFFFFFFFFFFFF AND DUP3 PUSH20 0xFFFFFFFFFFFFFFFFFFFFFFFFFFFFFFFFFFFFFFFF AND SUB PUSH2 0x952 JUMPI PUSH0 PUSH1 0x40 MLOAD PUSH32 0x89C62B6400000000000000000000000000000000000000000000000000000000 DUP2 MSTORE PUSH1 0x4 ADD PUSH2 0x949 SWAP2 SWAP1 PUSH2 0x1AC2 JUMP JUMPDEST PUSH1 0x40 MLOAD DUP1 SWAP2 SUB SWAP1 REVERT JUMPDEST PUSH1 0x3 PUSH0 DUP4 PUSH20 0xFFFFFFFFFFFFFFFFFFFFFFFFFFFFFFFFFFFFFFFF AND PUSH20 0xFFFFFFFFFFFFFFFFFFFFFFFFFFFFFFFFFFFFFFFF AND DUP2 MSTORE PUSH1 0x20 ADD SWAP1 DUP2 MSTORE PUSH1 0x20 ADD PUSH0 KECCAK256 SLOAD SWAP1 POP SWAP2 SWAP1 POP JUMP JUMPDEST PUSH1 0x60 PUSH1 0x1 DUP1 SLOAD PUSH2 0x9A6 SWAP1 PUSH2 0x1E65 JUMP JUMPDEST DUP1 PUSH1 0x1F ADD PUSH1 0x20 DUP1 SWAP2 DIV MUL PUSH1 0x20 ADD PUSH1 0x40 MLOAD SWAP1 DUP2 ADD PUSH1 0x40 MSTORE DUP1 SWAP3 SWAP2 SWAP1 DUP2 DUP2 MSTORE PUSH1 0x20 ADD DUP3 DUP1 SLOAD PUSH2 0x9D2 SWAP1 PUSH2 0x1E65 JUMP JUMPDEST DUP1 ISZERO PUSH2 0xA1D JUMPI DUP1 PUSH1 0x1F LT PUSH2 0x9F4 JUMPI PUSH2 0x100 DUP1 DUP4 SLOAD DIV MUL DUP4 MSTORE SWAP2 PUSH1 0x20 ADD SWAP2 PUSH2 0xA1D JUMP JUMPDEST DUP3 ADD SWAP2 SWAP1 PUSH0 MSTORE PUSH1 0x20 PUSH0 KECCAK256 SWAP1 JUMPDEST DUP2 SLOAD DUP2 MSTORE SWAP1 PUSH1 0x1 ADD SWAP1 PUSH1 0x20 ADD DUP1 DUP4 GT PUSH2 0xA00 JUMPI DUP3 SWAP1 SUB PUSH1 0x1F AND DUP3 ADD SWAP2 JUMPDEST POP POP POP POP POP SWAP1 POP SWAP1 JUMP JUMPDEST PUSH2 0xA39 PUSH2 0xA32 PUSH2 0xC99 JUMP JUMPDEST DUP4 DUP4 PUSH2 0xEFA JUMP JUMPDEST POP POP JUMP JUMPDEST PUSH2 0xA48 DUP5 DUP5 DUP5 PUSH2 0x619 JUMP JUMPDEST PUSH2 0xA5C PUSH2 0xA53 PUSH2 0xC99 JUMP JUMPDEST DUP6 DUP6 DUP6 DUP6 PUSH2 0x1063 JUMP JUMPDEST POP POP POP POP JUMP JUMPDEST PUSH1 0x60 PUSH2 0xA6D DUP3 PUSH2 0xBDA JUMP JUMPDEST POP PUSH0 PUSH2 0xA77 PUSH2 0x120F JUMP JUMPDEST SWAP1 POP PUSH0 DUP2 MLOAD GT PUSH2 0xA95 JUMPI PUSH1 0x40 MLOAD DUP1 PUSH1 0x20 ADD PUSH1 0x40 MSTORE DUP1 PUSH0 DUP2 MSTORE POP PUSH2 0xAC0 JUMP JUMPDEST DUP1 PUSH2 0xA9F DUP5 PUSH2 0x1225 JUMP JUMPDEST PUSH1 0x40 MLOAD PUSH1 0x20 ADD PUSH2 0xAB0 SWAP3 SWAP2 SWAP1 PUSH2 0x1FAB JUMP JUMPDEST PUSH1 0x40 MLOAD PUSH1 0x20 DUP2 DUP4 SUB SUB DUP2 MSTORE SWAP1 PUSH1 0x40 MSTORE JUMPDEST SWAP2 POP POP SWAP2 SWAP1 POP JUMP JUMPDEST PUSH1 0xB PUSH1 0x20 MSTORE DUP1 PUSH0 MSTORE PUSH1 0x40 PUSH0 KECCAK256 PUSH0 SWAP2 POP SWAP1 POP SLOAD DUP2 JUMP JUMPDEST PUSH0 PUSH1 0x5 PUSH0 DUP5 PUSH20 0xFFFFFFFFFFFFFFFFFFFFFFFFFFFFFFFFFFFFFFFF AND PUSH20 0xFFFFFFFFFFFFFFFFFFFFFFFFFFFFFFFFFFFFFFFF AND DUP2 MSTORE PUSH1 0x20 ADD SWAP1 DUP2 MSTORE PUSH1 0x20 ADD PUSH0 KECCAK256 PUSH0 DUP4 PUSH20 0xFFFFFFFFFFFFFFFFFFFFFFFFFFFFFFFFFFFFFFFF AND PUSH20 0xFFFFFFFFFFFFFFFFFFFFFFFFFFFFFFFFFFFFFFFF AND DUP2 MSTORE PUSH1 0x20 ADD SWAP1 DUP2 MSTORE PUSH1 0x20 ADD PUSH0 KECCAK256 PUSH0 SWAP1 SLOAD SWAP1 PUSH2 0x100 EXP SWAP1 DIV PUSH1 0xFF AND SWAP1 POP SWAP3 SWAP2 POP POP JUMP JUMPDEST PUSH1 0x8 SLOAD DUP2 JUMP JUMPDEST PUSH0 PUSH32 0x1FFC9A700000000000000000000000000000000000000000000000000000000 PUSH28 0xFFFFFFFFFFFFFFFFFFFFFFFFFFFFFFFFFFFFFFFFFFFFFFFFFFFFFFFF NOT AND DUP3 PUSH28 0xFFFFFFFFFFFFFFFFFFFFFFFFFFFFFFFFFFFFFFFFFFFFFFFFFFFFFFFF NOT AND EQ SWAP1 POP SWAP2 SWAP1 POP JUMP JUMPDEST PUSH0 PUSH0 PUSH2 0xBE5 DUP4 PUSH2 0x12EF JUMP JUMPDEST SWAP1 POP PUSH0 PUSH20 0xFFFFFFFFFFFFFFFFFFFFFFFFFFFFFFFFFFFFFFFF AND DUP2 PUSH20 0xFFFFFFFFFFFFFFFFFFFFFFFFFFFFFFFFFFFFFFFF AND SUB PUSH2 0xC57 JUMPI DUP3 PUSH1 0x40 MLOAD PUSH32 0x7E27328900000000000000000000000000000000000000000000000000000000 DUP2 MSTORE PUSH1 0x4 ADD PUSH2 0xC4E SWAP2 SWAP1 PUSH2 0x1BCD JUMP JUMPDEST PUSH1 0x40 MLOAD DUP1 SWAP2 SUB SWAP1 REVERT JUMPDEST DUP1 SWAP2 POP POP SWAP2 SWAP1 POP JUMP JUMPDEST PUSH0 PUSH1 0x4 PUSH0 DUP4 DUP2 MSTORE PUSH1 0x20 ADD SWAP1 DUP2 MSTORE PUSH1 0x20 ADD PUSH0 KECCAK256 PUSH0 SWAP1 SLOAD SWAP1 PUSH2 0x100 EXP SWAP1 DIV PUSH20 0xFFFFFFFFFFFFFFFFFFFFFFFFFFFFFFFFFFFFFFFF AND SWAP1 POP SWAP2 SWAP1 POP JUMP JUMPDEST PUSH0 CALLER SWAP1 POP SWAP1 JUMP JUMPDEST PUSH2 0xCAD DUP4 DUP4 DUP4 PUSH1 0x1 PUSH2 0x1328 JUMP JUMPDEST POP POP POP JUMP JUMPDEST PUSH0 PUSH0 PUSH2 0xCBD DUP5 PUSH2 0x12EF JUMP JUMPDEST SWAP1 POP PUSH0 PUSH20 0xFFFFFFFFFFFFFFFFFFFFFFFFFFFFFFFFFFFFFFFF AND DUP4 PUSH20 0xFFFFFFFFFFFFFFFFFFFFFFFFFFFFFFFFFFFFFFFF AND EQ PUSH2 0xCFE JUMPI PUSH2 0xCFD DUP2 DUP5 DUP7 PUSH2 0x14E7 JUMP JUMPDEST JUMPDEST PUSH0 PUSH20 0xFFFFFFFFFFFFFFFFFFFFFFFFFFFFFFFFFFFFFFFF AND DUP2 PUSH20 0xFFFFFFFFFFFFFFFFFFFFFFFFFFFFFFFFFFFFFFFF AND EQ PUSH2 0xD89 JUMPI PUSH2 0xD3D PUSH0 DUP6 PUSH0 PUSH0 PUSH2 0x1328 JUMP JUMPDEST PUSH1 0x1 PUSH1 0x3 PUSH0 DUP4 PUSH20 0xFFFFFFFFFFFFFFFFFFFFFFFFFFFFFFFFFFFFFFFF AND PUSH20 0xFFFFFFFFFFFFFFFFFFFFFFFFFFFFFFFFFFFFFFFF AND DUP2 MSTORE PUSH1 0x20 ADD SWAP1 DUP2 MSTORE PUSH1 0x20 ADD PUSH0 KECCAK256 PUSH0 DUP3 DUP3 SLOAD SUB SWAP3 POP POP DUP2 SWAP1 SSTORE POP JUMPDEST PUSH0 PUSH20 0xFFFFFFFFFFFFFFFFFFFFFFFFFFFFFFFFFFFFFFFF AND DUP6 PUSH20 0xFFFFFFFFFFFFFFFFFFFFFFFFFFFFFFFFFFFFFFFF AND EQ PUSH2 0xE08 JUMPI PUSH1 0x1 PUSH1 0x3 PUSH0 DUP8 PUSH20 0xFFFFFFFFFFFFFFFFFFFFFFFFFFFFFFFFFFFFFFFF AND PUSH20 0xFFFFFFFFFFFFFFFFFFFFFFFFFFFFFFFFFFFFFFFF AND DUP2 MSTORE PUSH1 0x20 ADD SWAP1 DUP2 MSTORE PUSH1 0x20 ADD PUSH0 KECCAK256 PUSH0 DUP3 DUP3 SLOAD ADD SWAP3 POP POP DUP2 SWAP1 SSTORE POP JUMPDEST DUP5 PUSH1 0x2 PUSH0 DUP7 DUP2 MSTORE PUSH1 0x20 ADD SWAP1 DUP2 MSTORE PUSH1 0x20 ADD PUSH0 KECCAK256 PUSH0 PUSH2 0x100 EXP DUP2 SLOAD DUP2 PUSH20 0xFFFFFFFFFFFFFFFFFFFFFFFFFFFFFFFFFFFFFFFF MUL NOT AND SWAP1 DUP4 PUSH20 0xFFFFFFFFFFFFFFFFFFFFFFFFFFFFFFFFFFFFFFFF AND MUL OR SWAP1 SSTORE POP DUP4 DUP6 PUSH20 0xFFFFFFFFFFFFFFFFFFFFFFFFFFFFFFFFFFFFFFFF AND DUP3 PUSH20 0xFFFFFFFFFFFFFFFFFFFFFFFFFFFFFFFFFFFFFFFF AND PUSH32 0xDDF252AD1BE2C89B69C2B068FC378DAA952BA7F163C4A11628F55A4DF523B3EF PUSH1 0x40 MLOAD PUSH1 0x40 MLOAD DUP1 SWAP2 SUB SWAP1 LOG4 DUP1 SWAP2 POP POP SWAP4 SWAP3 POP POP POP JUMP JUMPDEST PUSH1 0x1 DUP2 PUSH0 ADD PUSH0 DUP3 DUP3 SLOAD ADD SWAP3 POP POP DUP2 SWAP1 SSTORE POP POP JUMP JUMPDEST PUSH0 DUP2 PUSH0 ADD SLOAD SWAP1 POP SWAP2 SWAP1 POP JUMP JUMPDEST PUSH2 0xEF6 DUP3 DUP3 PUSH1 0x40 MLOAD DUP1 PUSH1 0x20 ADD PUSH1 0x40 MSTORE DUP1 PUSH0 DUP2 MSTORE POP PUSH2 0x15AA JUMP JUMPDEST POP POP JUMP JUMPDEST PUSH0 PUSH20 0xFFFFFFFFFFFFFFFFFFFFFFFFFFFFFFFFFFFFFFFF AND DUP3 PUSH20 0xFFFFFFFFFFFFFFFFFFFFFFFFFFFFFFFFFFFFFFFF AND SUB PUSH2 0xF6A JUMPI DUP2 PUSH1 0x40 MLOAD PUSH32 0x5B08BA1800000000000000000000000000000000000000000000000000000000 DUP2 MSTORE PUSH1 0x4 ADD PUSH2 0xF61 SWAP2 SWAP1 PUSH2 0x1AC2 JUMP JUMPDEST PUSH1 0x40 MLOAD DUP1 SWAP2 SUB SWAP1 REVERT JUMPDEST DUP1 PUSH1 0x5 PUSH0 DUP6 PUSH20 0xFFFFFFFFFFFFFFFFFFFFFFFFFFFFFFFFFFFFFFFF AND PUSH20 0xFFFFFFFFFFFFFFFFFFFFFFFFFFFFFFFFFFFFFFFF AND DUP2 MSTORE PUSH1 0x20 ADD SWAP1 DUP2 MSTORE PUSH1 0x20 ADD PUSH0 KECCAK256 PUSH0 DUP5 PUSH20 0xFFFFFFFFFFFFFFFFFFFFFFFFFFFFFFFFFFFFFFFF AND PUSH20 0xFFFFFFFFFFFFFFFFFFFFFFFFFFFFFFFFFFFFFFFF AND DUP2 MSTORE PUSH1 0x20 ADD SWAP1 DUP2 MSTORE PUSH1 0x20 ADD PUSH0 KECCAK256 PUSH0 PUSH2 0x100 EXP DUP2 SLOAD DUP2 PUSH1 0xFF MUL NOT AND SWAP1 DUP4 ISZERO ISZERO MUL OR SWAP1 SSTORE POP DUP2 PUSH20 0xFFFFFFFFFFFFFFFFFFFFFFFFFFFFFFFFFFFFFFFF AND DUP4 PUSH20 0xFFFFFFFFFFFFFFFFFFFFFFFFFFFFFFFFFFFFFFFF AND PUSH32 0x17307EAB39AB6107E8899845AD3D59BD9653F200F220920489CA2B5937696C31 DUP4 PUSH1 0x40 MLOAD PUSH2 0x1056 SWAP2 SWAP1 PUSH2 0x197C JUMP JUMPDEST PUSH1 0x40 MLOAD DUP1 SWAP2 SUB SWAP1 LOG3 POP POP POP JUMP JUMPDEST PUSH0 DUP4 PUSH20 0xFFFFFFFFFFFFFFFFFFFFFFFFFFFFFFFFFFFFFFFF AND EXTCODESIZE GT ISZERO PUSH2 0x1208 JUMPI DUP3 PUSH20 0xFFFFFFFFFFFFFFFFFFFFFFFFFFFFFFFFFFFFFFFF AND PUSH4 0x150B7A02 DUP7 DUP7 DUP6 DUP6 PUSH1 0x40 MLOAD DUP6 PUSH4 0xFFFFFFFF AND PUSH1 0xE0 SHL DUP2 MSTORE PUSH1 0x4 ADD PUSH2 0x10C1 SWAP5 SWAP4 SWAP3 SWAP2 SWAP1 PUSH2 0x2020 JUMP JUMPDEST PUSH1 0x20 PUSH1 0x40 MLOAD DUP1 DUP4 SUB DUP2 PUSH0 DUP8 GAS CALL SWAP3 POP POP POP DUP1 ISZERO PUSH2 0x10FC JUMPI POP PUSH1 0x40 MLOAD RETURNDATASIZE PUSH1 0x1F NOT PUSH1 0x1F DUP3 ADD AND DUP3 ADD DUP1 PUSH1 0x40 MSTORE POP DUP2 ADD SWAP1 PUSH2 0x10F9 SWAP2 SWAP1 PUSH2 0x207E JUMP JUMPDEST PUSH1 0x1 JUMPDEST PUSH2 0x117D JUMPI RETURNDATASIZE DUP1 PUSH0 DUP2 EQ PUSH2 0x112A JUMPI PUSH1 0x40 MLOAD SWAP2 POP PUSH1 0x1F NOT PUSH1 0x3F RETURNDATASIZE ADD AND DUP3 ADD PUSH1 0x40 MSTORE RETURNDATASIZE DUP3 MSTORE RETURNDATASIZE PUSH0 PUSH1 0x20 DUP5 ADD RETURNDATACOPY PUSH2 0x112F JUMP JUMPDEST PUSH1 0x60 SWAP2 POP JUMPDEST POP PUSH0 DUP2 MLOAD SUB PUSH2 0x1175 JUMPI DUP4 PUSH1 0x40 MLOAD PUSH32 0x64A0AE9200000000000000000000000000000000000000000000000000000000 DUP2 MSTORE PUSH1 0x4 ADD PUSH2 0x116C SWAP2 SWAP1 PUSH2 0x1AC2 JUMP JUMPDEST PUSH1 0x40 MLOAD DUP1 SWAP2 SUB SWAP1 REVERT JUMPDEST DUP1 MLOAD PUSH1 0x20 DUP3 ADD REVERT JUMPDEST PUSH4 0x150B7A02 PUSH1 0xE0 SHL PUSH28 0xFFFFFFFFFFFFFFFFFFFFFFFFFFFFFFFFFFFFFFFFFFFFFFFFFFFFFFFF NOT AND DUP2 PUSH28 0xFFFFFFFFFFFFFFFFFFFFFFFFFFFFFFFFFFFFFFFFFFFFFFFFFFFFFFFF NOT AND EQ PUSH2 0x1206 JUMPI DUP4 PUSH1 0x40 MLOAD PUSH32 0x64A0AE9200000000000000000000000000000000000000000000000000000000 DUP2 MSTORE PUSH1 0x4 ADD PUSH2 0x11FD SWAP2 SWAP1 PUSH2 0x1AC2 JUMP JUMPDEST PUSH1 0x40 MLOAD DUP1 SWAP2 SUB SWAP1 REVERT JUMPDEST POP JUMPDEST POP POP POP POP POP JUMP JUMPDEST PUSH1 0x60 PUSH1 0x40 MLOAD DUP1 PUSH1 0x20 ADD PUSH1 0x40 MSTORE DUP1 PUSH0 DUP2 MSTORE POP SWAP1 POP SWAP1 JUMP JUMPDEST PUSH1 0x60 PUSH0 PUSH1 0x1 PUSH2 0x1233 DUP5 PUSH2 0x15CD JUMP JUMPDEST ADD SWAP1 POP PUSH0 DUP2 PUSH8 0xFFFFFFFFFFFFFFFF DUP2 GT ISZERO PUSH2 0x1251 JUMPI PUSH2 0x1250 PUSH2 0x1C56 JUMP JUMPDEST JUMPDEST PUSH1 0x40 MLOAD SWAP1 DUP1 DUP3 MSTORE DUP1 PUSH1 0x1F ADD PUSH1 0x1F NOT AND PUSH1 0x20 ADD DUP3 ADD PUSH1 0x40 MSTORE DUP1 ISZERO PUSH2 0x1283 JUMPI DUP2 PUSH1 0x20 ADD PUSH1 0x1 DUP3 MUL DUP1 CALLDATASIZE DUP4 CALLDATACOPY DUP1 DUP3 ADD SWAP2 POP POP SWAP1 POP JUMPDEST POP SWAP1 POP PUSH0 DUP3 PUSH1 0x20 DUP4 ADD ADD SWAP1 POP JUMPDEST PUSH1 0x1 ISZERO PUSH2 0x12E4 JUMPI DUP1 DUP1 PUSH1 0x1 SWAP1 SUB SWAP2 POP POP PUSH32 0x3031323334353637383961626364656600000000000000000000000000000000 PUSH1 0xA DUP7 MOD BYTE DUP2 MSTORE8 PUSH1 0xA DUP6 DUP2 PUSH2 0x12D9 JUMPI PUSH2 0x12D8 PUSH2 0x20A9 JUMP JUMPDEST JUMPDEST DIV SWAP5 POP PUSH0 DUP6 SUB PUSH2 0x1290 JUMPI JUMPDEST DUP2 SWAP4 POP POP POP POP SWAP2 SWAP1 POP JUMP JUMPDEST PUSH0 PUSH1 0x2 PUSH0 DUP4 DUP2 MSTORE PUSH1 0x20 ADD SWAP1 DUP2 MSTORE PUSH1 0x20 ADD PUSH0 KECCAK256 PUSH0 SWAP1 SLOAD SWAP1 PUSH2 0x100 EXP SWAP1 DIV PUSH20 0xFFFFFFFFFFFFFFFFFFFFFFFFFFFFFFFFFFFFFFFF AND SWAP1 POP SWAP2 SWAP1 POP JUMP JUMPDEST DUP1 DUP1 PUSH2 0x1360 JUMPI POP PUSH0 PUSH20 0xFFFFFFFFFFFFFFFFFFFFFFFFFFFFFFFFFFFFFFFF AND DUP3 PUSH20 0xFFFFFFFFFFFFFFFFFFFFFFFFFFFFFFFFFFFFFFFF AND EQ ISZERO JUMPDEST ISZERO PUSH2 0x1492 JUMPI PUSH0 PUSH2 0x136F DUP5 PUSH2 0xBDA JUMP JUMPDEST SWAP1 POP PUSH0 PUSH20 0xFFFFFFFFFFFFFFFFFFFFFFFFFFFFFFFFFFFFFFFF AND DUP4 PUSH20 0xFFFFFFFFFFFFFFFFFFFFFFFFFFFFFFFFFFFFFFFF AND EQ ISZERO DUP1 ISZERO PUSH2 0x13D9 JUMPI POP DUP3 PUSH20 0xFFFFFFFFFFFFFFFFFFFFFFFFFFFFFFFFFFFFFFFF AND DUP2 PUSH20 0xFFFFFFFFFFFFFFFFFFFFFFFFFFFFFFFFFFFFFFFF AND EQ ISZERO JUMPDEST DUP1 ISZERO PUSH2 0x13EC JUMPI POP PUSH2 0x13EA DUP2 DUP5 PUSH2 0xADD JUMP JUMPDEST ISZERO JUMPDEST ISZERO PUSH2 0x142E JUMPI DUP3 PUSH1 0x40 MLOAD PUSH32 0xA9FBF51F00000000000000000000000000000000000000000000000000000000 DUP2 MSTORE PUSH1 0x4 ADD PUSH2 0x1425 SWAP2 SWAP1 PUSH2 0x1AC2 JUMP JUMPDEST PUSH1 0x40 MLOAD DUP1 SWAP2 SUB SWAP1 REVERT JUMPDEST DUP2 ISZERO PUSH2 0x1490 JUMPI DUP4 DUP6 PUSH20 0xFFFFFFFFFFFFFFFFFFFFFFFFFFFFFFFFFFFFFFFF AND DUP3 PUSH20 0xFFFFFFFFFFFFFFFFFFFFFFFFFFFFFFFFFFFFFFFF AND PUSH32 0x8C5BE1E5EBEC7D5BD14F71427D1E84F3DD0314C0F7B2291E5B200AC8C7C3B925 PUSH1 0x40 MLOAD PUSH1 0x40 MLOAD DUP1 SWAP2 SUB SWAP1 LOG4 JUMPDEST POP JUMPDEST DUP4 PUSH1 0x4 PUSH0 DUP6 DUP2 MSTORE PUSH1 0x20 ADD SWAP1 DUP2 MSTORE PUSH1 0x20 ADD PUSH0 KECCAK256 PUSH0 PUSH2 0x100 EXP DUP2 SLOAD DUP2 PUSH20 0xFFFFFFFFFFFFFFFFFFFFFFFFFFFFFFFFFFFFFFFF MUL NOT AND SWAP1 DUP4 PUSH20 0xFFFFFFFFFFFFFFFFFFFFFFFFFFFFFFFFFFFFFFFF AND MUL OR SWAP1 SSTORE POP POP POP POP POP JUMP JUMPDEST PUSH2 0x14F2 DUP4 DUP4 DUP4 PUSH2 0x171E JUMP JUMPDEST PUSH2 0x15A5 JUMPI PUSH0 PUSH20 0xFFFFFFFFFFFFFFFFFFFFFFFFFFFFFFFFFFFFFFFF AND DUP4 PUSH20 0xFFFFFFFFFFFFFFFFFFFFFFFFFFFFFFFFFFFFFFFF AND SUB PUSH2 0x1566 JUMPI DUP1 PUSH1 0x40 MLOAD PUSH32 0x7E27328900000000000000000000000000000000000000000000000000000000 DUP2 MSTORE PUSH1 0x4 ADD PUSH2 0x155D SWAP2 SWAP1 PUSH2 0x1BCD JUMP JUMPDEST PUSH1 0x40 MLOAD DUP1 SWAP2 SUB SWAP1 REVERT JUMPDEST DUP2 DUP2 PUSH1 0x40 MLOAD PUSH32 0x177E802F00000000000000000000000000000000000000000000000000000000 DUP2 MSTORE PUSH1 0x4 ADD PUSH2 0x159C SWAP3 SWAP2 SWAP1 PUSH2 0x20D6 JUMP JUMPDEST PUSH1 0x40 MLOAD DUP1 SWAP2 SUB SWAP1 REVERT JUMPDEST POP POP POP JUMP JUMPDEST PUSH2 0x15B4 DUP4 DUP4 PUSH2 0x17DE JUMP JUMPDEST PUSH2 0x15C8 PUSH2 0x15BF PUSH2 0xC99 JUMP JUMPDEST PUSH0 DUP6 DUP6 DUP6 PUSH2 0x1063 JUMP JUMPDEST POP POP POP JUMP JUMPDEST PUSH0 PUSH0 PUSH0 SWAP1 POP PUSH27 0x184F03E93FF9F4DAA797ED6E38ED64BF6A1F010000000000000000 DUP4 LT PUSH2 0x1629 JUMPI PUSH27 0x184F03E93FF9F4DAA797ED6E38ED64BF6A1F010000000000000000 DUP4 DUP2 PUSH2 0x161F JUMPI PUSH2 0x161E PUSH2 0x20A9 JUMP JUMPDEST JUMPDEST DIV SWAP3 POP PUSH1 0x40 DUP2 ADD SWAP1 POP JUMPDEST PUSH14 0x4EE2D6D415B85ACEF8100000000 DUP4 LT PUSH2 0x1666 JUMPI PUSH14 0x4EE2D6D415B85ACEF8100000000 DUP4 DUP2 PUSH2 0x165C JUMPI PUSH2 0x165B PUSH2 0x20A9 JUMP JUMPDEST JUMPDEST DIV SWAP3 POP PUSH1 0x20 DUP2 ADD SWAP1 POP JUMPDEST PUSH7 0x2386F26FC10000 DUP4 LT PUSH2 0x1695 JUMPI PUSH7 0x2386F26FC10000 DUP4 DUP2 PUSH2 0x168B JUMPI PUSH2 0x168A PUSH2 0x20A9 JUMP JUMPDEST JUMPDEST DIV SWAP3 POP PUSH1 0x10 DUP2 ADD SWAP1 POP JUMPDEST PUSH4 0x5F5E100 DUP4 LT PUSH2 0x16BE JUMPI PUSH4 0x5F5E100 DUP4 DUP2 PUSH2 0x16B4 JUMPI PUSH2 0x16B3 PUSH2 0x20A9 JUMP JUMPDEST JUMPDEST DIV SWAP3 POP PUSH1 0x8 DUP2 ADD SWAP1 POP JUMPDEST PUSH2 0x2710 DUP4 LT PUSH2 0x16E3 JUMPI PUSH2 0x2710 DUP4 DUP2 PUSH2 0x16D9 JUMPI PUSH2 0x16D8 PUSH2 0x20A9 JUMP JUMPDEST JUMPDEST DIV SWAP3 POP PUSH1 0x4 DUP2 ADD SWAP1 POP JUMPDEST PUSH1 0x64 DUP4 LT PUSH2 0x1706 JUMPI PUSH1 0x64 DUP4 DUP2 PUSH2 0x16FC JUMPI PUSH2 0x16FB PUSH2 0x20A9 JUMP JUMPDEST JUMPDEST DIV SWAP3 POP PUSH1 0x2 DUP2 ADD SWAP1 POP JUMPDEST PUSH1 0xA DUP4 LT PUSH2 0x1715 JUMPI PUSH1 0x1 DUP2 ADD SWAP1 POP JUMPDEST DUP1 SWAP2 POP POP SWAP2 SWAP1 POP JUMP JUMPDEST PUSH0 PUSH0 PUSH20 0xFFFFFFFFFFFFFFFFFFFFFFFFFFFFFFFFFFFFFFFF AND DUP4 PUSH20 0xFFFFFFFFFFFFFFFFFFFFFFFFFFFFFFFFFFFFFFFF AND EQ ISZERO DUP1 ISZERO PUSH2 0x17D5 JUMPI POP DUP3 PUSH20 0xFFFFFFFFFFFFFFFFFFFFFFFFFFFFFFFFFFFFFFFF AND DUP5 PUSH20 0xFFFFFFFFFFFFFFFFFFFFFFFFFFFFFFFFFFFFFFFF AND EQ DUP1 PUSH2 0x1796 JUMPI POP PUSH2 0x1795 DUP5 DUP5 PUSH2 0xADD JUMP JUMPDEST JUMPDEST DUP1 PUSH2 0x17D4 JUMPI POP DUP3 PUSH20 0xFFFFFFFFFFFFFFFFFFFFFFFFFFFFFFFFFFFFFFFF AND PUSH2 0x17BC DUP4 PUSH2 0xC60 JUMP JUMPDEST PUSH20 0xFFFFFFFFFFFFFFFFFFFFFFFFFFFFFFFFFFFFFFFF AND EQ JUMPDEST JUMPDEST SWAP1 POP SWAP4 SWAP3 POP POP POP JUMP JUMPDEST PUSH0 PUSH20 0xFFFFFFFFFFFFFFFFFFFFFFFFFFFFFFFFFFFFFFFF AND DUP3 PUSH20 0xFFFFFFFFFFFFFFFFFFFFFFFFFFFFFFFFFFFFFFFF AND SUB PUSH2 0x184E JUMPI PUSH0 PUSH1 0x40 MLOAD PUSH32 0x64A0AE9200000000000000000000000000000000000000000000000000000000 DUP2 MSTORE PUSH1 0x4 ADD PUSH2 0x1845 SWAP2 SWAP1 PUSH2 0x1AC2 JUMP JUMPDEST PUSH1 0x40 MLOAD DUP1 SWAP2 SUB SWAP1 REVERT JUMPDEST PUSH0 PUSH2 0x185A DUP4 DUP4 PUSH0 PUSH2 0xCB2 JUMP JUMPDEST SWAP1 POP PUSH0 PUSH20 0xFFFFFFFFFFFFFFFFFFFFFFFFFFFFFFFFFFFFFFFF AND DUP2 PUSH20 0xFFFFFFFFFFFFFFFFFFFFFFFFFFFFFFFFFFFFFFFF AND EQ PUSH2 0x18CC JUMPI PUSH0 PUSH1 0x40 MLOAD PUSH32 0x73C6AC6E00000000000000000000000000000000000000000000000000000000 DUP2 MSTORE PUSH1 0x4 ADD PUSH2 0x18C3 SWAP2 SWAP1 PUSH2 0x1AC2 JUMP JUMPDEST PUSH1 0x40 MLOAD DUP1 SWAP2 SUB SWAP1 REVERT JUMPDEST POP POP POP JUMP JUMPDEST PUSH0 PUSH1 0x40 MLOAD SWAP1 POP SWAP1 JUMP JUMPDEST PUSH0 PUSH0 REVERT JUMPDEST PUSH0 PUSH0 REVERT JUMPDEST PUSH0 PUSH32 0xFFFFFFFF00000000000000000000000000000000000000000000000000000000 DUP3 AND SWAP1 POP SWAP2 SWAP1 POP JUMP JUMPDEST PUSH2 0x1916 DUP2 PUSH2 0x18E2 JUMP JUMPDEST DUP2 EQ PUSH2 0x1920 JUMPI PUSH0 PUSH0 REVERT JUMPDEST POP JUMP JUMPDEST PUSH0 DUP2 CALLDATALOAD SWAP1 POP PUSH2 0x1931 DUP2 PUSH2 0x190D JUMP JUMPDEST SWAP3 SWAP2 POP POP JUMP JUMPDEST PUSH0 PUSH1 0x20 DUP3 DUP5 SUB SLT ISZERO PUSH2 0x194C JUMPI PUSH2 0x194B PUSH2 0x18DA JUMP JUMPDEST JUMPDEST PUSH0 PUSH2 0x1959 DUP5 DUP3 DUP6 ADD PUSH2 0x1923 JUMP JUMPDEST SWAP2 POP POP SWAP3 SWAP2 POP POP JUMP JUMPDEST PUSH0 DUP2 ISZERO ISZERO SWAP1 POP SWAP2 SWAP1 POP JUMP JUMPDEST PUSH2 0x1976 DUP2 PUSH2 0x1962 JUMP JUMPDEST DUP3 MSTORE POP POP JUMP JUMPDEST PUSH0 PUSH1 0x20 DUP3 ADD SWAP1 POP PUSH2 0x198F PUSH0 DUP4 ADD DUP5 PUSH2 0x196D JUMP JUMPDEST SWAP3 SWAP2 POP POP JUMP JUMPDEST PUSH0 DUP2 MLOAD SWAP1 POP SWAP2 SWAP1 POP JUMP JUMPDEST PUSH0 DUP3 DUP3 MSTORE PUSH1 0x20 DUP3 ADD SWAP1 POP SWAP3 SWAP2 POP POP JUMP JUMPDEST DUP3 DUP2 DUP4 MCOPY PUSH0 DUP4 DUP4 ADD MSTORE POP POP POP JUMP JUMPDEST PUSH0 PUSH1 0x1F NOT PUSH1 0x1F DUP4 ADD AND SWAP1 POP SWAP2 SWAP1 POP JUMP JUMPDEST PUSH0 PUSH2 0x19D7 DUP3 PUSH2 0x1995 JUMP JUMPDEST PUSH2 0x19E1 DUP2 DUP6 PUSH2 0x199F JUMP JUMPDEST SWAP4 POP PUSH2 0x19F1 DUP2 DUP6 PUSH1 0x20 DUP7 ADD PUSH2 0x19AF JUMP JUMPDEST PUSH2 0x19FA DUP2 PUSH2 0x19BD JUMP JUMPDEST DUP5 ADD SWAP2 POP POP SWAP3 SWAP2 POP POP JUMP JUMPDEST PUSH0 PUSH1 0x20 DUP3 ADD SWAP1 POP DUP2 DUP2 SUB PUSH0 DUP4 ADD MSTORE PUSH2 0x1A1D DUP2 DUP5 PUSH2 0x19CD JUMP JUMPDEST SWAP1 POP SWAP3 SWAP2 POP POP JUMP JUMPDEST PUSH0 DUP2 SWAP1 POP SWAP2 SWAP1 POP JUMP JUMPDEST PUSH2 0x1A37 DUP2 PUSH2 0x1A25 JUMP JUMPDEST DUP2 EQ PUSH2 0x1A41 JUMPI PUSH0 PUSH0 REVERT JUMPDEST POP JUMP JUMPDEST PUSH0 DUP2 CALLDATALOAD SWAP1 POP PUSH2 0x1A52 DUP2 PUSH2 0x1A2E JUMP JUMPDEST SWAP3 SWAP2 POP POP JUMP JUMPDEST PUSH0 PUSH1 0x20 DUP3 DUP5 SUB SLT ISZERO PUSH2 0x1A6D JUMPI PUSH2 0x1A6C PUSH2 0x18DA JUMP JUMPDEST JUMPDEST PUSH0 PUSH2 0x1A7A DUP5 DUP3 DUP6 ADD PUSH2 0x1A44 JUMP JUMPDEST SWAP2 POP POP SWAP3 SWAP2 POP POP JUMP JUMPDEST PUSH0 PUSH20 0xFFFFFFFFFFFFFFFFFFFFFFFFFFFFFFFFFFFFFFFF DUP3 AND SWAP1 POP SWAP2 SWAP1 POP JUMP JUMPDEST PUSH0 PUSH2 0x1AAC DUP3 PUSH2 0x1A83 JUMP JUMPDEST SWAP1 POP SWAP2 SWAP1 POP JUMP JUMPDEST PUSH2 0x1ABC DUP2 PUSH2 0x1AA2 JUMP JUMPDEST DUP3 MSTORE POP POP JUMP JUMPDEST PUSH0 PUSH1 0x20 DUP3 ADD SWAP1 POP PUSH2 0x1AD5 PUSH0 DUP4 ADD DUP5 PUSH2 0x1AB3 JUMP JUMPDEST SWAP3 SWAP2 POP POP JUMP JUMPDEST PUSH2 0x1AE4 DUP2 PUSH2 0x1AA2 JUMP JUMPDEST DUP2 EQ PUSH2 0x1AEE JUMPI PUSH0 PUSH0 REVERT JUMPDEST POP JUMP JUMPDEST PUSH0 DUP2 CALLDATALOAD SWAP1 POP PUSH2 0x1AFF DUP2 PUSH2 0x1ADB JUMP JUMPDEST SWAP3 SWAP2 POP POP JUMP JUMPDEST PUSH0 PUSH0 PUSH1 0x40 DUP4 DUP6 SUB SLT ISZERO PUSH2 0x1B1B JUMPI PUSH2 0x1B1A PUSH2 0x18DA JUMP JUMPDEST JUMPDEST PUSH0 PUSH2 0x1B28 DUP6 DUP3 DUP7 ADD PUSH2 0x1AF1 JUMP JUMPDEST SWAP3 POP POP PUSH1 0x20 PUSH2 0x1B39 DUP6 DUP3 DUP7 ADD PUSH2 0x1A44 JUMP JUMPDEST SWAP2 POP POP SWAP3 POP SWAP3 SWAP1 POP JUMP JUMPDEST PUSH0 PUSH0 PUSH0 PUSH1 0x60 DUP5 DUP7 SUB SLT ISZERO PUSH2 0x1B5A JUMPI PUSH2 0x1B59 PUSH2 0x18DA JUMP JUMPDEST JUMPDEST PUSH0 PUSH2 0x1B67 DUP7 DUP3 DUP8 ADD PUSH2 0x1AF1 JUMP JUMPDEST SWAP4 POP POP PUSH1 0x20 PUSH2 0x1B78 DUP7 DUP3 DUP8 ADD PUSH2 0x1AF1 JUMP JUMPDEST SWAP3 POP POP PUSH1 0x40 PUSH2 0x1B89 DUP7 DUP3 DUP8 ADD PUSH2 0x1A44 JUMP JUMPDEST SWAP2 POP POP SWAP3 POP SWAP3 POP SWAP3 JUMP JUMPDEST PUSH0 PUSH1 0x20 DUP3 DUP5 SUB SLT ISZERO PUSH2 0x1BA8 JUMPI PUSH2 0x1BA7 PUSH2 0x18DA JUMP JUMPDEST JUMPDEST PUSH0 PUSH2 0x1BB5 DUP5 DUP3 DUP6 ADD PUSH2 0x1AF1 JUMP JUMPDEST SWAP2 POP POP SWAP3 SWAP2 POP POP JUMP JUMPDEST PUSH2 0x1BC7 DUP2 PUSH2 0x1A25 JUMP JUMPDEST DUP3 MSTORE POP POP JUMP JUMPDEST PUSH0 PUSH1 0x20 DUP3 ADD SWAP1 POP PUSH2 0x1BE0 PUSH0 DUP4 ADD DUP5 PUSH2 0x1BBE JUMP JUMPDEST SWAP3 SWAP2 POP POP JUMP JUMPDEST PUSH2 0x1BEF DUP2 PUSH2 0x1962 JUMP JUMPDEST DUP2 EQ PUSH2 0x1BF9 JUMPI PUSH0 PUSH0 REVERT JUMPDEST POP JUMP JUMPDEST PUSH0 DUP2 CALLDATALOAD SWAP1 POP PUSH2 0x1C0A DUP2 PUSH2 0x1BE6 JUMP JUMPDEST SWAP3 SWAP2 POP POP JUMP JUMPDEST PUSH0 PUSH0 PUSH1 0x40 DUP4 DUP6 SUB SLT ISZERO PUSH2 0x1C26 JUMPI PUSH2 0x1C25 PUSH2 0x18DA JUMP JUMPDEST JUMPDEST PUSH0 PUSH2 0x1C33 DUP6 DUP3 DUP7 ADD PUSH2 0x1AF1 JUMP JUMPDEST SWAP3 POP POP PUSH1 0x20 PUSH2 0x1C44 DUP6 DUP3 DUP7 ADD PUSH2 0x1BFC JUMP JUMPDEST SWAP2 POP POP SWAP3 POP SWAP3 SWAP1 POP JUMP JUMPDEST PUSH0 PUSH0 REVERT JUMPDEST PUSH0 PUSH0 REVERT JUMPDEST PUSH32 0x4E487B7100000000000000000000000000000000000000000000000000000000 PUSH0 MSTORE PUSH1 0x41 PUSH1 0x4 MSTORE PUSH1 0x24 PUSH0 REVERT JUMPDEST PUSH2 0x1C8C DUP3 PUSH2 0x19BD JUMP JUMPDEST DUP2 ADD DUP2 DUP2 LT PUSH8 0xFFFFFFFFFFFFFFFF DUP3 GT OR ISZERO PUSH2 0x1CAB JUMPI PUSH2 0x1CAA PUSH2 0x1C56 JUMP JUMPDEST JUMPDEST DUP1 PUSH1 0x40 MSTORE POP POP POP JUMP JUMPDEST PUSH0 PUSH2 0x1CBD PUSH2 0x18D1 JUMP JUMPDEST SWAP1 POP PUSH2 0x1CC9 DUP3 DUP3 PUSH2 0x1C83 JUMP JUMPDEST SWAP2 SWAP1 POP JUMP JUMPDEST PUSH0 PUSH8 0xFFFFFFFFFFFFFFFF DUP3 GT ISZERO PUSH2 0x1CE8 JUMPI PUSH2 0x1CE7 PUSH2 0x1C56 JUMP JUMPDEST JUMPDEST PUSH2 0x1CF1 DUP3 PUSH2 0x19BD JUMP JUMPDEST SWAP1 POP PUSH1 0x20 DUP2 ADD SWAP1 POP SWAP2 SWAP1 POP JUMP JUMPDEST DUP3 DUP2 DUP4 CALLDATACOPY PUSH0 DUP4 DUP4 ADD MSTORE POP POP POP JUMP JUMPDEST PUSH0 PUSH2 0x1D1E PUSH2 0x1D19 DUP5 PUSH2 0x1CCE JUMP JUMPDEST PUSH2 0x1CB4 JUMP JUMPDEST SWAP1 POP DUP3 DUP2 MSTORE PUSH1 0x20 DUP2 ADD DUP5 DUP5 DUP5 ADD GT ISZERO PUSH2 0x1D3A JUMPI PUSH2 0x1D39 PUSH2 0x1C52 JUMP JUMPDEST JUMPDEST PUSH2 0x1D45 DUP5 DUP3 DUP6 PUSH2 0x1CFE JUMP JUMPDEST POP SWAP4 SWAP3 POP POP POP JUMP JUMPDEST PUSH0 DUP3 PUSH1 0x1F DUP4 ADD SLT PUSH2 0x1D61 JUMPI PUSH2 0x1D60 PUSH2 0x1C4E JUMP JUMPDEST JUMPDEST DUP2 CALLDATALOAD PUSH2 0x1D71 DUP5 DUP3 PUSH1 0x20 DUP7 ADD PUSH2 0x1D0C JUMP JUMPDEST SWAP2 POP POP SWAP3 SWAP2 POP POP JUMP JUMPDEST PUSH0 PUSH0 PUSH0 PUSH0 PUSH1 0x80 DUP6 DUP8 SUB SLT ISZERO PUSH2 0x1D92 JUMPI PUSH2 0x1D91 PUSH2 0x18DA JUMP JUMPDEST JUMPDEST PUSH0 PUSH2 0x1D9F DUP8 DUP3 DUP9 ADD PUSH2 0x1AF1 JUMP JUMPDEST SWAP5 POP POP PUSH1 0x20 PUSH2 0x1DB0 DUP8 DUP3 DUP9 ADD PUSH2 0x1AF1 JUMP JUMPDEST SWAP4 POP POP PUSH1 0x40 PUSH2 0x1DC1 DUP8 DUP3 DUP9 ADD PUSH2 0x1A44 JUMP JUMPDEST SWAP3 POP POP PUSH1 0x60 DUP6 ADD CALLDATALOAD PUSH8 0xFFFFFFFFFFFFFFFF DUP2 GT ISZERO PUSH2 0x1DE2 JUMPI PUSH2 0x1DE1 PUSH2 0x18DE JUMP JUMPDEST JUMPDEST PUSH2 0x1DEE DUP8 DUP3 DUP9 ADD PUSH2 0x1D4D JUMP JUMPDEST SWAP2 POP POP SWAP3 SWAP6 SWAP2 SWAP5 POP SWAP3 POP JUMP JUMPDEST PUSH0 PUSH0 PUSH1 0x40 DUP4 DUP6 SUB SLT ISZERO PUSH2 0x1E10 JUMPI PUSH2 0x1E0F PUSH2 0x18DA JUMP JUMPDEST JUMPDEST PUSH0 PUSH2 0x1E1D DUP6 DUP3 DUP7 ADD PUSH2 0x1AF1 JUMP JUMPDEST SWAP3 POP POP PUSH1 0x20 PUSH2 0x1E2E DUP6 DUP3 DUP7 ADD PUSH2 0x1AF1 JUMP JUMPDEST SWAP2 POP POP SWAP3 POP SWAP3 SWAP1 POP JUMP JUMPDEST PUSH32 0x4E487B7100000000000000000000000000000000000000000000000000000000 PUSH0 MSTORE PUSH1 0x22 PUSH1 0x4 MSTORE PUSH1 0x24 PUSH0 REVERT JUMPDEST PUSH0 PUSH1 0x2 DUP3 DIV SWAP1 POP PUSH1 0x1 DUP3 AND DUP1 PUSH2 0x1E7C JUMPI PUSH1 0x7F DUP3 AND SWAP2 POP JUMPDEST PUSH1 0x20 DUP3 LT DUP2 SUB PUSH2 0x1E8F JUMPI PUSH2 0x1E8E PUSH2 0x1E38 JUMP JUMPDEST JUMPDEST POP SWAP2 SWAP1 POP JUMP JUMPDEST PUSH0 PUSH1 0x60 DUP3 ADD SWAP1 POP PUSH2 0x1EA8 PUSH0 DUP4 ADD DUP7 PUSH2 0x1AB3 JUMP JUMPDEST PUSH2 0x1EB5 PUSH1 0x20 DUP4 ADD DUP6 PUSH2 0x1BBE JUMP JUMPDEST PUSH2 0x1EC2 PUSH1 0x40 DUP4 ADD DUP5 PUSH2 0x1AB3 JUMP JUMPDEST SWAP5 SWAP4 POP POP POP POP JUMP JUMPDEST PUSH32 0x4E487B7100000000000000000000000000000000000000000000000000000000 PUSH0 MSTORE PUSH1 0x11 PUSH1 0x4 MSTORE PUSH1 0x24 PUSH0 REVERT JUMPDEST PUSH0 PUSH2 0x1F01 DUP3 PUSH2 0x1A25 JUMP JUMPDEST SWAP2 POP PUSH32 0xFFFFFFFFFFFFFFFFFFFFFFFFFFFFFFFFFFFFFFFFFFFFFFFFFFFFFFFFFFFFFFFF DUP3 SUB PUSH2 0x1F33 JUMPI PUSH2 0x1F32 PUSH2 0x1ECA JUMP JUMPDEST JUMPDEST PUSH1 0x1 DUP3 ADD SWAP1 POP SWAP2 SWAP1 POP JUMP JUMPDEST PUSH0 PUSH2 0x1F48 DUP3 PUSH2 0x1A25 JUMP JUMPDEST SWAP2 POP PUSH2 0x1F53 DUP4 PUSH2 0x1A25 JUMP JUMPDEST SWAP3 POP DUP3 DUP3 ADD SWAP1 POP DUP1 DUP3 GT ISZERO PUSH2 0x1F6B JUMPI PUSH2 0x1F6A PUSH2 0x1ECA JUMP JUMPDEST JUMPDEST SWAP3 SWAP2 POP POP JUMP JUMPDEST PUSH0 DUP2 SWAP1 POP SWAP3 SWAP2 POP POP JUMP JUMPDEST PUSH0 PUSH2 0x1F85 DUP3 PUSH2 0x1995 JUMP JUMPDEST PUSH2 0x1F8F DUP2 DUP6 PUSH2 0x1F71 JUMP JUMPDEST SWAP4 POP PUSH2 0x1F9F DUP2 DUP6 PUSH1 0x20 DUP7 ADD PUSH2 0x19AF JUMP JUMPDEST DUP1 DUP5 ADD SWAP2 POP POP SWAP3 SWAP2 POP POP JUMP JUMPDEST PUSH0 PUSH2 0x1FB6 DUP3 DUP6 PUSH2 0x1F7B JUMP JUMPDEST SWAP2 POP PUSH2 0x1FC2 DUP3 DUP5 PUSH2 0x1F7B JUMP JUMPDEST SWAP2 POP DUP2 SWAP1 POP SWAP4 SWAP3 POP POP POP JUMP JUMPDEST PUSH0 DUP2 MLOAD SWAP1 POP SWAP2 SWAP1 POP JUMP JUMPDEST PUSH0 DUP3 DUP3 MSTORE PUSH1 0x20 DUP3 ADD SWAP1 POP SWAP3 SWAP2 POP POP JUMP JUMPDEST PUSH0 PUSH2 0x1FF2 DUP3 PUSH2 0x1FCE JUMP JUMPDEST PUSH2 0x1FFC DUP2 DUP6 PUSH2 0x1FD8 JUMP JUMPDEST SWAP4 POP PUSH2 0x200C DUP2 DUP6 PUSH1 0x20 DUP7 ADD PUSH2 0x19AF JUMP JUMPDEST PUSH2 0x2015 DUP2 PUSH2 0x19BD JUMP JUMPDEST DUP5 ADD SWAP2 POP POP SWAP3 SWAP2 POP POP JUMP JUMPDEST PUSH0 PUSH1 0x80 DUP3 ADD SWAP1 POP PUSH2 0x2033 PUSH0 DUP4 ADD DUP8 PUSH2 0x1AB3 JUMP JUMPDEST PUSH2 0x2040 PUSH1 0x20 DUP4 ADD DUP7 PUSH2 0x1AB3 JUMP JUMPDEST PUSH2 0x204D PUSH1 0x40 DUP4 ADD DUP6 PUSH2 0x1BBE JUMP JUMPDEST DUP2 DUP2 SUB PUSH1 0x60 DUP4 ADD MSTORE PUSH2 0x205F DUP2 DUP5 PUSH2 0x1FE8 JUMP JUMPDEST SWAP1 POP SWAP6 SWAP5 POP POP POP POP POP JUMP JUMPDEST PUSH0 DUP2 MLOAD SWAP1 POP PUSH2 0x2078 DUP2 PUSH2 0x190D JUMP JUMPDEST SWAP3 SWAP2 POP POP JUMP JUMPDEST PUSH0 PUSH1 0x20 DUP3 DUP5 SUB SLT ISZERO PUSH2 0x2093 JUMPI PUSH2 0x2092 PUSH2 0x18DA JUMP JUMPDEST JUMPDEST PUSH0 PUSH2 0x20A0 DUP5 DUP3 DUP6 ADD PUSH2 0x206A JUMP JUMPDEST SWAP2 POP POP SWAP3 SWAP2 POP POP JUMP JUMPDEST PUSH32 0x4E487B7100000000000000000000000000000000000000000000000000000000 PUSH0 MSTORE PUSH1 0x12 PUSH1 0x4 MSTORE PUSH1 0x24 PUSH0 REVERT JUMPDEST PUSH0 PUSH1 0x40 DUP3 ADD SWAP1 POP PUSH2 0x20E9 PUSH0 DUP4 ADD DUP6 PUSH2 0x1AB3 JUMP JUMPDEST PUSH2 0x20F6 PUSH1 0x20 DUP4 ADD DUP5 PUSH2 0x1BBE JUMP JUMPDEST SWAP4 SWAP3 POP POP POP JUMP INVALID LOG2 PUSH5 0x6970667358 0x22 SLT KECCAK256 0xC8 STOP LT 0xDE 0xD DUP2 DIV OR 0xAE 0xCA PUSH3 0x2757B1 PUSH30 0xD3CD2E372CAEC4668DC16586886CB9A23564736F6C634300081E00330000 "
		},
		"gasEstimates": {
			"creation": {
				"codeDepositCost": "1699800",
				"executionCost": "infinite",
				"totalCost": "infinite"
			},
			"external": {
				"DonosDosBolos(uint256)": "4989",
				"approve(address,uint256)": "infinite",
				"balanceOf(address)": "infinite",
				"bolo()": "infinite",
				"getApproved(uint256)": "infinite",
				"isApprovedForAll(address,address)": "infinite",
				"mint(address,uint256)": "infinite",
				"name()": "infinite",
				"ownerOf(uint256)": "infinite",
				"safeTransferFrom(address,address,uint256)": "infinite",
				"safeTransferFrom(address,address,uint256,bytes)": "infinite",
				"setApprovalForAll(address,bool)": "infinite",
				"somaBolo()": "2535",
				"supportsInterface(bytes4)": "787",
				"symbol()": "infinite",
				"tokenURI(uint256)": "infinite",
				"totalDeQuilos(address)": "2868",
				"transferFrom(address,address,uint256)": "infinite"
			}
		},
		"methodIdentifiers": {
			"DonosDosBolos(uint256)": "39e1dee8",
			"approve(address,uint256)": "095ea7b3",
			"balanceOf(address)": "70a08231",
			"bolo()": "5986144e",
			"getApproved(uint256)": "081812fc",
			"isApprovedForAll(address,address)": "e985e9c5",
			"mint(address,uint256)": "40c10f19",
			"name()": "06fdde03",
			"ownerOf(uint256)": "6352211e",
			"safeTransferFrom(address,address,uint256)": "42842e0e",
			"safeTransferFrom(address,address,uint256,bytes)": "b88d4fde",
			"setApprovalForAll(address,bool)": "a22cb465",
			"somaBolo()": "f8bf1af0",
			"supportsInterface(bytes4)": "01ffc9a7",
			"symbol()": "95d89b41",
			"tokenURI(uint256)": "c87b56dd",
			"totalDeQuilos(address)": "cfa150a5",
			"transferFrom(address,address,uint256)": "23b872dd"
		}
	},
	"abi": [
		{
			"inputs": [],
			"stateMutability": "nonpayable",
			"type": "constructor"
		},
		{
			"inputs": [
				{
					"internalType": "address",
					"name": "sender",
					"type": "address"
				},
				{
					"internalType": "uint256",
					"name": "tokenId",
					"type": "uint256"
				},
				{
					"internalType": "address",
					"name": "owner",
					"type": "address"
				}
			],
			"name": "ERC721IncorrectOwner",
			"type": "error"
		},
		{
			"inputs": [
				{
					"internalType": "address",
					"name": "operator",
					"type": "address"
				},
				{
					"internalType": "uint256",
					"name": "tokenId",
					"type": "uint256"
				}
			],
			"name": "ERC721InsufficientApproval",
			"type": "error"
		},
		{
			"inputs": [
				{
					"internalType": "address",
					"name": "approver",
					"type": "address"
				}
			],
			"name": "ERC721InvalidApprover",
			"type": "error"
		},
		{
			"inputs": [
				{
					"internalType": "address",
					"name": "operator",
					"type": "address"
				}
			],
			"name": "ERC721InvalidOperator",
			"type": "error"
		},
		{
			"inputs": [
				{
					"internalType": "address",
					"name": "owner",
					"type": "address"
				}
			],
			"name": "ERC721InvalidOwner",
			"type": "error"
		},
		{
			"inputs": [
				{
					"internalType": "address",
					"name": "receiver",
					"type": "address"
				}
			],
			"name": "ERC721InvalidReceiver",
			"type": "error"
		},
		{
			"inputs": [
				{
					"internalType": "address",
					"name": "sender",
					"type": "address"
				}
			],
			"name": "ERC721InvalidSender",
			"type": "error"
		},
		{
			"inputs": [
				{
					"internalType": "uint256",
					"name": "tokenId",
					"type": "uint256"
				}
			],
			"name": "ERC721NonexistentToken",
			"type": "error"
		},
		{
			"anonymous": false,
			"inputs": [
				{
					"indexed": true,
					"internalType": "address",
					"name": "owner",
					"type": "address"
				},
				{
					"indexed": true,
					"internalType": "address",
					"name": "approved",
					"type": "address"
				},
				{
					"indexed": true,
					"internalType": "uint256",
					"name": "tokenId",
					"type": "uint256"
				}
			],
			"name": "Approval",
			"type": "event"
		},
		{
			"anonymous": false,
			"inputs": [
				{
					"indexed": true,
					"internalType": "address",
					"name": "owner",
					"type": "address"
				},
				{
					"indexed": true,
					"internalType": "address",
					"name": "operator",
					"type": "address"
				},
				{
					"indexed": false,
					"internalType": "bool",
					"name": "approved",
					"type": "bool"
				}
			],
			"name": "ApprovalForAll",
			"type": "event"
		},
		{
			"anonymous": false,
			"inputs": [
				{
					"indexed": true,
					"internalType": "address",
					"name": "from",
					"type": "address"
				},
				{
					"indexed": true,
					"internalType": "address",
					"name": "to",
					"type": "address"
				},
				{
					"indexed": true,
					"internalType": "uint256",
					"name": "tokenId",
					"type": "uint256"
				}
			],
			"name": "Transfer",
			"type": "event"
		},
		{
			"inputs": [
				{
					"internalType": "uint256",
					"name": "",
					"type": "uint256"
				}
			],
			"name": "DonosDosBolos",
			"outputs": [
				{
					"internalType": "address",
					"name": "",
					"type": "address"
				}
			],
			"stateMutability": "view",
			"type": "function"
		},
		{
			"inputs": [
				{
					"internalType": "address",
					"name": "to",
					"type": "address"
				},
				{
					"internalType": "uint256",
					"name": "tokenId",
					"type": "uint256"
				}
			],
			"name": "approve",
			"outputs": [],
			"stateMutability": "nonpayable",
			"type": "function"
		},
		{
			"inputs": [
				{
					"internalType": "address",
					"name": "owner",
					"type": "address"
				}
			],
			"name": "balanceOf",
			"outputs": [
				{
					"internalType": "uint256",
					"name": "",
					"type": "uint256"
				}
			],
			"stateMutability": "view",
			"type": "function"
		},
		{
			"inputs": [],
			"name": "bolo",
			"outputs": [
				{
					"internalType": "string",
					"name": "novoBolo",
					"type": "string"
				}
			],
			"stateMutability": "nonpayable",
			"type": "function"
		},
		{
			"inputs": [
				{
					"internalType": "uint256",
					"name": "tokenId",
					"type": "uint256"
				}
			],
			"name": "getApproved",
			"outputs": [
				{
					"internalType": "address",
					"name": "",
					"type": "address"
				}
			],
			"stateMutability": "view",
			"type": "function"
		},
		{
			"inputs": [
				{
					"internalType": "address",
					"name": "owner",
					"type": "address"
				},
				{
					"internalType": "address",
					"name": "operator",
					"type": "address"
				}
			],
			"name": "isApprovedForAll",
			"outputs": [
				{
					"internalType": "bool",
					"name": "",
					"type": "bool"
				}
			],
			"stateMutability": "view",
			"type": "function"
		},
		{
			"inputs": [
				{
					"internalType": "address",
					"name": "_receiver",
					"type": "address"
				},
				{
					"internalType": "uint256",
					"name": "_mintAmount",
					"type": "uint256"
				}
			],
			"name": "mint",
			"outputs": [],
			"stateMutability": "payable",
			"type": "function"
		},
		{
			"inputs": [],
			"name": "name",
			"outputs": [
				{
					"internalType": "string",
					"name": "",
					"type": "string"
				}
			],
			"stateMutability": "view",
			"type": "function"
		},
		{
			"inputs": [
				{
					"internalType": "uint256",
					"name": "tokenId",
					"type": "uint256"
				}
			],
			"name": "ownerOf",
			"outputs": [
				{
					"internalType": "address",
					"name": "",
					"type": "address"
				}
			],
			"stateMutability": "view",
			"type": "function"
		},
		{
			"inputs": [
				{
					"internalType": "address",
					"name": "from",
					"type": "address"
				},
				{
					"internalType": "address",
					"name": "to",
					"type": "address"
				},
				{
					"internalType": "uint256",
					"name": "tokenId",
					"type": "uint256"
				}
			],
			"name": "safeTransferFrom",
			"outputs": [],
			"stateMutability": "nonpayable",
			"type": "function"
		},
		{
			"inputs": [
				{
					"internalType": "address",
					"name": "from",
					"type": "address"
				},
				{
					"internalType": "address",
					"name": "to",
					"type": "address"
				},
				{
					"internalType": "uint256",
					"name": "tokenId",
					"type": "uint256"
				},
				{
					"internalType": "bytes",
					"name": "data",
					"type": "bytes"
				}
			],
			"name": "safeTransferFrom",
			"outputs": [],
			"stateMutability": "nonpayable",
			"type": "function"
		},
		{
			"inputs": [
				{
					"internalType": "address",
					"name": "operator",
					"type": "address"
				},
				{
					"internalType": "bool",
					"name": "approved",
					"type": "bool"
				}
			],
			"name": "setApprovalForAll",
			"outputs": [],
			"stateMutability": "nonpayable",
			"type": "function"
		},
		{
			"inputs": [],
			"name": "somaBolo",
			"outputs": [
				{
					"internalType": "uint256",
					"name": "",
					"type": "uint256"
				}
			],
			"stateMutability": "view",
			"type": "function"
		},
		{
			"inputs": [
				{
					"internalType": "bytes4",
					"name": "interfaceId",
					"type": "bytes4"
				}
			],
			"name": "supportsInterface",
			"outputs": [
				{
					"internalType": "bool",
					"name": "",
					"type": "bool"
				}
			],
			"stateMutability": "view",
			"type": "function"
		},
		{
			"inputs": [],
			"name": "symbol",
			"outputs": [
				{
					"internalType": "string",
					"name": "",
					"type": "string"
				}
			],
			"stateMutability": "view",
			"type": "function"
		},
		{
			"inputs": [
				{
					"internalType": "uint256",
					"name": "tokenId",
					"type": "uint256"
				}
			],
			"name": "tokenURI",
			"outputs": [
				{
					"internalType": "string",
					"name": "",
					"type": "string"
				}
			],
			"stateMutability": "view",
			"type": "function"
		},
		{
			"inputs": [
				{
					"internalType": "address",
					"name": "",
					"type": "address"
				}
			],
			"name": "totalDeQuilos",
			"outputs": [
				{
					"internalType": "uint256",
					"name": "",
					"type": "uint256"
				}
			],
			"stateMutability": "view",
			"type": "function"
		},
		{
			"inputs": [
				{
					"internalType": "address",
					"name": "from",
					"type": "address"
				},
				{
					"internalType": "address",
					"name": "to",
					"type": "address"
				},
				{
					"internalType": "uint256",
					"name": "tokenId",
					"type": "uint256"
				}
			],
			"name": "transferFrom",
			"outputs": [],
			"stateMutability": "nonpayable",
			"type": "function"
		}
	]
}